:1000000080350120B5340000C3740100893400003C
:1000100089340000893400008934000000000000A9
:10002000000000000000000000000000853100001A
:1000300089340000000000003131000089340000E4
:100040003532000031040100353200003532000045
:100050003532000035320000353200003532000004
:1000600035320000353200003532000035320000F4
:1000700035320000353200003532000035320000E4
:1000800035320000353200003532000035320000D4
:1000900035320000353200003532000035320000C4
:1000A00035320000353200003532000035320000B4
:1000B00035320000353200003532000035320000A4
:1000C0003532000035320000353200003532000094
:1000D0003532000035320000353200003532000084
:1000E0003532000035320000353200003532000074
:1000F0003532000035320000353200003532000064
:1001000053B94AB9002908BF00281CBF4FF0FF317E
:100110004FF0FF3000F00CB8ADF1080C6DE904CEE3
:1001200000F008F8DDF804E0DDE9022304B07047D0
:10013000704700BF2DE9F04786468C460846089E6A
:10014000154674461946002B40F0C2808542B2FA2B
:1001500082F245D94AB1C2F1200300FA02FC2EFA1C
:1001600003F3954043EA0C0C94404FEA154EA8B2B5
:10017000BCFBFEF8230C0EFB18CC08FB00F943EA8D
:100180000C43994528D9EB1808F1FF3704D299455B
:1001900002D9A8F102072B44A3EB0903A4B2B3FBD5
:1001A000FEFC0EFB1C330CFB00F044EA0344A042AF
:1001B00014D92C190CF1FF3304D2A04202D9ACF1AE
:1001C00002032C44241A43EA07401EB1D440002302
:1001D00034607360BDE8F0874746DDE76346F1E7CA
:1001E00092BB431B01214FEA154EAFB2B3FBFEFC9D
:1001F000200C0EFB1C330CFB07F840EA0343984528
:1002000062D9EB180CF1FF3004D2984502D9ACF159
:1002100002002B44A3EB0803A4B2B3FBFEFC0EFBCD
:100220001C330CFB07F744EA0344A7424ED92C19B0
:100230000CF1FF3304D2A74202D9ACF102032C44E3
:10024000E41B43EA0040C0E7C2F1200320FA03F1B7
:10025000954090402EFA03F303434FEA154EAFB298
:10026000B1FBFEFC0EFB1C10190C0CFB07F841EA5D
:100270000041884504FA02F422D969180CF1FF30D4
:1002800004D2884502D9ACF102002944A1EB08014F
:100290009BB2B1FBFEFC0EFB1C110CFB07F743EA03
:1002A00001439F420ED9EB180CF1FF3104D29F425B
:1002B00002D9ACF102012B44DB1B41EA004192E779
:1002C0006046E3E76146F7E76046A3E76346B7E7C2
:1002D000834206D916B9002108467BE7C6E900E04B
:1002E000F9E7B3FA83F78FB9834201D3724508D88F
:1002F000BEEB020460EB030301209C461EB9002103
:1003000068E73846FAE7C6E9004CF8E7C7F1200C81
:10031000BB4022FA0CF41C432EFA0CF120FA0CF329
:10032000B84001434FEA14490EFA07F5B3FBF9F858
:100330001FFA84FE09FB18300B0C08FB0EFA43EA87
:1003400000439A4502FA07F240D9E31808F1FF305A
:1003500004D29A4502D9A8F102002344A3EB0A0370
:1003600089B2B3FBF9F809FB183308FB0EFE41EA2A
:1003700003418E452CD9611808F1FF3304D28E4514
:1003800002D9A8F10203214443EA0040A0FB0298ED
:10039000A1EB0E014145CE46434602D306D14D4561
:1003A00004D2B9EB020E68EB04030138002EA6D08C
:1003B000B5EB0E0261EB030101FA0CFC22FA07F324
:1003C0004CEA0303F940C6E9003198E74046C5E727
:1003D0004346D9E7000000002DE9F843D0E90B358A
:1003E000D0F828805C193034A0450F46164619D83D
:1003F0001D4DA3FB05011AA3D3E90023FFF780FEDF
:100400000346A4EB0800A0FB050123F07F4414A3DE
:10041000D3E90023FFF774FE20F07F403C6030609A
:10042000BDE8F883DFF840900DA3D3E90023A8FBD3
:100430000901FFF765FE044605F1300008A3D3E982
:100440000023A0FB0901FFF75BFE24F07F4420F0AE
:100450007F403C603060BDE8F88300BFAFF30080B0
:100460008D49FD1A0700000000CA9A3B00000000F9
:10047000002800F064812DE9F04FB74C94F86A2011
:1004800012F001058FB040F0A78194F82500FF23FA
:1004900000F0030084F826300FF0D6FB94F86A00D1
:1004A000420727D494F8292094F8353004EB8202CF
:1004B00004EB8303D66AD3F8388086B1A648314668
:1004C00008F0BAFB33785B0605D5062103F046FA3F
:1004D000002800F08381A048414608F0ADFB337846
:1004E00013F00E0F40F0C480236A93B10C200FB0BC
:1004F000BDE8F08F2A4604F16B01C0F3C0000FF095
:1005000025FDFF2884F82600CCD028460FF0E2FB1A
:10051000C8E707F073FB8146002800F0718107F0FF
:1005200079FB8246002800F0688108F02DFF05461F
:10053000002800F067814FF6FF73D0F888002B8504
:1005400005F11C030B93002800F04E8105F17C029D
:1005500005F1780103F00EFAB5F8763095F88E20A3
:10056000DFF8F8B123F4EF6323F0070343F4887353
:1005700043F00103A5F8763095F8393022F00702F0
:10058000594685F88E2003F03F0395F83C2063F030
:100590007F0385F8393022F0070211F8013B85F816
:1005A0003C2095F8922103F0010363F3000285F8E3
:1005B00092217F22002785F8D1204FF4C022C5F870
:1005C0008021C5E912770622C5F88870A5F88C70DD
:1005D0006F86C5F82E7085F83B702F65A5F886717B
:1005E000A5F87C7105F293100B9316F091FF0B9B0D
:1005F00095F8922163F341020BF1010185F89221F4
:1006000005F29910062216F083FF28460BF0F8FC3D
:1006100085F84871C5F84C9109F01EFA95F88C31AF
:1006200060F3020385F88C3109F01CFA95F88C31DF
:1006300060F3C50385F88C3195F8783167F3410391
:1006400085F878310121284609F038FF05F1D400FA
:100650000BF0B8FA05F11C03C4E9189A2362C5E946
:1006600005772F70ED6110F083FB002840F0B88013
:1006700094F824300121C3F342030DF133008DF8C7
:10068000333003F001FB024600285AD098F80110DD
:10069000304608F0D1F83249B4F8687000253123AB
:1006A000A360C4E905552AA3D3E90023257065603A
:1006B000E560A0FB0101FFF723FD206104F092FD3E
:1006C00080463FB9357805F00F05A5F10105B5FA6B
:1006D00085F56D0994F82400236965F3000010F096
:1006E000010584F8240043D000201E4A1E4F0493C5
:1006F00002250DAE019305920321CDE90200089673
:1007000006944346009007972A460D9504F03EFC58
:10071000314607F0F9FAA0B9144905914AF2D833E5
:100720000093CDE90300CDE90100079708960694F0
:100730004346012203210D9504F028FC3EE007F01A
:10074000F5BF236A002B3FF4D1AE07F0C3FFCDE61F
:100750008D49FD1A07000000CC33002013960100DC
:1007600000CA9A3BA9880000957400002186000009
:100770002B4A2C48049303F24713069402959121C7
:100780001360A7FB000301FB0731274B0793274B9F
:1007900005934FF6FF730992022703930DAE1EA334
:1007A000D3E900230D970896FFF7AAFC4346CDE94D
:1007B00000503A462846032104F092FB314607F0E8
:1007C000A3FA0028BDD194F86A3043F0010384F8FD
:1007D0006A3008F02FFC60B1002088E6122086E61F
:1007E00007F078FF032082E605F18000C5F8880055
:1007F000ACE601200FF00AFAEEE7484607F004FAEB
:10080000072074E6504607F00BFA484607F0FCF95B
:10081000F6E700BFAFF300808D49FD1A0700000026
:10082000C0330020002AE78495740000A9880000E6
:1008300070B590F824308AB0C3F342030D460446E5
:1008400001210DF1230016468DF8233003F01CFA28
:1008500071780246284607F0EFFF1D491AA3D3E935
:100860000023A0FB0101FFF74BFC236998420546DA
:1008700021D21B1A00220192164A0293164BA21A89
:10088000A3FB02320221920900230A4409AE099116
:1008900012490591CDE903330321D2B206960093A4
:1008A000184604F0E7FB314607F02EFA38B9256107
:1008B00000200AB070BDFBD9C21A0023DBE70C2070
:1008C0000AB070BDAFF300808D49FD1A070000002B
:1008D00000CA9A3BCC330020898888889574000030
:1008E00038B5194C9DF810E094F844C01CF001058F
:1008F00022D163F3420C400194F83230A1874FEAD1
:10090000CE0E0EF0180E00F0200040EA0E0023F08C
:10091000380303430D4884F832309121A2FB0003D1
:1009200084F844C001FB023105A3D3E90023FFF79B
:10093000E7FB2064284638BD0C25284638BD00BF9B
:100940008D49FD1A070000005C340020002AE7846E
:1009500010B504469DF8080022844FEA411CC000EF
:10096000A17D00F018000CF0200C4CEA000C0C48A3
:1009700021F038014CEA010CA3FB0002912101FB9C
:10098000032184F816C004A3D3E90023FFF7B8FBC2
:10099000606210BDAFF300808D49FD1A07000000B2
:1009A000002AE784000000002DE9F047044600F12A
:1009B000350190F8440094F83230C0F3400060F301
:1009C00086138CB084F8323004F04CFC94F832205A
:1009D000A38F4B48E46102F07902002584F83220AD
:1009E0009121A3FB0002C4E90555257001FB0321F9
:1009F00041A3D3E90023FFF783FB3123A360236CDA
:100A0000656018339842E56098BF25643D4D3E4AC5
:100A100098BF03462361651BA2FB0525064604F02B
:100A2000E1FB236AC5F307150746002B46D00DF1FD
:100A30002C08CDF820800694A38F314A4FF000098E
:100A4000A3FB0202CDF80C90912101FB0321236945
:100A500004932E4B07932E4B05934FF0020A26A3C7
:100A6000D3E90023CDF82CA0FFF74AFB1046194626
:100A70004FF47A720023FFF743FB0435EDB2CDE962
:100A8000016003213B462A46CDF80090484604F019
:100A90007DFA414607F038F960B994F8443043F0E4
:100AA000010384F8443008F09DF808B300200CB02E
:100AB000BDE8F0870C200CB0BDE8F0870DF12C08E4
:100AC000CDE90A33216943460AAA032000F004FF56
:100AD0000028AED10B990F4807A3D3E90023A1FB4F
:100AE0000001FFF70DFB0A9B20F07F471F44A0E7A2
:100AF00050460FF08BF8D9E78D49FD1A070000002A
:100B0000002AE7845C340020398EE33895740000B5
:100B1000398E000000CA9A3B2DE9F04FB0F81091D1
:100B2000468EB0F82EB0D0F80C7191B04E44BDF89E
:100B30007450BDF868800B915E44B6B2CDE90E32B8
:100B4000721B92B283680A92BDF86C200C92002B43
:100B5000BDF870200D92044609DAC168426823F09E
:100B6000004391422CBF7F18BF188360FF1A0A9A76
:100B7000638D13FB02F39BB2B3FBF8F218FB02F098
:100B800080B283421FFA82FA80F0FA80C01A40F2E3
:100B9000E2428F4902FB00F0A0FB01018AA3D3E9E6
:100BA0000023FFF7ADFA20F07F400744D94494F8C2
:100BB00039304D44AD1B554440F2E246DB09E58532
:100BC00006FB08F500F0ED80226C0A99A36CDFF8B3
:100BD00000B202FB1133A36410F034F9814694F89B
:100BE0006C01C0F3420010F02FF90F9B814406FB0B
:100BF00003F305FB09F9236509F57429754B09F21F
:100C00003F29A3FB09394FEA994303FB0AF0236408
:100C1000A5EB0309A36C6A080344963A934228BFE4
:100C20001346C4E911230023C4F87431A0FB0B015F
:100C300065A3D3E90023FFF763FA0E9B3F1A6648CA
:100C4000A0FB0330800A06FB00F05FA3D3E900237A
:100C5000A0FB0B01FFF754FA06460C9B0D9AA385E7
:100C600042F2107303FB025329462046A4F82A805F
:100C7000013BB3FBF5F3A4F884310BF031FA574B89
:100C8000A18D2B44881DB3FBF5F39AB29042A4F8D2
:100C90007E2102D2521A063A92B20B9BA4F87A2114
:100CA00013B10023A4F886310221012013F08AF940
:100CB000002202218346012002F0ACFE48494FF495
:100CC000D072204602F036FE00F105085FFA88F87F
:100CD000444B009442460121002004F0E3F930F037
:100CE000020304D0404841F6587116F053F8384DCD
:100CF000A9FB055934A3D3E9002328464946FFF749
:100D0000FFF93A4B20F07F4AAAFB03310722E81A89
:100D100002FB0A1169EB01014FF47A720023FFF71D
:100D2000EFF9CDE901A000960894069494F93950A2
:100D30002F48304931EA250128BF01460591216934
:100D400004912D4907914FF6FE713B4603914246AF
:100D50000121002004F01AF930F0020304D02248E7
:100D600041F66C7116F016F8BBF1000F25D194F81E
:100D7000783143F0010384F8783111B0BDE8F08F89
:100D800008FB1231124840F2E24389B203FB01F141
:100D9000A1FB00010CA3D3E90023FFF7B1F93F1A2F
:100DA00004E70E9B0A48A3FB000107A3D3E9002335
:100DB000FFF7A6F9A946461C4FE70122022110467B
:100DC00002F028FED3E700BF8D49FD1A070000009E
:100DD00000CA9A3B83DE1B435917B7D17FC3C901B1
:100DE000081B0020E59200004C8B01008D49FD1A84
:100DF000C5ED000011EF0000B592000000000000FA
:100E00002DE9F04F0B68D2F800B01B6897B08A4606
:100E10000B93037F00F11E01C3F3801304461546B4
:100E200014A806228DF8473016F072FB9AF81100CC
:100E30000D90FF280DF1480800F0838042460DF127
:100E400047010EF0F7FB9DF847600236F6B28DF8C9
:100E500047600B9B277FD4F800C0CDF830C003F16A
:100E60007109FF09434606F001024946384608F079
:100E7000FFFD00284BD19BF892210E9066F34102B2
:100E80008BF89221414606220BF2991016F040FB96
:100E90009BF8922167F3000249468BF892210BF2EE
:100EA0009310062216F034FB2F1D032204F12E01AD
:100EB00005F1080016F02CFB05F11806042204F1D8
:100EC0002A01384616F024FB052204F13A01304687
:100ED00016F01EFB0521304602F0D6FE6A7F00F0B8
:100EE0003F0060F305026A7794F83F20C2F30401E3
:100EF000A977A18EE981012802F01F0289B206D9E3
:100F00001B3202F01F020B2A01D80E9B09BB0B9B60
:100F10000C9800225A6195F8203062F3000385F89E
:100F20002030E56801262146267106F07FFE2868FC
:100F30002E71294606F07AFE06F082FE17B0BDE853
:100F4000F08F062214A9404616F0E2FA9DF8476099
:100F50007FE7DAF8002053601946E38E2B82EB8995
:100F600040F2E24606FB03F95846638E0F930BF0FE
:100F7000CBF894F83F309BF86C215B0963F3430294
:100F80008BF86C210FF05EFF0E909BF86C01C0F3A4
:100F900042000FF059FF0E9BB34A034409FB03F3D1
:100FA00003F5742303F23F23A2FB03239B0C6B6224
:100FB0004FEA5903963BAB6294F8313006FB03F3DA
:100FC000AB63268F42F21072B3B202FB0393494621
:100FD0005846013BB3FBF9F3ABF884310BF080F8D2
:100FE000A24BA34ACBF888214B44B3FBF9F39AB246
:100FF000ABF87E21298A881D824204DDC1F57F413C
:10100000FA310A4492B2ABF87A21394604220BF540
:10101000B87016F07DFA234613F81C2FC2F3401265
:101020000E92DA0700F1F8804FF48073A3830B9BD4
:1010300093F826000FF0A8F80146062204F12B00D1
:10104000002900F0E18004F1240116F061FA0D9B03
:10105000FF2B04F1250000F0DA8014A9062216F017
:1010600057FA9DF84730A3774146062204F11F0046
:1010700016F04EFAEB8963862B8AA386E6869BF8E8
:101080006C31C3F3420384F83830584608F088F9CD
:10109000A881E08021460C98DAF8044006F0C6FDED
:1010A000AB89E3801C2323710E9BD4F80080002BB6
:1010B00040F0BF800E9E26772146404606F0B6FDE2
:1010C00006F0BEFD95F85B00B5F84060B5F842400B
:1010D000012100F007000FF0E9FC344404F56174CD
:1010E00021188046634800273123CBF80830A1FB44
:1010F00000015BA3D3E90023CBF80470CBF80C709C
:10110000FEF7FEFF20F07F40CBF810000F9ADAF8D0
:101110000C406E6A40F2E24303FB024402213A466D
:10112000012002F077FC0B9D284607F041FD821C50
:10113000514B0095D2B23846012103F0B3FF04F2BF
:10114000B2440128A9EB0606A4EB08047BD00B9B54
:1011500093F82430DB0764D4584608F021F9DFF80F
:101160001491A6FB09863EA3D3E900230546314628
:101170004046FEF7C5FFDAF80830404A0792A3F16F
:10118000490A3F4BCDF818B020F07F47A7FB033149
:10119000B8EB03003B4B05934FF4EB730893DBF87C
:1011A000103004934FF0000303934FF0070303FB49
:1011B000071166EB01014FF47A720023FEF7A0FFDE
:1011C00027A3D3E90023CDE90170A4FB0901FEF7B1
:1011D00097FF053520F07F40EDB2009053462A4638
:1011E0000121002003F0D2FE30F0020304D0264893
:1011F00040F2D71115F0CEFD01220221104602F077
:1012000009FC17B0BDE8F08F16F08DF91FE7062234
:10121000002116F088F924E71B48FF2115F0BAFDDC
:1012200002E70023012200931846114603F03AFF1B
:1012300092E76B7F43F0400338466B770DF0F8FF81
:101240000126E88337E706F093FD0B9B83423FF4CA
:101250007EAF0D4840F2A12115F09CFD77E700BF5D
:101260008D49FD1A0700000083DE1B437FC3C901BF
:10127000404B4C0000CA9A3B9DED000089ED0000F8
:101280008D49FD1AC5ED0000608E010000000000D0
:101290002DE9F04F8BB0CDE904011F460020BDF8C9
:1012A00060309DF85490BDF858A0BDF85CB0039331
:1012B000164607F0CDFE002800F07B8109F00108FA
:1012C0000446404603F0BEFF0290B8F1000F6FD114
:1012D000149B02993A46404608F0CAFB002840F0A9
:1012E0007981236A04F11C020692002B67D0236ADD
:1012F0001D6807F0010A93F85A00C0F3C00100F01E
:1013000007000FF0D1FB09AA83460DF126012846FC
:1013100009F034F8BDF82630BDF82400D649184449
:1013200000F561705844D2A3D3E90023A0FB01016A
:10133000FEF7E6FE20F07F40286130460EF0A6FC66
:1013400094F833306FF3410384F83330FF2384F88B
:101350003430002E00F03181A9F10203012B40F25C
:101360003D8194F84430149969F3420384F8443081
:1013700094F833306AF3000384F83330062204F122
:10138000240016F0C5F8039B238604F11C00DDE958
:10139000042300210096FFF7DBFA0FF0E9FC002898
:1013A00040F027812046FFF7FFFA0BB0BDE8F08F31
:1013B000062102F0D3FA00288AD11220F5E706F0C0
:1013C0001DFC0690002800F0508107F0DDFF054667
:1013D000002800F04781203002F06AFC05F11C0370
:1013E000002840F02781032105F1240007930FF026
:1013F00049FAD5F88800079BA5F82CB04FF6FF7284
:10140000A5F82AA02A85002800F01B8105F17C029E
:1014100005F17801079302F0ADFAB5F8762022F4D1
:10142000EF6222F0070242F4887242F00102A5F84E
:10143000762095F88E204FF0000B22F00702012154
:1014400085F88E202846C5F888B0A5F88CB009F03C
:1014500035F87F2285F8D120C5F82EB0A5F832B036
:1014600005F134000DF090FE95F8392060F3050287
:1014700085F8392001210DF123000FF003FA9DF8C2
:1014800023107E4A039B85F83BB0A2FB0102D208E1
:1014900002EB4202A1EB820195F83920A88DA5F854
:1014A00086B102F03F02053185F8392095F83C20DD
:1014B00085F83A1040F2E24101FB0AFA22F00302F9
:1014C00042F2107101FB03A185F83C206C4A079B96
:1014D000A5F87CB10139B1FBFAF1A5F884114FF4FC
:1014E000C0215244C5F8801100F1060CB2FBFAF29B
:1014F00091B26145A5F87E1102DD0639091A89B25B
:10150000A5F87A11284607930AF07AFD5146284635
:101510000AF0E6FD95F86C21069BC5F84C314FF0BA
:10152000000B6FF3000285F86C2185F848B108F0D4
:1015300093FA95F88C2160F3020285F88C2108F06B
:1015400091FA95F88C2160F3C50285F88C2195F805
:1015500078216BF3410285F8782105F1D4000AF077
:1015600031FB95F892211499C5F804B007F0010AEF
:101570006AF3410285F892213122AA60C5F80CB0C5
:10158000062205F2991015F0C3FF95F892210299F1
:1015900069F3000285F8922105F29310062215F0F6
:1015A000B7FF079B2362C5E905BB85F800B0ED6175
:1015B000A1E60C200BB0BDE8F08F0EF031FF002843
:1015C0003FF4CAAE1499384632460EF0BFFC84F898
:1015D0003400C1E60B200BB0BDE8F08F00200EF008
:1015E00079FB94F8333043F00203C14684F833307A
:1015F000B7E6256AEB6E23B1224840F2CC4115F0E4
:10160000C9FB05F1600105F15C0002F0B7F906467F
:10161000E0B12F68EE66D7F84C51EDB1284606F0E0
:10162000F3FA384607F0B6FE0023032023620BB01E
:10163000BDE8F08F13480793C42115F0ABFB079B5F
:10164000D1E605F18000C5F88800DFE60D4840F2DC
:10165000CE4115F09FFBDCE70A4840F2D54115F07A
:1016600099FBDBE7069806F0CFFA07209DE600BF5E
:101670008D49FD1A0700000000CA9A3BABAAAAAA2E
:101680007FC3C901A88E01002DE9F04F07468DB038
:10169000044617F81C9F0E46154600F12401062249
:1016A0000AA815F035FF94F81C80FB07C9F3C01990
:1016B000C8F3401800F1EF800023A383B17C777C4E
:1016C00011F0010104F12B004FF0060200F0CD8073
:1016D00004F11E0115F01CFFFF2F04F1250B04F18E
:1016E0001F0A00F0CB805246384604F11E010DF06F
:1016F000A1FFA37F02330AA95846A377062215F05B
:1017000007FF3368D3F80090EB8963862B8AA386A2
:10171000B9F83030E3860FF093FB84F838002F6877
:10172000384607F03DFE0021A881E08038460AF0E7
:10173000EBFCD6F804A02068214606F077FAAB89C6
:10174000AAF806301C23DAF800408AF80430B8F111
:10175000000F40F0A680514620468AF81C8006F013
:1017600065FA06F06DFABA687B6895F85A00B5F824
:101770000E80F4689A4238BF1A46C0F3C00140F2A6
:10178000E24300F0070003FB08F892460FF08CF9E3
:10179000203400220221241A012002F03BF948469D
:1017A00007F02EFC021D464BCDF80090D2B201216D
:1017B000002003F077FC30F0020304D0414840F2EF
:1017C000DD3115F0E7FA4FF000094B460322012105
:1017D000CDF80090484603F065FC384607F0E0FD80
:1017E000B668183EA6EB0A06DFF8DCA0054632A371
:1017F000D3E90023A8FB0A01FEF782FC1946334B0C
:101800000793334B059340F20D43069708933B69CA
:101810008046CDE90393104600234FF47A72FEF719
:101820006FFC25A3D3E90023CDE90180A4FB0A01C5
:10183000FEF766FC053520F07F40EDB200903346A0
:101840002A460121484603F0A1FB30F0020304D0F0
:101850001C4840F20E4115F09DFA0122022110466B
:1018600002F0D8F80DB0BDE8F08F15F05CFEFF2F48
:1018700004F1250B04F11F0A7FF435AF5846062208
:10188000002115F050FE84F81E900AA95046062249
:1018900015F03EFE35E70B484FF4577115F07AFA14
:1018A0000AE76B7F43F040036B77281D0DF0C0FC07
:1018B0004FF00108E8834EE78D49FD1A070000004C
:1018C000F9EE0000A88E010000CA9A3BFDEE000070
:1018D00011EF0000000000002DE9F04F8FB0FF2550
:1018E00009930B1D08930023CDE90533DFF818B1E8
:1018F0008DF82F50044616460C93984604270DF198
:10190000340A0DF1300902230D93CDE901BACDF867
:10191000009033460DF12F022146002003F004FC15
:10192000022814D00D9BC3B9FF2D1DD03368434549
:101930001AD0002F40D0013F4FF0FF33FFB28DF897
:101940002F30FF25DFE72146002003F033FC0D9BFD
:10195000022BF8D00D9B002BE6D02C484FF43371AE
:1019600015F018FAFF2DE1D19DF82F00FF2829D09E
:101970000538C3B2042BC6D880B207F019FD002881
:10198000C1D090F93930002BBDDBFF2D0369DDF8A4
:1019900030800AD005990793404603F025FC089B48
:1019A000069A9A189042079B0ED8CDE905839DF8B8
:1019B0002F50D6F80080A6E714484FF4357115F083
:1019C000E9F9B8E7FF2D14D0DDE9053210481344DA
:1019D000A3FB0002072101FB032109A3D3E9002394
:1019E000FEF78EFB099B8030186000200FB0BDE829
:1019F000F08F6FF009000FB0BDE8F08FAFF30080FB
:101A000000CA9A3B0000000059F10000EC8E010072
:101A10008D49FD1A0000000070B5C56806686B6846
:101A20006A681B68D489196982B005F1100301AA9C
:101A300002200196FFF750FF08BB0198831B1B0291
:101A40001FD4314603F0D0FB194A03460721A0FBFF
:101A5000020201FB032114A3D3E90023FEF750FB8C
:101A60002B6918440028286109DB40F2E24304FB9B
:101A700003F3834203D2C01A8342FCD3286102B02D
:101A800070BD0146304603F0AFFB094A034607210B
:101A9000A0FB020201FB032103A3D3E90023FEF70D
:101AA0002FFB2B69181ADDE700CA9A3B00000000E3
:101AB0008D49FD1A0000000038B504460FF0B2FF52
:101AC000A37DA27DC3F34103013303F00303032B82
:101AD00008BF002363F3420214BF03F12500252051
:101AE000A2750EF0ABFF63680BB123694BB903F02D
:101AF00079FBC11C002012F077F8BDE8384012F0E5
:101B0000F1B812F0A3F8054603F06CFBC11C0020ED
:101B100012F06AF812F0E6F812F098F8294603F08D
:101B200063FB0B4A03460721A0FB020201FB0321D2
:101B300005A3D3E90023FEF7E3FA23691B1A236107
:101B400038BD00BFAFF3008000CA9A3B0000000020
:101B50008D49FD1A000000002DE9F04F89B00446C0
:101B600011F0C4FA11F042FDC0B250B90EF0B2FF4C
:101B70008348214611F090FB09B0BDE8F04F11F009
:101B800009BD11F053FD054611F098FF074611F00D
:101B90009FFF814612F0D6F9064612F0B7F9824649
:101BA00011F050FFEDB2804611F02AFF0EF092FFC7
:101BB000002DDDD0012006F089F90546002800F04F
:101BC000DA8117F0FF07F6B240F0CC81002E40F02A
:101BD000CA804FF0FF093A464B463146204610F086
:101BE000DDF80028C4D02A7F616800238DF81B30FF
:101BF0005FFA88F702F00F03002900F0E0806168C7
:101C000091F82010880700F1DA80072BB0D0A17D71
:101C1000090740F1B681002B40F0B8806B7F252B7F
:101C2000A6D8042006F052F90028A1D012F062F8DC
:101C3000636A804643B9238C40F2712202FB03F3AE
:101C4000B0FBF3F203FB120823681A694D4B07211E
:101C5000A2FB030301FB023147A3D3E90023FEF7F4
:101C60004FFAA0F20453434582D311F0BBFE6368E0
:101C7000059348460EF096FAE37D9B07804640F1B7
:101C8000E081002800F0DD8101464FF0010B049156
:101C900011F0DAFC2B7F049907AA039205F11E02CA
:101CA000CDE901B182460146C3F38013009220467C
:101CB000002210F08DF8504611F03EFC11F08CFC23
:101CC000002840F0D98111F013FA2F48214611F075
:101CD000E3FA002F40F0CA81626892F8203043F0A6
:101CE000010382F82030A37D43F08003A37506F042
:101CF0000FF9172303714FF6FF730746C380514650
:101D000024222D7F1C3015F003FC3B7FBC60C5F303
:101D1000401565F345133B7711F098FF00213861BA
:101D20000120079D11F01CFC002E08BF4FF0FF0999
:101D30002D1A7D6187F81990E37D13F0020303D01B
:101D4000B8F1000318BF0123BA7E63F30002BA762C
:101D500006F0DEF8034639463868FB6006F0EEF818
:101D600006F0FCF8ACE05FFA8AF00EF07FFA8146EC
:101D700031E700BFAFF3008000CA9A3B00000000CB
:101D8000C51A01008D49FD1A391C0100012B40F0D4
:101D900008816A7F0C2A7FF4EBAE2A7FCDF8009091
:101DA000194600230193D20905F1240320460FF0C0
:101DB00069FF00287FF435AF2B7F03F00F03002B62
:101DC00040F083806B7F252B1A463FF6D1AEA17D74
:101DD000890640F198806268002A40F00B819620C5
:101DE000049211F08BFE049A104611F0A5FD032019
:101DF00006F06CF8804600283FF4BAAE06F088F88A
:101E00004FF6FF73A8F80630052388F80430002F3A
:101E100040F013817F23002E88F8183014BF4B4602
:101E2000FF2388F8193098F81A30D8F800006FF3BB
:101E3000410388F81A30414606F080F806F08EF823
:101E400011F002FC06460322337862F30303337079
:101E50002B7F3278C3F3801363F3C7120C233270E5
:101E6000737048460EF09EF9E37D9A0740F1EF80CB
:101E7000002800F0EC8033780146304643F0400300
:101E800000F8023B062215F043FB062205F11E0175
:101E900006F1080015F03CFB304611F04DFB11F047
:101EA0009BFB002840F0EE8011F022F911F01AFFA0
:101EB000A37D774843F00103A375214611F0ECF9A7
:101EC00009B0BDE8F04F11F01FB9062B3FF47AAF0F
:101ED0004521D94011F0010140F08E80012B67D1DE
:101EE0006B7F0C2B7FF444AE2A7FCDF800900DF170
:101EF0001B030193D20905F1240320460FF0C2FE13
:101F0000002855D06A7F002A3FF432AE63682BB1B7
:101F10002B7F03F00F03072B7FF42AAE03209DF8DD
:101F20001B8005F0D3FF054600283FF421AE05F0E5
:101F3000EFFF4FF6FF73EB8005232B716FBB7F2004
:101F4000AB7E2876002E08BF4FF0FF0968F34103EF
:101F50002868AB76294685F8199005F0EFFF05F063
:101F6000FDFF05E6A07D5FFA89F1C0F3C0000EF029
:101F70003DF981462FE6474840F2D22114F00AFF8E
:101F80001FE6B9F1FF0F8DF81C90C2F3801837D00F
:101F9000227E91453FF43FAE11E711F045FDC0B2FE
:101FA000CEE7062B3FF40EAF4522DA40D00723D40C
:101FB0002B7F03F00F03042B7FF4DAAD6B7F252B0F
:101FC0003FF6D6ADA37DDB077FF5D2AD11F03CFB2C
:101FD0002B7F0278C3F38013B3EBD21F7FF4C8AD1D
:101FE0000830062205F11E0115F082FA00287FF460
:101FF000BFAD87E71A4686E76A7F252A83D9B7E50A
:1020000005F11E0A07AA514640460EF0ADF9002818
:102010003FF4D2AEE37D03F0010343457FF4CCAE41
:102020005146062204F1080015F062FA2B7F03F0F6
:102030000F0300283FF4EFADC1E611F0F5FCC3B289
:10204000E9E6A27D04F11901C2F3801B1FE6A37D1E
:102050003278C3F38013304663F3861200F8022B04
:1020600004F11901062215F053FA0EE711F0DCFC19
:10207000059B83F8B5002FE6064840F2AB4114F00B
:1020800089FE20E603484FF4A66114F083FE0BE7B7
:10209000D91A01001890010038B5094D4FF0FF32F0
:1020A0004FF0FF33284615F0EBFA044601F0C2FB6F
:1020B00010B1204612F08CF914F028FBEEE700BFB7
:1020C000C418002002488368DB6A03B118477047D0
:1020D000D8860100034883685B6A03B118476FF034
:1020E00057007047D8860100024883681B6A03B115
:1020F00018477047D886010010B4034606480A46C0
:1021000081688C691CB11946234610BC18476FF0D2
:10211000570010BC704700BFD88601000146024836
:1021200083685B68184700BFD886010010B50D4C66
:10213000204615F090FD90B1FFF7C4FFFFF7D4FFE4
:10214000A3682BB19B6C1BB107490022204698471E
:10215000A3689B6A0BB103489847002010BD6FF03D
:102160001500FBE7D88601006D2100002DE9F04F36
:10217000644885686B6B8DB01BB1984708B9FFF751
:10218000A9FFFFF7A7FF58B15F4C23689BB95F48D1
:102190000022002315F074FA206060B9FFF7A4FF55
:1021A0006B6BFBB95A4F5B4D3B78032B1ED8DFE8B6
:1021B00003F02033829B236899689A896B6973B115
:1021C0005048984701462068083015F0ACFA20685E
:1021D0008689002EE4D112F0FBF82660E0E76FF06C
:1021E0005701F0E7474898470028DBD10DB0BDE81C
:1021F000F08F494C01212046FFF77EFF0028F5D0E3
:102200002078431E012B01D90528CDD114F0B7FD4C
:10221000012328603B70C7E7DFF8FCB0DFF8FCA0C3
:102220009BF8000014F0ABFD2968401A5044FFF7FA
:1022300063FF2B681E1A04462E60002E50D1012326
:10224000CDE900B300220023062001F08DFADFF86B
:10225000D0908046C9F8000008B93870C6E79BF8EE
:102260000000022822D005281BD0012801D19AF8AD
:1022700002602E6014F083FD2849024608F1080030
:1022800015F03FFAD9F80000083015F05CFA2B6819
:1022900098420ED2D9F8000012F09AF803233B704E
:1022A0001EE0BAF80230C3F30D06E2E7BAF80260A6
:1022B000DFE70223F3E71A4E296833689A899868A2
:1022C0001044FFF719FF31682E688B89361A0344D2
:1022D00004468B812E601EB9124815F0EFF93E704E
:1022E000002C7FF461AF81E72968212928BF2121D3
:1022F00003A8FFF701FF2B681B1A04462B60002B75
:10230000EED1CCE7D886010030250020DC18002073
:10231000DF1D01202C250020DE1D0120DA1D0120FB
:1023200028250020C418002070B5184888B001F096
:102330008BFA00220023CDE9062300236FF0080268
:10234000CDE90323CDE9013300931149114B124824
:102350004FF4806213F030FD10490F480B4D104EC2
:10236000104C15F019FD4FF0FF324FF0FF332846A7
:1023700015F086F90146304615F0A0F9A368DB692F
:10238000002BF0D020469847EDE700BFAC180020A6
:10239000401E01209920000078190020EC950100D2
:1023A000DC180020D8860100014B1B68184700BFCD
:1023B0001000002007B50B4600210246009103489B
:1023C00000F014F903B05DF804FB00BFA92300007E
:1023D0002DE9F047058B04462807904611D40229C1
:1023E00005F0070540F0CD80204614F053FD78B18C
:1023F0000138218B042811D8DFE800F0C3106D8567
:10240000950001290CBF45F0100545F020052583F6
:1024100088F31188BFF36F8FBDE8F08701F0070ADA
:10242000AA4500F0A6800027B9463E46A368002BC7
:1024300000F0BD8041F00801218388F31188BFF3CB
:102440006F8FA168002900F0BB800D68002900F0A3
:10245000B780D1F80480334652462046C047002D4D
:1024600076D02B6829461D46F0E701F007035A1F76
:10247000012A1BD8002221F00701062B276889B208
:10248000C4E9002209D13B4603E0628B013262833A
:102490001B68002BF9D141F002012183204614F082
:1024A000F9FC00287BD041F0200177E0042B0AD111
:1024B00021F0070189B22183204614F0EBFC10B112
:1024C00041F020012183218B01F0070AAA4550D059
:1024D0000027B946AAE7236921F0070141F0060168
:1024E000062DD3F8009021832DD1B9F1000F40D0F3
:1024F00041F00801218388F31188BFF36F8F3A49B7
:102500002046C84729E021F00701236941F0040172
:1025100089B2042DD3F804902183E6D000273E46EB
:102520004FF0040A82E721F00701236941F0050119
:1025300089B2052DD3F808902183D6D000273E46D6
:102540004FF0050A72E700273E464FF0060A6DE796
:102550002B4687E7B9F1000FD1D14FF02003EFF3FD
:10256000118883F31288BFF36F8F238B23F0080346
:102570002383258BEA062ED525F01003238305F04F
:1025800007056669218B002EBFF66FAF0023276811
:10259000C4E9003321F0070141F001012183218BBF
:1025A00001F0070AAA454FF000097FF43FAF002F62
:1025B0009BD041F00801218388F31188BFF36F8F0E
:1025C000002FC7D03D68394633465246204614F0A6
:1025D0008DFC2F46F4E7AB067FF51AAF25F02003FC
:1025E000238305F00705FFE6196F01002DE9F04F81
:1025F000814695B08B4617461C460025387808B9A9
:10260000284658E37B1C2528039306D05946C84723
:102610000028C0F250830135FBE1182200210EA8EA
:1026200014F081FF7B78252B7DD00023781C984601
:102630009E469C461E46014610F8012B2B2A00F0B0
:10264000A18000F29880202A00F09F80232A00F0C9
:102650009F802BB19DF8403043F040038DF840300F
:10266000B8F1000F05D09DF8403043F020038DF8FD
:102670004030BEF1000F05D09DF8403043F010030C
:102680008DF84030BCF1000F05D09DF8403043F08C
:1026900008038DF840302EB19DF8403043F004031C
:1026A0008DF840309DF8403003F04400442803D1B9
:1026B0006FF386138DF840309DF840302A2A43F09E
:1026C00080038DF840307FD19DF8412042F0010217
:1026D0004B1C8DF841201A782E2A9DF841200CBF02
:1026E0000121002161F341028DF8412078D15A780F
:1026F0002A2A6ED0013300224FF00A0C194611F835
:10270000010BA0F13006092E40F295809DF8401093
:102710001292C1F3400040EAD2700A4660F34102CF
:102720008DF840205CE0BA1C03928DF843309DF890
:102730004130DA0740F12E8154F8048BB8F1000FD4
:1027400007DA9DF8402042F004028DF84020C8F1DD
:1027500000085E0740F1278154F804ABBAF1000F7E
:1027600080F226819DF841306FF341038DF84130AE
:102770004FF0FF3A1CE12D2A0DD0302A7FF469AFCB
:10278000012358E74FF0010C55E74FF0010E52E7D7
:102790004FF001084FE701264DE70EFB0262303A89
:1027A0000346184610F8016BA6F1300CBCF1090F76
:1027B000F3D999428FD09DF840101192D20F62F355
:1027C00041018DF8401086E70B4600224FF00A0EBB
:1027D000E7E79DF8412042F004028DF841200233E2
:1027E0001A786C2A47D02BD8682A31D06A2A4BD065
:1027F0004C2A51D01A4612F8013B0392782B9DF8CF
:1028000041208DF8433000F2BE806D2B51D8692BEA
:1028100000F2B980572B67D8412B03D0453B022BE0
:1028200000F2B1809DF84230042262F302038DF879
:102830004230012373E00CFB0202303A0B465DE7A5
:10284000742A25D07A2AD5D19DF8412006210CE0A2
:102850005A78682A9DF8412006D1012161F3C60209
:102860008DF841200233C5E7022161F3C6028DF8DD
:1028700041200133BEE75A786C2A9DF8412001D1EE
:102880000421EBE70321F0E79DF841200521ECE767
:102890009DF841200721E8E7BDF8402022F4F042EE
:1028A00022F0020242F4804242F00202ADF84020DF
:1028B000DFE76E3BD9B201238B4040F282410B42ED
:1028C00037D113F0240F51D1D8075CD59DF8423091
:1028D000032161F302038DF8423002F07803A3F183
:1028E00040014B424B411AE0A3F15801C9B201200B
:1028F00000FA01F111F4624F94D140F60106314221
:102900001DD111F4043F3ED09DF8423060F3020324
:1029100002F07802402A8DF8423034D000239DF82E
:102920004020C2F340010B4363F341028DF8402085
:10293000FDE69DF84230022161F30203E8E79DF8CD
:102940004210022002F0780260F30201402A8DF862
:10295000421002BF9DF8401041F001018DF8401077
:10296000632BDBD1131E18BF0123D8E79DF842303B
:10297000032161F3020312F0780F8DF8423014BF87
:1029800001230023CBE79DF8403043F001038DF88D
:102990004030C3E79DF94020002AB4BFDDF84480F1
:1029A0004FF0FF38D5E698077FF5E2AEDDF848A096
:1029B0009DF841100023CDE911339DF8423003F01A
:1029C0000703012BC1F3C30133D1CB1E042B04D861
:1029D000DFE803F0214646212100236801294FEA60
:1029E000E372CDE90E321CD19DF93830DA17CDE90A
:1029F0000E3204349DF8403013F0030650D0039B90
:102A00003A465946484614F03AFD0028C0F2538130
:102A10000544039FF2E554F8043BDA17CDE90E3282
:102A2000E8E70229E5D11AB243F3C033CDE90E231A
:102A3000DFE7022B24D1CB1E042B04D8DFE803F000
:102A4000181010181800012954F8043B4FF0000228
:102A500014D00229CDE90E32CCD19BB20E93C9E736
:102A6000073424F00704F4E80223CDE90E23C1E77C
:102A700054F8043B0E9300230F93BBE7DBB2CDE782
:102A8000042B08D1073424F00704D4E900230834C8
:102A9000CDE90E23AEE7032BACD154F8043BDDE7C0
:102AA0009DF843007828B4D862281CD825283FF424
:102AB000ADAD5828ADD10DF136030093DDE90E011F
:102AC00008AB10AA14F095FCBAF1000F074680F28B
:102AD0009A80002F9DD00DF13603D81B002E00F0F8
:102AE000C1800130BEE06338152892D801A252F8A7
:102AF00020F000BFC92B0000DB2B0000132A0000D0
:102B0000132A0000132A0000132A0000DB2B000008
:102B1000132A0000132A0000132A0000132A0000C1
:102B2000692C0000012C0000272C0000132A000053
:102B3000132A00004D2B0000132A0000012C000076
:102B4000132A0000132A0000012C0000BAF1000F24
:102B50000E9F35DB5146384614F0C1FC07EB000AE6
:102B6000002F3FF456AF00269DF8423013F01002BC
:102B7000059200F0938002305B06119A48BF129BC9
:102B80000492104448BFC018B8F1000F40F3A08071
:102B90009DF84020A8EB0008C2F38003500706937D
:102BA00000F19680510640F189803EB15946304689
:102BB000C84700287FDB069B01351E4630227EE099
:102BC000384614F085FCC9E70E9B8DF820300026AE
:102BD00008AF0DF1210A0120C6E719075CBFC3F356
:102BE00000135E01DDE90E2348BF2B26002BBFF644
:102BF00062AF524263EB4303CDE90E232D265AE721
:102C0000002658E700269DF840200DF13603DB1B17
:102C10006FF386129A458DF840207FF65AAFAAEBE3
:102C20000303119355E70E9890B30DF1360300930B
:102C300010AA08AB002114F0DCFBBDF8423003F011
:102C4000EF0343F4F04343F01003BAF1000F0746DB
:102C5000ADF84230D6DA00283FF4DBAE0DF1360392
:102C6000181A00269A467FE70E9B07293FF6D1AE39
:102C7000DFE801F00C04060C08080C0C1D70C8E617
:102C80001D80C6E6EA17C3E90052C2E61D60C0E631
:102C90002E4F064607F1050A052065E71A0748BFCB
:102CA000013069E70793104606925946C847002845
:102CB000DDE9062304DA15B0BDE8F08F2022434693
:102CC0001946002903F1FF33ECDC45446D1A9846A0
:102CD0002EB159463046C8470028ECDB01359DF837
:102CE0004230DA0601D41B0705D559463020C847C3
:102CF0000028E0DB0135059B33B19DF843005946C0
:102D0000C8470028D7DB0135049E2E4405E059460C
:102D10003020C8470028CEDB0135731B002BF6DCC2
:102D200053463A465946484614F0A9FB0028C2DBF0
:102D30000544A844A8EB0503002B7FF76AAE59466B
:102D40002020C8470028B6DB0135F3E7F8950100DD
:102D500012F052BD2DE9F84305464FF02003EFF382
:102D6000118683F31288BFF36F8F0E4B0E4F1C68D2
:102D7000DFF838804FF00C092CB986F31188BFF3C7
:102D80006F8FBDE8F883D4E90123002D18BF1346E7
:102D90002BB198F8142009FB02F2B85C984724681C
:102DA000EAE700BF4C25002040250020901D0120AF
:102DB00070B5194B1C7DBFF35B8F04F01F0301221C
:102DC0009A40164B610903EB8103D04353E8001F7F
:102DD00001EA000543E80056002EF7D1BFF35B8FF0
:102DE0000A4213D00E4B0F4D8BB10C236343EA18EC
:102DF000E85C517814F0ACFB0020FFF7ABFF0C232C
:102E00005C432A1900232B51C2E9013370BD83F3BF
:102E10001188BFF36F8FEFE7901D0120542500202C
:102E200051750100402500202DE9F041354B074642
:102E30001D7D4FF02003EFF3118883F31288BFF359
:102E40006F8F0C24304B314E6C431A19195D0029D9
:102E50004CD007CA06EB040C8CE8070000221A5578
:102E600088F31188BFF36F8F0C236B43F218F05C6B
:102E7000002839D07B1C10D0D2F808C0244C254A39
:102E80004FF400400021ECFB004100232046FDF7F9
:102E900037F90121381A15F047FA13F0FBFB01202E
:102EA000FFF758FFBFF35B8F1B4B6A0903EB8203ED
:102EB00005F01F0101228A4053E8000F104343E848
:102EC00000010029F8D1BFF35B8F144B3BB10C23F9
:102ED00003FB05F03318305C597814F02DFBFFF735
:102EE00067FF13F0EBFB0120BDE8F08101462846A7
:102EF00000F016F80028B3D007C8344484E807006F
:102F0000AEE700BF901D01203425002040250020A1
:102F10003F420F0040420F00542500203975010048
:102F20002DE9F04F85B00E4603A900F043F81E4B83
:102F3000039DD3F800A0DFF87480431E1BB203EB9F
:102F40004303044605EB83054FF400474FF0000BA5
:102F500024B9A146484605B0BDE8F08F6868144A18
:102F6000C4465946E0FB07C100236046FDF7C8F898
:102F70000190A8680E4AC4465946E0FB07C10023E9
:102F80006046FDF7BDF8BAF1FF3FA94601D0824582
:102F900005D9731CDED0019B1844B042DAD9013C3C
:102FA000A4B20C3DD4E700BF140000203F420F0044
:102FB00040420F0008B9024B0B600020704700BF71
:102FC000C8880100014910220A60704710ED00E036
:102FD00072B6404080F31188BFF36F8FBFF34F8FFD
:102FE00030BF62B6BFF36F8F704700BF72B6494003
:102FF00081F3118820BF80F3118862B6704700BF4B
:1030000040B2002807DB044A4109012300F01F00F9
:10301000834042F82130704700E100E040B20028D0
:103020000CDB4309064900F01F00203301228240D7
:1030300041F82320BFF34F8FBFF36F8F704700BF5E
:1030400000E100E0054B420900F01F0053F8222088
:10305000012303FA00F01040704700BF00E100E0D8
:1030600040B20028A8BF00F1604001F10101B8BFE3
:10307000064B4FEA4111ACBF00F5614000F00F0074
:10308000C9B2B4BF195480F80013704714ED00E0C2
:1030900008B572B6044B9A691AB100229A6114F00D
:1030A00080FE62B608BD00BF901D012030BFFFF753
:1030B000FDBF00BF0F4A08B50F4B22F07F029A6098
:1030C000BFF34F8FBFF36F8FD3F8882022F47002C5
:1030D000C3F88820EFF3148323F0040383F31488E8
:1030E000BFF36F8F12F076FD13F024FC00F0D6F9D9
:1030F00012F0B4FD0000000000ED00E0094A0A49AA
:1031000093680968D967094998674B6843F0805309
:103110004B60002383F31188BFF36F8F9368D86FE0
:10312000704700BF901D0120E895010000ED00E010
:1031300012498A684FF030001044EFF3098C80E8A0
:10314000F01F202080F31288BFF36F8F0C4F4FF0D9
:103150000066CA698A603E60906F0023936780F3BF
:10316000118804B5104600F0DFF9BDE8044002F113
:10317000300090E8F01F8CF309887047901D012003
:1031800004ED00E01EF0040F0CBFEFF30880EFF336
:103190000980816911F8021C0229FFD001B514F0E1
:1031A00088F901BD42F8203C009B42F81C3C0A49CA
:1031B000019B42F8183C029B42F8143C21F00101AB
:1031C0004FF0807342F8043C42F8081C0023203A78
:1031D00002658367704700BF55700100094A0346C6
:1031E000906870B113F1160F806E05D0A0F1400207
:1031F0009A4205D8834203D2814228BF00207047FB
:1032000000207047901D012008B5094B98600D46BD
:10321000144600F089F9204685F30988002163B639
:1032200081F31188BFF36F8F0022002313F012FF88
:10323000901D012001B572B60B4A906900281EBF8F
:103240000021916114F0ADFD62B6EFF30580A0F1AD
:1032500010004FEAC0000549014409C99847BDE87C
:103260000140034908470000901D01200887010024
:1032700075320000044B9968D869884203D003492D
:103280004FF080520A607047901D012004ED00E06D
:1032900070B51D4B15469A6A9A6A9A6A9207064655
:1032A00022D5586B9A6A14061ED519B19A6A22F073
:1032B00080029A629A6A9A6A9A6A134C12F0100F04
:1032C00015D19B6A990712D40020A36A0E4A9B0667
:1032D00042BF636A23F400536362936A43F0FF03BF
:1032E000936200232B7070BD6FF01500E2E76368F6
:1032F0001A05E9D53146FFF771FF0028E4D080F3C5
:1033000009880220E1E700BF00ED00E00D4B9A6A5A
:103310009A6A9A6A920508D59A6B9A6A120404D539
:1033200018B19A6A22F400429A629A6A9A6AD2059D
:10333000044A58BF9B6A936A002043F47F43936218
:103340000870704700ED00E070B54A4B5B688AB0CA
:103350000546C3F30803002686F31188BFF36F8F79
:1033600002F07F40B0F17F4F11D102F00C0008282D
:103370000DD010074CBF0D4601260022033B8DF8EF
:103380000720032B4DD8DFE803F00465696D35464F
:10339000F3E7384BDA6A910743D4DA6A002A40DB54
:1033A000DA6A52003DD55A69A96942F480725A61BD
:1033B000BFF34F8FBFF36F8F5A6931F8021C22F4AD
:1033C00080725A61BFF34F8FBFF36F8F4DF6027259
:1033D000914209D09A6AD2B242B10DF1070201219D
:1033E0002846FFF755FF0AE02C681BE09A6A12F4A2
:1033F0007F4F06D00DF107010120FFF787FF04463C
:1034000010E09A6AB2F5803F0BD39A6A9A6A9A6A78
:103410009A6A9A6A9A6A9A6A6FEA02426FEA124252
:103420009A6200249DF8073093B92022294602A809
:1034300014F06EF8099BBEB1C3F3080222B96FEA1B
:1034400053236FEA4323099302A9204614F02FF86F
:103450000AB070BD0DF107020021C1E70DF10701AF
:103460000020CAE7034BD0E723F4FF7323F00103E6
:10347000E9E700BF00ED00E0024A536943F01003A2
:103480005361704700ED00E0EFF30880EFF309812E
:1034900001B57246FFF758FF01BD00BF0448002385
:1034A0002021C2180133302B82F80013F9D1704764
:1034B00000E100E0FFF74CFC202080F31188084871
:1034C0004FF40461401880F30988EFF3148002215F
:1034D000084380F31488BFF36F8FFFF7EBFD000004
:1034E000C0270120084B9B6883420BD1EFF3058373
:1034F00043B1064B5A6842F080525A605A6A22F42D
:1035000000425A6213F0A4B9901D012000ED00E0C2
:10351000024B034A0348012100F070B80000042068
:1035200000000020C8880100826E054B403A1A60F6
:10353000044A4021C3E901121846012100F068B88D
:103540005825002000000B15F0B5204E00258D42B7
:1035500039DA446874B353B104F1FF3C14EA0C0F38
:103560002FD11F2C2DD907681CEA070F29D1202C39
:103570000768D0F808C05FFA82FE1ED9B4F1004F88
:103580001DD8013CB4FA84F4C4F11F046400BEF1F8
:10359000070F4CEA040C14D827F01F04144344F01E
:1035A0001004C6F89820C6F89C404CF00104C6F8F8
:1035B000A040013201350C30C9E70824E7E73E247A
:1035C000E5E76FF015021046F0BD00BF00ED00E02A
:1035D000044B0522C3F89420BFF34F8FBFF36F8FC6
:1035E000704700BF00ED00E0BFF35F8F024B002289
:1035F000C3F89420704700BF00ED00E010B5034C05
:1036000001232278FFF7A0FF207010BDE01D0120EC
:1036100008B5094A00231278FFF796FF10F1160F3C
:1036200002D0064A072800DD08BDC2F89800C2F89B
:10363000A0300130F6E700BFE01D012000ED00E002
:1036400014490868082810B521D8FFF7CDFF124C9F
:1036500049680022904201F10C0105D10F4B18700E
:10366000FFF7B6FF002010BDC4F8982051F80C3CBD
:1036700023F01F03134343F01003C4F89C3051F8A8
:10368000043C43F00103C4F8A0300132E2E74FF0FC
:10369000FF30E8E7D488010000ED00E0E01D0120E4
:1036A00010B54FF02003EFF3118083F31288BFF3BE
:1036B0006F8F114A0123C2F840354FF080424FF01E
:1036C0008051C2F87835D1F83041082C08D1D1F8B2
:1036D0003411052904D8094C615C09B1C2F83836A7
:1036E0004FF080430122C3F8802580F31188BFF397
:1036F0006F8F002010BD00BF00E001400D9601005B
:1037000020B1034B800143F001031847704700BF0D
:10371000C0880100074A0346106828B9D96831B14A
:10372000596921B1136070476FF0770070476FF0EF
:103730001500704764250020052838B5054608D8CF
:103740002A21C140C90704D5064813F094FF044656
:1037500010B90024204638BD0121083013F0AAFF1B
:103760002575F7E74C1900202DE9F0410228DDE925
:103770000667044630D0062802D050B91A4810E037
:103780001A490978012904D13478012C05D0022C7A
:1037900020D000252846BDE8F081134800240136DA
:1037A000013F13F068FF05460028F2D000F1080839
:1037B0000121404613F07EFF2C75002EEAD0002F29
:1037C000E8D0404613F0BFFFB84207D2284610F0B9
:1037D000FFFDDEE70648E2E70548E2E73A46314604
:1037E000404613F08EFFD5E72019002098180020DE
:1037F000F418002010B50D4B1B78012B04460CD19A
:10380000037D012B04D0032B0ED06FF0150010BDEB
:10381000042104F1080013F07DFF054B21461868D0
:1038200013F04CFF0020F2E70221F2E79818002085
:103830006825002083891BB1024B1B685B69184710
:103840001220704764250020044B054A1B68106055
:103850000BB1DB6818476FF0120070476425002039
:10386000682500202DE9F0411646C21D22F0030212
:10387000751E0F46ADB2186082B004461680002156
:10388000042207FB050013F04EFEBDB1023EB6B2A6
:1038900006FB077306FB07F81C44A8EB030800258A
:1038A000042204EB08000DEB0201019413F030FE3A
:1038B000B542A4EB070405F10105F1D102B0BDE862
:1038C000F08100BF70B5056882B09DB1EB1D23F09B
:1038D00003030422044629460DEB02001E8813F060
:1038E00017FE019B2BB1073323F00303013E1E801B
:1038F000019B2360284602B070BD00BF70B50B6805
:103900000C46054683B1073323F003031E880136B6
:10391000B6B204222146284613F0FAFDEB1D23F02F
:1039200003031E80256070BD0126F2E702FB010043
:10393000704700BF401A90FBF2F080B2704700BFA2
:10394000531E11449BB242B1DB430138CA1811F82F
:10395000013D00F8013F9142F9D17047014402E076
:1039600010F8013B1BB98842FAD1002070470120B2
:10397000704700BF10600860704700BF0A680346C8
:103980000068904205BF00220A6000201A6070475C
:10399000D2F800C0CCF80000D2F800C0CCF8041077
:1039A00010607047884203D01AB1436813607047B3
:1039B000002070470B68834209D02AB15868106014
:1039C0001A680A6018467047002BF9D1FAE70023FD
:1039D000F8E700BF2DE9F041DFF830800C4E0C27EE
:1039E00006F130044546221D214628460C3CFFF7CF
:1039F000C1FFA642A5F10805F5D1043F3B1DA8F182
:103A00002008A6F13006EBD1BDE8F081E8250020C2
:103A10007426002010B403468C469AB101EB410194
:103A2000144803EB4304090101EB84010144487A83
:103A30000C7AA04204BF0130087210BC61461846DF
:103A400010F0ACBA01EB41020A4C120100EB40034A
:103A500002EB830323449C7ADA7AA24201D010BCA1
:103A6000704701329A72044B01225A5410BC10F074
:103A7000D3BA00BFF02500206C250020F8B506461B
:103A80001C460D4602B322786378D21A12F0030264
:103A90003AD1274F71004FEA450C3144AC448900BC
:103AA00001EB0C1101330431DBB27A18606823702A
:103AB0002146FFF76DFF1F4B01225A55294630461C
:103AC00010F0AAFA0020F8BD10F090FA0028DAD021
:103AD0002946304610F076FA0028D4D005EB45028E
:103AE00006EB4601124F6378120102EB81023A4461
:103AF0007100907AD27A90424FEA450C0CD020782F
:103B0000C01A10F00302C8D0012A03D00133DBB27F
:103B10002370D0E71046F8BD2278D21A920702D05F
:103B20000233DBB22370D4E902039847CAE700BF2F
:103B3000F02500206C2500202DE9F04FDFF84091A2
:103B400019F8003089B0002B60D0DFF838A103905D
:103B50003C220423002500EB400B12FB003303241E
:103B6000CDE9045509F800500AEB0B1B02932546DA
:103B70005C460023DBF8281054F8240F079307AAAB
:103B8000FFF710FF01950746002F4BD0079D68787F
:103B90002E78361A06F00306012E07D10138687018
:103BA000079BD3E902039847079D68782B78DBF8D9
:103BB00028C0181A00F0030001284FF00002214627
:103BC0005FFA83F860460DD0FFF7F4FE69782A7833
:103BD0006F60521A02F00302012A85F8018018D0A2
:103BE000DBF828C0DBF8240007AA6146FFF7DAFEFD
:103BF000012E0746C8D1019D002D3DD0039F012312
:103C000009F807303946384610F006FA09B0BDE821
:103C1000F08F029B6970384629460AEB0302FFF7D2
:103C2000B7FEDDE7019D9BF82E309BF82F209A42CE
:103C300003D08BF82F30012304939BF82C309BF892
:103C40002D209A4203D08BF82D3001230593013D9E
:103C5000EDB2FF2DABF10C0B8AD1DDE90425039FFA
:103C6000002AD3D0002DD1D12A463946384609B092
:103C7000BDE8F04F10F092B90028D4D0BEE700BFE5
:103C80006C250020F02500204B1EDBB271B1411ED7
:103C900000EB030C002011F8013F23B15A1E013044
:103CA0001340C0B2FAD16145F5D17047084670475C
:103CB0002DE9F04F074683B003260125042138463D
:103CC0000CF0E0FDD7F800C000204FEADC741F23A1
:103CD0004FF0010E8346824608E01C2B40F28081A3
:103CE00019294BD04FF0010E08461446013BDBB2B8
:103CF000FF2B4AD02CFA03F202F0010294420CD0BE
:103D0000411C0E2BC9B271D9002AE6D01C2B40F2FF
:103D10006481192932D09646E6E70EF10108072B97
:103D20005FFA88F810D9B8F1060F00F24B81002A2B
:103D300040F03981B8F1060F00F006811C2B40F2EB
:103D4000FB800146C646CFE7002A40F00281B8F169
:103D5000060F40F2EC804FF0010E0EFA03F20BF169
:103D6000010B01304CEA020C5FFA8BFBC1B2D14669
:103D70007246CA4500F091801929B5D1013305FA80
:103D800003F34AB35B420CEA030CA14B8CEA030336
:103D9000019301A802AC002210F8013B23B1591E87
:103DA00001320B40D2B2FAD1A042F5D1012A09D991
:103DB0001FFA8CF3B3EB1C4F12D15FFA8CF3B3EB09
:103DC0001C6F0DD1013E16F0FF067FF477AF6FF048
:103DD0000D0003B0BDE8F08F013B4CEA030CD4E7C3
:103DE0000020C7F800C003B0BDE8F08F0AF1010958
:103DF000072B5FFA89F900F29180002A73D1052B15
:103E00005FD914464FF00108012902D02246C64668
:103E10000DE0CCB105FA03F2072B2CEA020C88BFA7
:103E2000002221D9A0421AD001460E2BA1D919296E
:103E3000A4D0B9F10C0FA1D0CA4655E7B8F1060FCE
:103E40004ED009B101294BD105FA03F2072B4CEAF8
:103E5000020C1AD90C46A0424FF00102E4D1611CB9
:103E6000C9B24FF0010EE0E70BF1FF3BA0425FFA51
:103E70008BFB20D00022CA4517D0014634E74FF013
:103E8000010801292CD14CF0200C0BF1010B8842C8
:103E90005FFA8BFB06D00122EDE709F101095FFA19
:103EA00089F9C4E704460122D9E709F101095FFA5B
:103EB00089F90146BDE70130C1B200224FF0010E81
:103EC00057E7BBF1000F19D0052BD8D0BBF1010F7C
:103ED0001AD0042B4FF001080DD1E1B101291AD0FD
:103EE000C6460022A3E70BF1010B5FFA8BFB01240E
:103EF000A04689E7D146BBF1020F9FD101229A402B
:103F00004CEA020CC1E7D1464FF0010B0BFA03F269
:103F10004CEA020CB9E74CF0100CB6E7002AE6D1E7
:103F20004FF001081C2B3FF472AF14466CE7052BD1
:103F30001FD9B8F1060F07D00146D146002883D01B
:103F40000022EFE78B4634D1014622464FF0060EA1
:103F5000CAE60BF10101B8F1060FC9B2F2D99646D3
:103F600001229A4001302CEA020CC1B2D146002253
:103F7000FFE6BBF1000F09D14FF0010B0BFA03F282
:103F80004CEA020C0446D1465A4668E7052B31D06C
:103F9000BBF1010F0146B6D0042BABD1B8F1060F2F
:103FA0000CD0D14699E7B8F1060FCDD01C2B3FF6C7
:103FB000C8AE30B30146D1460122B3E72246C64619
:103FC000D14634E74FF0010E0EFA03F162B94CEA24
:103FD000010C04467246D14641E79046D146A1E71E
:103FE000D1464FF001089DE72CEA010C0446D1466A
:103FF000002234E7B8F1060FA6D028B10146D14619
:104000003FE70446D14605E7D14600213BE700BF24
:10401000D6BE898E30B5037E0568FF2B14D003EB26
:1040200043028B4205EB021227D04FF0000C01E057
:1040300099420BD09E4613789468FF2B03EB430202
:10404000A44405EB0212F3D1002030BD714517D016
:104050000FFA8EFE137890680EEB4E0E4FEA0E1E8E
:10406000FF2B05F80E3006D003EB430305EB0313DB
:104070009A6802449A60604430BD9E464FF0000C3E
:1040800013780376E4E700BFA2EB010C1CF4000FE9
:1040900010B4836844690AD12CF07F4C6344A34276
:1040A0000DD8E41A00234461836010BC7047891A5C
:1040B00021F07F418B4208D95B1AA342F1D91B1B27
:1040C00000244461836010BC70470C44E41AE9E7A3
:1040D0002DE9F04F074687B0407A3B687D68019331
:1040E000002800F0EA80421ED2B205EBC202BB46B5
:1040F000029205950F46029B5A6893F8018004923C
:10410000CDF80C80FF2F5ED007EB4704019B260102
:10411000BA469F5D03EB041400254FF0FF0E84F8B0
:1041200000E0DBF800C09BF818200CEB0609724594
:10413000D9F808100DD1BBE0091A04D1B9F81E80D6
:10414000F68BB04576D81CF80330FF2B96461A46FE
:1041500007D002EB42030CEB03161B01B068884248
:10416000EAD9BEF1FF0FC9F8081089F800205ED027
:104170000FFA8EFE0EEB4E0E4FEA0E1E0CF80EA03E
:10418000FF2A08D002EB42020CEB021CDCF80830DC
:104190005B1ACCF80830A37801336370002DB1D0DE
:1041A0004FF00002EB6A2A700022AA6213B1296B59
:1041B000104698476368002BA4D1EB6A23622B6BEF
:1041C0006362FF2FA0D1029BDDE903899A7808EB97
:1041D000480308EB830308F10101424509EB83051D
:1041E0005FFA81F85CD00299087819F823104045ED
:1041F00008BF4FF000080429E9D195F801A0019902
:104200000AEB4A0201EB021416016178A27891428E
:104210004FF0010010D04FF0000209F82320EB6AA4
:10422000A8620BB1296B9847029B9A78CFE78BF86D
:1042300018A0A5E7014694E7AB8ADBF81410CDF887
:104240000C804FF6FE72934207D04FF6FF729B1A16
:10425000B3FA83F35B0984F82C306B6AA362EB68D2
:1042600063602B692362AB8A4FF6FD72934288BF6D
:104270000023A383AB69A361EB69E3602B6A23612D
:10428000AB68A360002363616A6820469846FFF725
:10429000FBFE0123C4F82480A4F81E80E3703CE7F1
:1042A000029A05999142A2F1080306D0029322E7EF
:1042B0000CF806208BF818A06DE707B0BDE8F08F6A
:1042C0002DE9F04F477E012389B08376002F53D12B
:1042D000037EFF2B82464ED00EF076FFDAF81420D4
:1042E000DAF81C309AF81840DAF800B0861A26F08E
:1042F0007F46B34294BF00230123FF2C0393B946AA
:1043000043D0049704EB44040BEB04152401AB6881
:10431000B34239D8AA781BF80440F61A99446B784E
:104320009B1ADBB2012B2DD1D5F818C0BCF1000FC0
:104330004FD0039B002B00F08180AB6A43B11A6819
:104340001AB11A7A002A00F0C1804FF000021A72E6
:10435000EB8B95F82C2001339BB2EB837AB1AA8BBF
:104360009A420CD2AB6A002B00F0C3801A7A012A61
:1043700005D0012730E0877609B0BDE8F08FAB7833
:10438000013BAB70FF2CBDD1049F9AF80B309AF81B
:104390000A209A4208D10132D2B2022A1ABF174625
:1043A0003B4600238AF80B700AEB83030022C3F814
:1043B0000C90DAF824408AF81A205346012204218E
:1043C0000320A44609B0BDE8F04F6047059E069A59
:1043D0007446AB6A7BB30027002259685A60AB6A07
:1043E0001A72AA78D5F80C80013AAA70B8F1000FB9
:1043F000C8D06B69DAF8142095F803C0A9EB030361
:10440000134423F07F406A6A2B6977B9B5F81EE040
:10441000CDE900C37346C047AB69EF83002B039B14
:10442000EF7018BF01230393ACE7CDE900C34FF64B
:10443000FF73C047A6E71F461946D3E7FF2CC8D035
:10444000E98BAB8B6868994224BFCB1A99B204EB15
:1044500044030BEB031301FB00019F6807916745C1
:10446000B7D805963946A6460646069210E0002CB7
:1044700034D1D878EA78904225D81B78FF2BA5D084
:1044800003EB43030BEB03139F6839448C459DD327
:104490009A69002AF1D0DA8B988B5C688242E6D266
:1044A000002CEAD0002EE8D090468242E5D3E8788E
:1044B000DA78904207D3E0D1079A08FB0448A8EBCA
:1044C00007084245D9D2059E744636E7A98BEA8B88
:1044D00091423FF63AAF01221A7239E726B1A2EBB8
:1044E00000081FFA88F8E0E7E878DA789042C4D24A
:1044F000E9E7AA781946012774E700BF837E002BFD
:1045000040F025842DE9F04F427E8FB08246002A8C
:1045100040F08180837AC17A01208AF8190099429B
:10452000DAF81400089000F041840133DBB2022B6A
:1045300008BF13460AEB83028AF80A30D268089B48
:104540000492134423F07F430124CAF814309AF8EC
:10455000183009930EF038FE9AF80960DAF8003046
:104560000193731EDAF804500690DBB2002E00F0BF
:104570004384002605EBC309FF230A9605930D9497
:104580002E46CDF80CA0D9F804B04FF0000A3746FB
:1045900099F8030099F802800FFA88F202EB4201C1
:1045A00008F1010302EB81044045DBB20BEB84050B
:1045B00000F00C8199F800209A4208BF002389F886
:1045C00002301BF824206978042A39D9019801EBBC
:1045D000410300EB0316082A4FEA03130293B07855
:1045E000737822D81B1A13F0FF032BD1062A1CD193
:1045F000039BDB7E8B4250D00BF824A0EB6AC5F8FE
:1046000028A0002BC4D00020296B984799F80300FC
:1046100099F80280C0E7446A04210346012204207D
:10462000A4460FB0BDE8F04F60470BF824A001236B
:10463000AB62EB6A002BABD0296B01209847A7E750
:104640009846A9E7052A1FD16A684AB9AA683AB903
:10465000EA682AB92A691AB96A6932F07F42E4D055
:10466000012B1CD0039B04215C6A3E4601220846B4
:10467000A0470123B1450A9389F80280A9F10803F4
:1046800000F0AA8099467EE7012B00F08381062A7C
:10469000E8D1039BDB7E8B42AED169689CE1DDF8FB
:1046A0000C804046FFF7B6FCB060D8F814C0069BFB
:1046B000049AA3EB0C0323F07F431344984240F287
:1046C000A381C01A7368002B50D0AB8A002B4DD049
:1046D000013B9AB2AA827168F38B884223D901F117
:1046E000010807970B941AE0726ADFF89CE2A74C66
:1046F0009644A64584BF02F1E87202F5D4324746DB
:10470000346A94BF0F4602F5A572013BC01B121B11
:104710009BB288427262F38340F2CF81AA8A9342AD
:10472000E2D8079F0B9C9A421FD9CDE90B744A1C13
:10473000D6F820E00792726ADFF84C82934C7244FC
:104740009044A0450F4606D8A2F1E872A2F5D432F3
:10475000079FA2F5A57201339BB27262F383AA8A06
:104760009A423844E7D8DDE90B74B2836B68B16ACA
:104770000344B360AA6873691344736129B10B6879
:104780001BB1D5E901329B1A4B60069A614630464F
:10479000FFF77AFCEA68B3691344B3612A6993426C
:1047A0008CBF9B1A0023B361AB7D03B1F370EB7D2B
:1047B00013B1013B86F82C30DDE90121059B5354F0
:1047C00073786A7805920133737015E73E46B145F8
:1047D000A9F108037FF456AF0D9C0A9EDDF80CA0EA
:1047E0009AF818B0099BBBEB030318BF012307938A
:1047F000002C00F01B82069B089A9B1A23F07F472F
:10480000BBF1FF0FDAF80030019350D0DDF81080D3
:1048100006944FF0000945460A96C846019A0BEBEC
:104820004B0302EB03144FEA0319A368AB4200F2F7
:10483000C182A1786278E08B521ADAF81C108B42A0
:10484000A5EB03059844A7EB030731BFC91A4FF046
:10485000FF3300218AF81B30CAF81C10A369D2B2BA
:1048600013B1022A00F02D810023A360019B13F8ED
:1048700009308AF818306168A36A002940F0E680A0
:104880001BB11B7A012B00F0C5803AB1012A00D080
:1048900020B1236A13B1616A01209847A37863703D
:1048A0009AF818B0BBF1FF0FB8D1069C0A9E079B7F
:1048B000099A0599934518BF234650460793FFF779
:1048C00007FC9AF81830DAF800B00396FF2B4FF087
:1048D00000051A4600F099811C4621B201EB410106
:1048E0000BEB01100901876A1FB13E7A012E00F01F
:1048F000FC801BF80140FF2CEFD1039E002D00F03F
:104900009B810999994200F05D82002E00F0AC81F4
:104910001A46FF2A00F08081099BFF2B00F0798264
:10492000DAF800301A4E02EB420203EB02130A27B8
:104930009D680EF049FCDAF81440031B23F07F4316
:104940000333AB422CBFE418641924F07F44DAF837
:1049500028308046204698470EF036FCA0EB08032E
:1049600023F07F43A4EB0804033324F07F44A342E5
:1049700007F1FF3740F26B81002FDAD140F6A81122
:10498000304612F007FAD4E75A2B17FF592B177F3E
:1049900024890100062A3FF42BAEDDF80C80404646
:1049A000FFF738FBB378B060737098F81B206B7812
:1049B0009A427FF421AE1BF82430062B3FF46DAEF3
:1049C000039AFF23D3761BF82430062B3FF465AE01
:1049D000082B3FF462AE0699039B5A698B1A1E029C
:1049E00009D4049A23F07F4313440399CA699A4275
:1049F00088BFCB6100E6049B521A22F07F429342AB
:104A00008CBF9B1A0023F0E7726913441B1A736171
:104A1000002057E6A378A5606370089BDAF81410AD
:104A200003EB08022046FFF72FFB019A059B02F8D3
:104A300009306378CDF814B00133DBB263709AF8B3
:104A400018B0BBF1FF0F7FF4E9AE2EE713B11B7A6C
:104A5000012BDFD0B4F81EC0BCF1000F40D1B4F878
:104A60001CC0E646481CCDE90204D4E908630022D4
:104A7000704604E001388E46441C724412D0DFF8C0
:104A8000D0E2B44C33449E44A645F3D8DDF808E0A8
:104A9000A3F1E8730138A3F5D433441CA3F5A5733F
:104AA0007244ECD1039C94F82C006362002800F05F
:104AB0005381A260A4F81EC0AFE7079F0B9CAA8A8F
:104AC00031E600287FF4D0AEA36A1BB11B7A012B1C
:104AD0003FF4CAAE8AF81BB0A369CAF81C30C3E61B
:104AE000A37863704FF0000EBCE7DAF81C60049BFB
:104AF0001BF80120B34238BFF61AD7E9003928BFA6
:104B0000002699456DD2FF2AA3EB090E69D0D0F893
:104B100018C0F44565D80023CDE90107E0461D46DD
:104B20001BE0B868031F04282B4409D9734528BF2C
:104B30007346434504D9B3EB0C0301D0B3421DD2F5
:104B40001BF80220BE690544FF2A0644AEEB0C03A5
:104B50000CEB050812D0C64510D302EB42020BEB5A
:104B600002171201B86A0028DBD0007A0128D8D1D8
:104B70001BF80220FF2A0CEB0508ECD1DDE9010748
:104B80008268A9EB02021A447A6083601BF8015024
:104B9000FF2D2CD0FF26B64600E015462AB202EBC8
:104BA00042020BEB021C1201DCF808609E4280F00E
:104BB00040819B1B83601BF80220FF2AAE46ECD18C
:104BC000FF2D14D02DB205EB45051BF801208AF806
:104BD00018202B011BF803200BF801200BF80340D1
:104BE00005E08368A9EB03037B6000238360C38B2C
:104BF000013BC3834FF002033B729AF81830FF2B3E
:104C00004FF001051A467FF467AE039EA5B1099ADD
:104C1000FF2A00F0E5803EB30EF0BCFAB8B9CAF83E
:104C20001C000EF0D1FACAF8140010E005995046A5
:104C3000FFF74EFA9AF81830099A9A427FF465AE57
:104C4000002E00F0DC80079B002B40F0EF809AF8EC
:104C50001A3000228AF81920002B75D0DAF8244087
:104C6000534601220321DAE49AF80920DAF80440D5
:104C7000511EC9B2002A3FF44BAE0123079304EB47
:104C8000C10500266B78E9786F68994250D01BB255
:104C900003EB430203EB820307EB830E17F8233089
:104CA000012B31D0022B39D1DEF80490DAF800C0A4
:104CB00099F80020DAF81430DEE90208FF2AD8F863
:104CC000001003D0D0F800B09B4537D09AF81820D8
:104CD00003600021FF2A07D112E01CF80320DBF853
:104CE0000800FF2A01440BD002EB42030CEB031B2C
:104CF0001B01DBF818000028EFD0DBF8083019445E
:104D000089F80020C8F80010DEF82C30CEF82860B2
:104D10001BB1DEF8301000209847E9786B782A78CC
:104D20000133DBB29A4208BF002399426B70AED1C7
:104D3000A542A5F1080386D01D46A3E702EB420277
:104D400013011CF80320C5E70FB0BDE8F08F7047D2
:104D50005A2B17FF592B177F97427FF6AAAE86462C
:104D6000481C0290029C0B95704605E08E467244EA
:104D70000130974280B212D9DFF8C4E0314D33449C
:104D80009E44AE45F2D8A646A3F1E8737244A3F55B
:104D9000D43301309742A3F5A57380B2ECD8039CBD
:104DA0000B9D636260441FFA80FC82E61446049205
:104DB000FFF7CDBB22465B1B9360069C0A9E9AF8C8
:104DC00018B074E5002E7FF4ABAD9AF80930DAF82C
:104DD0000440591EC9B2002B3FF4A2AD07954EE71F
:104DE000002E7FF419AF9AF80930DAF80440591E02
:104DF000C9B2002BF2D10FE7FF230593F0E49AF834
:104E00000930DAF80440591EC9B2002B7FF437AFDD
:104E100019E70EF0D9F904460EF0ACF99AF818200B
:104E200000287FF47DADCAF8144079E59AF818207F
:104E30006FE57246F31AB646CCF808301546BFE661
:104E40005A2B17FF592B177FF0B4049E9DF814506E
:104E5000069C40BB154F3A605A1E39727B727E60C9
:104E6000D2B283B106EBC2025460104612F8083980
:104E700003EB430103EB81018642A5EB030304EB43
:104E80008104DDB2F0D175B9079A3A62089A7A6264
:104E9000FF23099ABA623B767D617D81FB76FD61D5
:104EA0002846F0BC70470120F0BC7047B0260020B7
:104EB00010B40A4B2C2202FB0032546A5CB100EBA6
:104EC000800200EB420003EB8003A446012210BCE9
:104ED00003210220604710BC704700BFB0260020AD
:104EE0002DE9F843284EBDF82C8004462C2505FBFF
:104EF0000465084604EB840104EB4104696801EB96
:104F0000C00706EB8406FC7811F830E0797804F1EC
:104F1000010C5FFA8CFCE64598BF4FF0000C614530
:104F20002ED0796804EB440E04EB8E0E01EB8E0458
:104F30004FF0040901F82E906360089BA360099B61
:104F4000E3600A9B23610C9BA361119B63620D9B31
:104F5000E3610E9B23620F9BE362109B236302239A
:104F60006270A4F81480A36287F803C0D5E90835FD
:104F70009847334649460022A847A06ABDE8F8830F
:104F80000120BDE8F88300BFB026002010B58AB02C
:104F90000C9C00940D9C01940E9C0294BDF83C4026
:104FA0000394109C0494119C0594129C0694139CE9
:104FB0000794149C089400240994FFF791FF0AB009
:104FC00010BD00BF2DE9F84F294DBDF834709DF894
:104FD000388004464FF02C0E0EFB045E084604EBAE
:104FE000840104EB4104DEF8041001EBC00605EB7C
:104FF0008405F47811F83090717804F1010C5FFAAF
:105000008CFCE14598BF4FF0000C61459DF8449041
:105010002AD0D6F804A004EB440104EB81010AEB8A
:1050200081044FF0050B0AF821B063600A9BA3606E
:105030000B9BE3600C9B23610F9BE362109B23633C
:1050400002236270A78284F8168084F81790A36206
:1050500086F803C0DEE9083698472B460022042173
:10506000B047A06ABDE8F88F0120BDE8F88F00BF07
:10507000B026002010B588B00A9C00940B9C0194C7
:105080000C9C0294BDF8344003949DF8384004947D
:105090000F9C0594109C069400240794FFF792FF40
:1050A00008B010BD2DE9F04107461E4D07EB8704FF
:1050B000084607EB44042C2105EB840601FB07544A
:1050C000656805EBC00115F8307091F803E04D7884
:1050D0000EF1010C5FFA8CFC674598BF4FF0000C95
:1050E00065451CD04F680EEB4E050EEB850E07EBA9
:1050F0008E054FF0070807F82E80EB62069B2B63A6
:1051000002236A70AB6281F803C0D4E9083798477C
:10511000334600220421B847A86ABDE8F081012087
:10512000BDE8F081B02600202DE9F0410746204D72
:1051300007EB8704084607EB44042C2105EB8406A3
:1051400001FB0754656805EBC00115F8307091F854
:1051500003E04D780EF1010C5FFA8CFC674598BFB7
:105160004FF0000C654520D04F680EEB4E050EEB5E
:10517000850E07EB8E054FF6027827F82E80C5E9DD
:105180000123069BEB60079BEB62089B2B630223CA
:10519000AB6281F803C0D4E9083798473346002250
:1051A0000421B847A86ABDE8F0810120BDE8F0817C
:1051B000B026002070B50A4D2C2202FB0052D2E925
:1051C000083604460846984704EB840304EB43037F
:1051D00005EB8303B4460022BDE87040042160471C
:1051E000B02600200DF0F0BF401A20F07F4070473D
:1051F00038B5054600200C4603F002FDA8B903F0BF
:1052000033FF10F0060F10D13DB184B10B480622D8
:10521000214612F07DF9002038BD094806222146BA
:10522000002CF6D112F07FF9F5E70C2038BD0622EC
:105230002146024812F077F9EDE700BFDC26002096
:10524000E42600200128034605D8044A0448002B20
:1052500008BF104670470020704700BFE4260020BA
:10526000DC260020012810B503460BD80846074C61
:105270000749002B18BF0C460622214612F048F9B8
:10528000204610BD0024204610BD00BFE4260020AB
:10529000DC260020022801D00120704738B50446E2
:1052A00008461D4604F08CF810B10020287038BD67
:1052B000204638BD002303700B70704708B50248C4
:1052C000FEF728FA002008BDC489010030B58389A3
:1052D00083B023B1037D0446C3B1022B04D06FF029
:1052E0001505284603B030BD01A901F047FB019B1D
:1052F000054613B1184612F07BF9002DF1D1204676
:105300000FF066F80025284603B030BD01A90193CF
:1053100000F00CFC0028F2D012F06AF9019D002D7B
:10532000EDD0284602F01AF868710199014812F090
:10533000DDFDE4E70027002008B503F0B9F80448D4
:10534000FEF7D0F80348FEF7CDF8002008BD00BFF7
:10535000801A0020001A00202DE9F0412E4F2F4E18
:1053600082B00CE012F041F92246BDF8021004466A
:1053700001F0DCFF204612F03BF911F0C7F90DF106
:10538000020101A802F0ACFA04464FF0FF324FF0E0
:10539000FF3300211320002CE4D1019BB3B102F0B4
:1053A0000DFBDDF80480404601F0D8FF019D88F830
:1053B00005006B79032B02D12B79182B0ED02946CF
:1053C000304612F093FD019B002BD8D14FF0FF32F5
:1053D0004FF0FF33384610F0EDFDD0E74FF0FF33CC
:1053E00021464FF0FF320520B5F8068012F0FDF897
:1053F00041460246044605F11C0001F01DFB4046F3
:1054000001F03AFB204624B112F0F2F820460EF0EB
:10541000DFFF019DD3E700BF1827002000270020F1
:10542000D0B588B0204812F035FD4FF0FF32002192
:105430001E4812F0AFFD1D4802F04EFF0446002842
:105440002FD11B4813F0F7F8194801F09DFF0026F3
:1054500000276FF00902CDE90324CDE90667CDE905
:105460000144144B144900944FF4E072134810F0B7
:10547000A3FC1349114812F08FFC6FF00702CDE92D
:105480000324CDE90667CDE901440E4B0E49009493
:105490004FF440720D4810F08FFC0D490B4812F08C
:1054A0007BFC204608B0D0BD002700201827002034
:1054B000F026002059530000C0250120801A00204A
:1054C00064890100D554000080220120001A0020C8
:1054D000708901002DE9F04FAD4DDFF8B8B2AE4F45
:1054E000DFF8B882DFF8B8A2DFF8B89285B04FF0E5
:1054F000FF324FF0FF330221284611F075FB30B127
:10550000043004D0A84840F2612111F043FCEB685C
:1055100003F4FE13B3F5804F00F09D802B6A03F473
:10552000FE13B3F5803F00F00F810024EA682B6A78
:105530009E48DBF800606FF394326FF39433EA60B7
:105540002B62BFF35B8F50E8003F23F0010240E87D
:1055500000210029F7D1BFF35B8FD90703D50022C3
:105560000023C7E90023002E40F3F580DAF800108D
:10557000D9F80030711A19443B68C8F80010002BA4
:1055800000F028815A79002C69D1042A4DD9052AC6
:1055900040F017810029AAD079681A683A608B42D6
:1055A00000F03C8103934FF0FF324FF0FF330320B4
:1055B000FEF7C2F804460146039801F07FFA039B08
:1055C00000221A6003A802F083FADAF80030F61A13
:1055D000D9F800301E443B68C8F800602BB15B79F5
:1055E000DA1E012A19D9052B15D0002C3FF47FAF04
:1055F000204612F070F821460646002012F06FF89F
:10560000B389044630466BB1FEF7F4F811F07EF82A
:10561000002CEDD16BE7002EE7D00021644811F09B
:105620003FFBE2E70EF0D4FEF0E7022A74D85E48B2
:1056300040F22921CDE9003211F0ACFB019A009B28
:105640000393531E012B40F2EE8057484FF4DD7157
:1056500011F0A0FBB3E72B6900229A6065E7D31E27
:10566000012B40F2A780052A00F0B8804A1C63791C
:1056700079D05A1E3868052A00F2E080DFE802F08F
:1056800003031B1B3203042B039471D8022B19D183
:10569000012100200022002311F0A7FF04460398F7
:1056A000DCB1214601F062FA039B00221A6003A8D4
:1056B00002F00EFA9CE70123C8F80030002840F001
:1056C000A680039401204FF0FF324FF0FF33FEF726
:1056D00033F804460398002CE3D1046003A802F0D9
:1056E000F7F904E7002840F09280002900F08F804D
:1056F00003944FF0FF324FF0FF330320FEF71CF806
:1057000004462146039801F0D9F9039B00221A6050
:1057100003A802F0DDF968E77A68196839609A42EF
:1057200012BF0393796003924FF0FF324FF0FF33C3
:105730000120FEF701F80446002C3FF440AF039827
:10574000214601F013FA3AE7686A0022002310F0BC
:10575000D7FB0446EAE64FF0FF33C8F80030002CD0
:105760003FF4C5AE63790394042B0DD9052BC0D04B
:105770000D484FF4DD7111F00DFB039B00221A6000
:1057800003A802F0A5F9B2E6002BF1D07EE700BF36
:105790001800002050270020F8190020EC260020D7
:1057A0004C27002048270020788901003827002056
:1057B000F02600200021254811F072FAD8F80010D8
:1057C00054E72348009340F2292111F0E3FA009BAB
:1057D00003933AE7002C7FF449AF88E60029E9D12A
:1057E00063795A1E052A29D801A151F822F000BF79
:1057F000875600008756000009580000095800002D
:105800000F580000875600000123C8F800307B685D
:105810000022226023B11C607C6068E67A60C1E6E9
:10582000C7E9004463E6022A7FF47EAF20460121E7
:105830000022002311F0D9FE04467DE704484FF40E
:10584000F07111F0A7FA039492E700BFF026002050
:105850007889010010B510F01DFF054C204612F0AC
:1058600025FB204612F016FBBDE8104010F026BFC5
:10587000002700202DE9F047DFF8A090D9F800308C
:10588000002B34DB80460F46164612D0244C0025F0
:1058900021460622304611F02BFE18B914F8013CBF
:1058A000BB4227D0D9F8003001359D4204F10804ED
:1058B000EEDB1C4C1C4DD4F800A031464FEACA0662
:1058C000701C2844062211F023FED9F8003005F898
:1058D0003A700122354402FA08F20F2BEA711ADC01
:1058E0000133C9F80030102B08BF002323600020CB
:1058F000BDE8F0870C4B03EBC503DA7922FA08F117
:10590000C90702D50120BDE8F087012101FA08F19D
:105910000A43DA71EBE723680133E4E758270020F4
:105920005D270020542700205C270020F8B5184C84
:105930006468A40004D51546164A1268120700D4FC
:10594000F8BD03F1080407460E462046022111F077
:10595000D2FE40F63E4303800121204611F0CBFEEB
:10596000034604221A7020460B2111F0C4FE0822BF
:105970000770A0F801502FB9311D0330BDE8F84081
:1059800011F0C6BDBDE8F8400021033011F0CBBDD9
:10599000080000200000002070B5013886B01446D1
:1059A00011280AD8DFE800F0233F5909096A097C69
:1059B00099AC090909090909090D6FF0150006B02C
:1059C00070BD8B68DA789978188809F081FA554BA0
:1059D00006460121188811F029FE012105460830EC
:1059E00011F089FE06702560002006B070BD4D4B99
:1059F0000D21188811F01AFE0D212060083011F0D9
:105A00007AFE4FF0021400234FF44071022203701B
:105A1000C0F80140A0F80510C2710372437283728E
:105A2000C3720373E0E73F4B4121188811F0FEFD7C
:105A300041212060083011F05EFE00210446402222
:105A400000F8011B11F06FFD6278A37862F0580234
:105A500043F003036270A370C6E7324B0921188834
:105A600011F0E4FD09212060083011F044FE00210E
:105A700000F8011B082211F056FDB5E789680020E7
:105A8000FFF7B6FB274B0121188811F0CFFD01214C
:105A90000546083011F02FFE002303702560A3E7B0
:105AA000214D204E0FCDEC46ACE80F0095E80300E9
:105AB0004CF8040B30888CF80010162111F0B6FD5C
:105AC00016212060083011F016FE002300F8013B7B
:105AD0001522694611F01CFD86E7124B1821188823
