:10000000804600201D4700005BA30100F146000070
:10001000F1460000F1460000F1460000000000003B
:100020000000000000000000000000000544000087
:10003000F146000000000000B14300007DAC01006B
:10004000B54400003D170100B5440000B544000070
:10005000B5440000B5440000B5440000B5440000BC
:10006000B5440000B5440000B5440000B5440000AC
:10007000B5440000B5440000B5440000B54400009C
:10008000B5440000B5440000B5440000B54400008C
:10009000B5440000B5440000B5440000B54400007C
:1000A000B5440000B5440000B5440000B54400006C
:1000B000B5440000B5440000B5440000B54400005C
:1000C000B5440000B5440000B5440000B54400004C
:1000D000B5440000B5440000B5440000B54400003C
:1000E000B5440000B5440000B5440000B54400002C
:1000F000B5440000B5440000B5440000B54400001C
:1001000053B94AB9002908BF00281CBF4FF0FF317E
:100110004FF0FF3000F074B9ADF1080C6DE904CE7A
:1001200000F006F8DDF804E0DDE9022304B07047D2
:100130002DE9F047089E0D4604468846002B4DD118
:100140008A42944668D9B2FA82F252B101FA02F3B5
:10015000C2F1200120FA01F10CFA02FC41EA030885
:1001600094404FEA1C45210CB8FBF5FE1FFA8CF7B2
:1001700005FB1E8341EA03430EFB07F199420BD9AD
:100180001CEB03030EF1FF3080F01E81994240F218
:100190001B81AEF1020E63445B1AA4B2B3FBF5F00F
:1001A00005FB103344EA034400FB07F7A7420AD9D2
:1001B0001CEB040400F1FF3380F00881A74240F2F9
:1001C000058164440238E41B40EA0E4000211EB160
:1001D000D4400023C6E90043BDE8F0878B4208D92C
:1001E000002E00F0EE800021C6E900050846BDE8BB
:1001F000F087B3FA83F100294AD1AB4202D382429D
:1002000000F2F980841A65EB030301209846002E62
:10021000E2D0C6E90048DFE702B9FFDEB2FA82F2B7
:10022000002A40F09180A1EB0C054FEA1C471FFA11
:100230008CFE0121B5FBF7F307FB1350250C45EAB3
:1002400000450EFB03F0A84208D91CEB050503F19D
:10025000FF3802D2A84200F2CB8043462D1AA4B246
:10026000B5FBF7F007FB105544EA05440EFB00FE12
:10027000A64508D91CEB040400F1FF3502D2A645BF
:1002800000F2BB802846A4EB0E0440EA03409EE740
:10029000C1F120078B4022FA07FC4CEA030C20FA3C
:1002A00007F405FA01F31C43FD404FEA1C4900FA2C
:1002B00001F3B5FBF9F8200C1FFA8CFE09FB185569
:1002C00040EA054508FB0EF0A84202FA01F20BD9FC
:1002D0001CEB050508F1FF3A80F08880A84240F247
:1002E0008580A8F1020865442D1AA4B2B5FBF9F087
:1002F00009FB105544EA054500FB0EFEAE4508D942
:100300001CEB050500F1FF346CD2AE456AD902380A
:10031000654440EA0840A0FB0294A5EB0E05A54207
:10032000C846A64656D353D05EB1B3EB080265EB80
:100330000E0505FA07F722FA01F3CD401F43C6E97F
:1003400000750021BDE8F087C2F1200320FA03F117
:100350000CFA02FC25FA03F395400D434FEA1C47C3
:100360001FFA8CFEB3FBF7F107FB11302B0C43EAAD
:10037000004301FB0EF0984204FA02F408D91CEB8A
:10038000030301F1FF382FD298422DD9023963447B
:100390001B1AADB2B3FBF7F007FB103345EA034578
:1003A00000FB0EF3AB4208D91CEB050500F1FF384A
:1003B00016D2AB4214D902386544ED1A40EA014125
:1003C00038E73146304607E78646E5E61846FAE65E
:1003D0004B45A9D2B9EB020864EB0C0E0138A3E738
:1003E0004046EAE7204694E74146D1E7D0467BE71E
:1003F000023B654432E7084609E76444023842E7B5
:10040000704700BF000000002DE9F041D0E90B3536
:10041000866A5C193034A6428846174618D81C4DA7
:10042000A3FB050118A3D3E90023FFF769FEA41B72
:1004300020F07F40C8F8000013A3D3E90023A4FBF9
:100440000501FFF75DFE20F07F403860BDE8F081D8
:100450000F4C0DA3D3E90023A6FB0401FFF750FEC8
:1004600005F1300120F07F40C8F8000006A3D3E971
:100470000023A1FB0401FFF743FE20F07F4038601A
:10048000BDE8F081AFF300808D49FD1A0700000040
:1004900000CA9A3B000000002DE9F04F8FB0002801
:1004A00000F03F81AD4C94F86A6016F0010640F010
:1004B0003D8194F82500FF2300F0030084F82630E6
:1004C00010F04EFC94F86A0041072DD494F82920CE
:1004D00094F8353004EB820204EB8303D2F82C80CD
:1004E000D3F83890B8F1000F11D09C48414609F07C
:1004F000D3FE98F800305A0605D5062104F03CFBDF
:10050000002800F0D6819548494609F0C5FE98F8C4
:10051000003013F00E0F40F0F180236A9BB10C26DF
:1005200030460FB0BDE8F08F324604F16B01C0F3E6
:10053000C00010F0ABFDFF2884F82600C6D030467E
:1005400010F054FCC2E708F049FF8246002800F092
:10055000BA8108F04FFF8346002800F0B9810AF005
:10056000B5FF0546002800F0B081406F4FF6FF73DD
:100570002B8505F11C03002800F0A18105F168021C
:1005800005F164010B9304F003FBB5F86020744B94
:1005900022F4EF6222F0070242F4887242F0010274
:1005A000A5F8602095F8392002F03F0262F07F0242
:1005B00085F8392095F87A2022F0070285F87A200C
:1005C00095F83C2022F0070285F83C2095F8D820C9
:1005D00022F0070285F8D8204FF01B12C5E9162338
:1005E0007F22002785F8BD200622A5F8C020C5E996
:1005F00012776F67A5F87870EF852F6385F83B70E9
:100600002F65A5F8C470A5F8C870A5F8D070A5F836
:10061000CC70A5F8E47085F8E670C5F80871A5F807
:100620000C71A5F8207107F0C9FF95F83A21A5F8DB
:10063000387122F0030285F83A2195F87A20A5F85E
:10064000407122F0180285F87A2095F8662185F825
:10065000437122F0070285F8662195F88621C5F8D6
:1006600044A167F3451285F8862195F8AE21A5F8D7
:10067000647167F3C302C5E94A0100210020C5E99E
:100680004C0185F8AE2185F8D970A5F88471C5F8BC
:10069000E070A5F8AC71A5F8B8710BF00DFBA5F8EA
:1006A000D2000BF00FFBD5F8BC112E4AA5F8D400F0
:1006B0000A40C5F8BC210BF00BFB95F8C02160F394
:1006C000020285F8C0210BF009FB0B9B236295F811
:1006D000C031C5F8C47160F3C503C4E918ABC5E9FE
:1006E0007477C5E97277C5E905772F70ED6185F8F4
:1006F000C03111F07DFD002840F0DD8094F82430F9
:100700000121C3F342030DF133008DF8333004F0BF
:10071000B9FB48BB236A002B3FF401AF09F080FA14
:10072000FDE60E4B93F86A20D40704D40026304629
:100730000FB0BDE8F08F1A6A5AB192F8201041F05C
:10074000020182F820101B6A93F82030D8073FF589
:10075000E6AE0FB0BDE8F04F09F0A4BAA41A00202D
:10076000480148010000FFF699F801100246404692
:1007700009F046FB5C49E46100253123A360C4E92C
:10078000055557A3D3E90023A0FB0101257065603F
:10079000E560FFF7B5FC2061B4F8689005F03CFE19
:1007A0000746B9F1000F08D198F8005005F00F0581
:1007B000A5F10105B5FA85F56D0994F8240065F3F6
:1007C000000010F0010584F8240032D02369474A64
:1007D000DFF81C910493002002250DF134080193E9
:1007E00005920321CDE9020006943B460090CDF826
:1007F0002080CDF81C902A460D9505F0E3FC41467B
:1008000008F07CFE002885D13A4A05924AF2D83297
:100810000092CDE90300CDE90100CDF81C90CDF8A0
:10082000208006943B46012203210D9505F0CAFC69
:100830002AE00694029523692F4A3048049303F274
:1008400047131360A9FB0001912303FB0911284BF7
:100850000793264B05934FF6FF7309924FF0020959
:1008600003930DF134081EA3D3E90023CDF834908F
:10087000CDF82080FFF744FC3B46CDE900504A46C6
:100880002846032105F048FC414608F037FE0028C1
:100890007FF440AF94F86A3043F0010384F86A3083
:1008A00009F0DCFE00287FF441AF012010F03AFA95
:1008B00036E6122634E609F0B3F9032630E605F1F0
:1008C0006C0068675AE607262AE6584608F098FD45
:1008D000504608F089FD072622E600BFAFF30080EE
:1008E0008D49FD1A0700000000CA9A3B7D9E00005A
:1008F00089860000A9990000181B0020002AE784BF
:1009000070B590F824308AB0C3F342030D46044614
:1009100001210DF1230016468DF8233004F0B2FAC0
:1009200071780246284609F06BFA1D491AA3D3E9EB
:100930000023A0FB0101FFF7E3FB23699842054672
:1009400020D21B1A00220192164A0293164BA21AB9
:10095000A3FB02320221920900230A4409AE099145
:1009600012490591CDE903330321D2B206960093D3
:10097000184605F099FC314608F0C0FD48B92561DC
:100980000AB070BD02D9C21A0023DCE700200AB009
:1009900070BD0C200AB070BD8D49FD1A0700000023
:1009A00000CA9A3BA41A002009CB3D8D898600001D
:1009B00038B5194C9DF810E094F844C01CF00105BE
:1009C00022D163F3420C400194F83230A1874FEA00
:1009D000CE0E0EF0180E00F0200040EA0E0023F0BC
:1009E000380303430D4884F83230A2FB0001912301
:1009F00003FB021106A3D3E9002384F844C0FFF7E8
:100A00007FFB2064284638BD0C25284638BD00BF32
:100A10008D49FD1A070000003C1B0020002AE784D6
:100A200010B59DF808C0044649014FEACC0000F01B
:100A3000180001F0200CA17D22844CEA000C0C4827
:100A400021F038014CEA010C9122A3FB000102FBCA
:100A5000031184F816C004A3D3E90023FFF750FB69
:100A6000606210BDAFF300808D49FD1A07000000E1
:100A7000002AE784000000002DE9F047044600F159
:100A8000350190F8440094F83230C0F3400060F330
:100A900086138CB084F8323005F0F6FC94F83220DE
:100AA000A38F4D48E46102F079020025A3FB000109
:100AB00084F83220912202FB0311C4E9055544A3B6
:100AC000D3E900232570FFF71BFB3123C4E9015351
:100AD000236CE5600933A0F13102934232BF2361F8
:100AE00022612564064605F097FC236A07460DF14E
:100AF0002C08002B4CD0394D394BCDF82080069472
:100B0000651BA3FB05353448A38F4FF0000AA3FBF8
:100B100000019122CDF80CA002FB0311236904937C
:100B2000304B0793304B05934FF0020928A3D3E9CC
:100B30000023CDF82C90FFF7E3FA104619464FF446
:100B40007A720023FFF7DCFA2D090435EDB22A464C
:100B5000CDE901603B460321CDF800A0504605F0E9
:100B600031FB414608F0CAFC054668B994F84430A8
:100B700043F0010384F8443009F064FB0446F8B103
:100B800028460CB0BDE8F0870C200CB0BDE8F0871B
:100B9000CDE90A33216943460AAA032001F070F91E
:100BA0000B990029A7D0114809A3D3E90023A1FB81
:100BB0000001FFF7A5FA0A9F20F07F4007449AE75B
:100BC000484610F0AFF820460CB0BDE8F08700BFF3
:100BD0008D49FD1A07000000002AE7843C1B002015
:100BE000398EE3388986000055A4000000CA9A3B7C
:100BF0002DE9F04FC38D458E1D4490F80E310D4404
:100C0000174613F007028BB00446ADB20AD0531E4C
:100C1000042B00F27883DFE813F0C7013802A20149
:100C200051013B02B0F8E880A5EB080318041FFA55
:100C300083FB00F16E8194F93930002B0E46C0F22F
:100C40006B8294F8E43084F8E53094F8842194F8C9
:100C5000853194F80C1184F80D1193420AD094F860
:100C6000863103F00F03062B04D1002384F885217D
:100C7000A4F8C830BE4BD4F808911A68944204BF57
:100C800000221A60B9F1000F00F05981D9F8000074
:100C9000002800F05481628DB4F810314168C4F826
:100CA00008119342B4F8122100F03E82B4F81411F6
:100CB000B4F828C0A9F81E30182389F8043000239E
:100CC000A9F806C0A9F82020A9F8221089F81C303C
:100CD000494608F09BFB08F0A3FBA368002B09DA48
:100CE000E168626823F0004391422CBF7F18BF186F
:100CF000A360FF1A608DB4F8109110FB0BF080B266
:100D0000B0FBF9F119FB01F39BB298421FFA81FA8B
:100D100080F004811B1A40F2E241964803FB01F186
:100D2000A1FB000190A3D3E90023FFF7E9F920F02C
:100D30007F400744E18D94F93930A8EB0508D04491
:100D40000E444644002B40F2E248E68508FB09F6D3
:100D5000C0F20D82D4F81811864883A3D3E900238A
:100D6000A1FB0001FFF7CCF920F07F48B34608F162
:100D70000108814AB4F81431B4F812117F48A4F87C
:100D80002A903244B2FBF6F2A4F8C62042F2107266
:100D900002FB03633044013BB0FBF6F0B3FBF6F615
:100DA00083B2881D8342A185A4F8C260A4F8CE3026
:100DB00002DD5B1A063B9BB2A4F8CA3094F80E31F0
:100DC0001B0744BF0023A4F8C4300221012014F003
:100DD000C7F8002202218146012003F029FF68495B
:100DE0004FF4F072204603F0B3FE00F1050A5FFAFB
:100DF0008AFA644B009452460121002005F06CFAF7
:100E000030F002030CD0604A6049614840F65F331D
:100E100018F044FE404080F311884FF0030002DFD9
:100E2000544EABFB066B50A3D3E900233046594622
:100E3000FFF766F920F07F4556480723A5FB000120
:100E4000301A03FB05116BEB01014FF47A7200239A
:100E5000FFF756F9CDE9015008940694CDF80080CB
:100E6000216994F939504C4804914C494C4C0794F1
:100E700011EA250138BF014605914FF6FE713B4648
:100E8000039152460121002005F09CF930F0020345
:100E90000CD03D4A3D493E4840F6793318F0FEFDFE
:100EA000404080F311884FF0030002DFB9F1000FDA
:100EB00040F0578100200BB0BDE8F08F838D90F893
:100EC0000E01D4F8C4211D440635D4F8EC30ADB27F
:100ED0006FF30200A4F8E850A3F109011D8184F822
:100EE0000E0122B194F86601860740F18E81D4F894
:100EF000C801002800F0A281D4F8CC21106843F882
:100F0000090C116053F8092CC4F8CC11002A00F028
:100F100092816FF076000BB0BDE8F08F09FB1101F4
:100F200040F2E243134889B203FB01F1A1FB000147
:100F30000DA3D3E90023FFF7E3F83F1AFAE6124ABC
:100F40001849134840F6B42318F0A8FD404080F338
:100F500011884FF0030002DFD9F800009BE66FF024
:100F60000F000BB0BDE8F08F8D49FD1A070000009F
:100F7000981B002000CA9A3BFF5962027FC3C90137
:100F8000A0080020B1AB000000C20100E0C20100D7
:100F900074BC01008D49FD1AA1FC0000B1FA0000EB
:100FA00059AB0000CCC20100DFF81483012008F027
:100FB0003DFA0646002800F05281C24803F092FD37
:100FC0000546002800F04B81BF4B1A68002A00F04C
:100FD0001A8108F049FA3368D4F808215A602B794D
:100FE000C4F8086143F003032B710C236B710023D9
:100FF000EB7194F81C312B72B44AD4F81831A2FB6F
:1010000003239B0AA5F80930B4F81031A5F80B307A
:10101000B4F81231A5F80D30B4F81431A5F80F303A
:1010200094F80E31C4F8F070032262F3020384F8DE
:101030000E31A368002B0ADAE168626823F00043EE
:1010400091422CBF7F18BF18FB1AC4F8F030A04B98
:1010500001220935C4F8EC5002211046C3E90248C8
:1010600003F018FE00283FF454AF9A4A9A499B486F
:1010700040F6092318F012FD404080F311884FF02C
:10108000030002DF6FF0760015E7DFF854828DE78A
:10109000D0F8EC20D0F8C43190F8E40084F8E500F2
:1010A00094F80C01884984F80D0194F8840184F8BF
:1010B000850100200860A2F10901C3B194F866011E
:1010C000800714D494F8BF01C70710D4D4F8D00116
:1010D000834200F0E080D4F8C80168B9187900F0C4
:1010E0000300032800F00281C4F8C83106E0D4F8F8
:1010F000C801002800F0AC80D4F8CC31186842F860
:10110000090C196052F8093CC4F8CC11002B00F00E
:10111000A9806FF08B00CEE694F8D930002B3FF415
:1011200090AD84F8D92090E5A18D9142B4F81411C6
:101130007FF4BEAD40F2E24C0CFB03FE42F2107CA9
:101140000CFB01EC0CF1FF3CBCFBFEFCB4F8C2E074
:101150001FFA8CFCE6457FF4ABAD012389F804301F
:10116000B6E501220221104603F062FDA2E6226CE0
:10117000A36C02FB1B33A36411F08EF8054694F8B0
:10118000D800C0F3C20011F089F8054406FB05F54C
:10119000544B94F81C2105F5742505F23F25A3FB5B
:1011A0000535AD0C08FB02F2A36C226505FB0AF0C5
:1011B00072080344963A934228BF13462564A6EB6F
:1011C000050B494DC4E911230023C4F8E030A0FB0E
:1011D000050139A3D3E90023FEF792FF3B4B3F1AE9
:1011E000D4F81801A3FB0030800A08FB00F032A3FA
:1011F000D3E90023A0FB0501FEF782FFB4F81091AC
:1012000020F07F48B5E51C60E3E694F8BF01C50710
:101210003FF56DAED4F8D001824228D0D4F8C80191
:1012200000287FF469AE107900F00300032864D031
:10123000C4F8C82162E6C4F8D4116AE643F8092C60
:10124000C4E97111C4F8CC11002A7FF462AEF2E750
:1012500042F8093CC4E97111C4F8CC1156E76FF0AB
:10126000680028E6C4F8D4116FF08B0023E61068FC
:10127000C4F8D001D4F8C80100287FF43DAE10684E
:1012800043F8090C116053F8092CC4E97211002AC3
:101290007FF43FAECFE71868C4F8D001D4F8C80196
:1012A00000287FF429AF186842F8090C196052F839
:1012B000093CC4E9721129E78D49FD1A07000000B5
:1012C000F1020100C01C0020981B00205917B7D163
:1012D0007803002000C2010018BF010074BC0100A7
:1012E0004920000083DE1B4300CA9A3BD8790328BB
:1012F000D9D00A287FF4F8AED5E7D0790328BED03C
:101300000A2895D1BBE7084A0849094840F65D23F9
:1013100018F0C4FB404080F311884FF0030002DF57
:101320004FF0000842E600BF00C20100F4BC01001B
:1013300074BC0100000000002DE9F04F0B68D2F8EA
:1013400000A01B6897B00C460A93037F00F11E01B2
:10135000C3F380130546174614A806228DF84730BC
:1013600019F039F894F81290B9F1FF0F12AE5CD071
:1013700032460DF1470148460FF076FA9DF84730A6
:1013800002338DF847302946032251F82E3B0B9348
:1013900007F1080007F1040B19F01DF807F1180810
:1013A000042205F12A01584619F015F8052205F125
:1013B0003A01404619F00FF84046052103F062FD5E
:1013C0007B7F95F83F1000F03F0060F305037B77CB
:1013D000C1F30403BB77B5F83480A7F80E80012869
:1013E0001FFA88F201F01F0305D91B3303F01F0316
:1013F0000B2B00D8FAB90A9BEC680B9800225A61B3
:1014000097F82030012662F3000387F82030294640
:101410002E7107F0FBFF20682671214607F0F6FFCA
:1014200007F0FEFF17B0BDE8F08F062214A9304682
:1014300018F0D1FFA7E723680020586095F83630F0
:1014400095F8370043EA00233B829AF8D8304909DF
:1014500061F3C503698E8AF8D83040F2E24303FB9A
:1014600002F80D9110F018FF0C909AF8D800C0F314
:10147000C20010F013FF0C9ABB49024408FB02F2B1
:1014800002F5742202F23F22A1FB0232920C7A6230
:1014900095F83120398A40F2E24302FB03F3BB6343
:1014A0004FEA5803963BBB622B8FB04AADF83A30F7
:1014B00018464244AE4BB2FBF8F2AAF8C62082B2FC
:1014C00042F2107000FB02824344013A881DB2FBD5
:1014D000F8F2B3FBF8F3AAF8C2209AB28242AAF853
:1014E000CE2002DD521A063A92B2AAF8CA20594614
:1014F00004220AF1DC0018F06EFF4FF480722B7F9B
:10150000AA830A9A92F82600C3F340120F920C9213
:101510000FF052FF002800F0EB80062205F12401B5
:1015200005F12B0018F057FFB9F1FF0F00F0E7802D
:1015300014A9062205F1250018F04DFF9DF847304B
:10154000AB773146062205F11F0018F044FF9AF8E8
:10155000D830FA896A863A8AAA86C3F3C203BDF8EC
:101560003A2085F83830EA86504609F0BBFF294614
:10157000B881E88065680B9807F048FFBB89EB806D
:101580001B232B710C9B2E68002B40F0C7809DF80D
:101590003C302B772946304607F038FF07F040FFF4
:1015A00097F84500B7F84050B7F84260012100F0C5
:1015B000070010F07FFC2E4406F5E17631188146D5
:1015C0006C4800263123CAF80830A1FB000164A34F
:1015D000D3E90023CAF80460CAF80C60FEF790FD56
:1015E0007B6A0D9AE56820F07F40A8EB030840F283
:1015F000E24303FB025502213246CAF810000120E3
:1016000003F016FB0A9F384608F002FE821C5A4B74
:101610000097D2B23046012104F05EFE05F2B245D9
:101620000128A5EB090500F084800A9B93F824307B
:10163000DB076BD4504609F055FFDFF83891A8FB63
:10164000098647A3D3E90023834631464046FEF787
:1016500057FDA368CDF818A00BF10504A3F13A0BD0
:10166000464B0793464B059340F2AB130893DAF8C9
:101670001030049320F07F4742480023A7FB00016D
:1016800003930723B8EB000003FB071166EB01018E
:101690004FF47A720023FEF733FD31A3D3E9002320
:1016A000CDE90170A5FB0901FEF72AFDE4B220F0A7
:1016B0007F4000905B4622460121002004F082FD1D
:1016C00030F002030CD0304A304931484FF4D67321
:1016D00018F0E4F9404080F311884FF0030002DF76
:1016E00001220221104603F0A3FA17B0BDE8F08FE3
:1016F0000146062205F12B0018F078FE14E70622B9
:10170000002105F1250018F071FE17E700230122E2
:1017100000931846114604F0DFFD8BE77B7F43F012
:1017200040037B7758460EF091FE0123F8832B7718
:1017300030E707F021FF0A9B83423FF476AF124A5D
:101740001449134840F26E2318F0A8F9404080F382
:1017500011884FF0030002DF67E700BFAFF300809E
:101760008D49FD1A0700000083DE1B43FF5962020A
:101770007FC3C90100CA9A3B75FA000045FA000010
:10178000B1FA00008D49FD1AE8C30100E0C2010072
:1017900074BC010044C401002DE9F04F8BB00F462A
:1017A0000493BDF85830059006930020BDF86030D2
:1017B0009DF85490BDF85CB00393164608F05CFFAA
:1017C000002800F0A08109F0010A0546504604F007
:1017D0004BFEBAF1000F6AD12B6A05F11C02079289
:1017E000002B6BD0D5F82080D8F8004098F8440042
:1017F000C0F3C00100F0070010F05AFBB8F8401029
:1018000000F5E1700144B8F842000144C848C6A39D
:10181000D3E90023A1FB0001FEF772FC20F07F401A
:10182000206130460FF0BEFA95F833306FF3410374
:1018300085F83330FF2385F8343066B3A9F102030D
:10184000012B40F2648195F84430049A69F3420315
:1018500085F8443095F8333062F3000385F833306F
:101860001499062205F1240018F0B5FD039B2B8680
:10187000059A00963B4605F11C000021FFF7D0F8C1
:1018800010F0B6FC002840F05F812846FFF7F4F81E
:101890000BB0BDE8F08F0FF049FF0028CED01499AF
:1018A000049832460FF0F2FB85F83400C6E70621B3
:1018B00003F062F900288FD11220E9E707F08EFDCE
:1018C0000790002800F0778109F000FE0446002808
:1018D00000F09381203003F0EDFA04F11C08002899
:1018E00040F05C81032104F1240010F095F9069B7F
:1018F000606F63854FF6FF73A4F82CB02385002832
:1019000000F05B8104F1640104F1680203F040F926
:10191000B4F86030874A23F4EF6323F0070343F4FD
:10192000887343F00103A4F8603094F87A3023F010
:10193000070384F87A304FF01B134FF0000BC4E913
:1019400016327F2384F8BD30C4F874B0A4F878B0A0
:10195000A4F82EB0C4F830B004F134000EF02AFD23
:1019600094F8393060F30503012184F839300DF122
:10197000270010F051F99DF827206F4BDDF80CC0BF
:10198000A08D84F83BB0A3FB0213DB0803EB4303F9
:10199000A2EB8303053384F83A3094F83930069982
:1019A000A4F8C4B003F03F0384F8393094F83C3015
:1019B000A4F8C8B023F0030340F2E24284F83C30BC
:1019C0005E4BA4F8D0B002FB01F10A460B44B3FB16
:1019D000F1F35B49A4F8CCB01144B1FBF2F1A4F8E7
:1019E000C61042F2107101FB0C210139B1FBF2F279
:1019F000A4F8C2200622A4F8C020811D9AB28A420F
:101A0000A4F8CE2002DD121A063A92B294F8D83029
:101A1000A4F8CA204FF0000B23F0070384F8D83055
:101A2000A4F8E4B084F8E6B0C4F808B1A4F80CB1A6
:101A3000A4F820B106F0C2FD079BC4F8443194F825
:101A40003A31A4F838B123F0030384F83A3194F81A
:101A50007A30A4F840B123F0180384F87A3094F86F
:101A6000663184F843B123F0070384F8663194F8B3
:101A70008631A4F864B16BF3451384F8863194F889
:101A8000AE31A4F884B16BF3C303002284F8AE3105
:101A90000023C4E94A01C4E94C23A4F8ACB1A4F87A
:101AA000B8B10AF009F9A4F8D2000AF00BF9D4F899
:101AB000BC21244BA4F8D4001340C4F8BC310AF074
:101AC00007F994F8C03160F3020384F8C0310AF0DA
:101AD00005F994F8C031C4F8C4B160F3C50384F8C3
:101AE000C0313123C4E974BBC4E972BBC4F804B08B
:101AF000C4F80CB0A360C5F82080C4E905BB84F825
:101B000000B0E46172E60C200BB0BDE8F08F00205D
:101B10000FF06CF995F8333043F00203D14685F8A5
:101B2000333090E6AFF300808D49FD1A07000000C6
:101B300000CA9A3B48014801ABAAAAAA7FC3C901BF
:101B4000FF5962020000FFF62C6AA36D63B12D4AB3
:101B50002D492E4840F25D4317F0A0FF404080F32E
:101B600011884FF0030002DF04F14C0104F148003A
:101B700003F012F80646002831D02768A665D7F88A
:101B80004441F4B1204607F02FFC384609F0A4FC8C
:101B9000002303202B620BB0BDE8F08F194A1C49CB
:101BA0001A48B62317F07AFF404080F311884FF0AF
:101BB000030002DF96E607206AE604F16C00606726
:101BC000A0E6104A1349114840F2664317F066FF39
:101BD000404080F311884FF0030002DFD2E7094A4A
:101BE0000C490A4840F25F4317F058FF404080F329
:101BF00011884FF0030002DFBFE7079807F0F4FBFE
:101C0000072045E674C4010044C1010074BC010012
:101C1000E4BE010058C201002DE9F04F8DB0067FEF
:101C200004460F46154600F1240106220AA818F0C2
:101C3000D2FB002394F81C90A383797C97F8128040
:101C4000C9F3401B11F00201C6F3C016D9464FF08C
:101C5000060200F0DF8004F11E0104F12B0018F0F1
:101C6000BAFBB8F1FF0F00F0DD80404604F11F021F
:101C700004F11E010EF0F8FDA37F02330AA9A37739
:101C8000062204F1250018F0A6FB3B68D3F800A05B
:101C9000EB8963862B8AA386BAF83030E38610F08E
:101CA000F9FA84F83800D5F80080404609F01AFCAB
:101CB0007E68A8812146E080206807F0A7FBAB89F9
:101CC000F3801B2334683371B9F1000F40F0B88002
:101CD00086F81CB03146204607F098FB07F0A0FBC1
:101CE000D8F80430D8F8086095F84400B5F80E909C
:101CF000FC689E4238BF1E46C0F3C00140F2E2437A
:101D000000F0070003FB09F910F0D2F8203400229C
:101D10000221241A012002F08BFF504608F084FCB7
:101D2000021D4F4BCDF800A0D2B20121002004F0DB
:101D3000D3FA30F002030CD04A4A4B494B484FF4D7
:101D40005E7317F0ABFE404080F311884FF0030044
:101D500002DF4FF0000A534603220121CDF800A014
:101D6000504604F0B9FA404609F0BCFBBB68CDF818
:101D70001880093B9E1B3E4B07933E4B05934FF447
:101D80006A733D4F0893D8F81030A9FB0798CDE946
:101D900003A3451D30A3D3E9002348464146FEF77F
:101DA000AFF9104619464FF47A720023FEF7A8F9EE
:101DB00029A3D3E90023029041464846FEF7A0F943
:101DC00025A3D3E900230190A4FB0701FEF798F9AE
:101DD000EDB220F07F40009033462A460121504664
:101DE00004F0F0F930F002030CD01E4A1E491F48DF
:101DF00040F2A93317F052FE404080F311884FF0B3
:101E0000030002DF01220221104602F011FF0DB093
:101E1000BDE8F08F04F12B0018F0E8FAB8F1FF0FDD
:101E20007FF423AF0622002104F1250018F0DEFA2A
:101E3000A6770AA9062204F11F0018F0CCFA24E7BD
:101E40006B7F43F040036B77281D0EF0FFFA0123F0
:101E5000E88333773EE700BF8D49FD1A0700000095
:101E60006DFC000074C40100E0C2010074BC0100FC
:101E700071FC0000A1FC000000CA9A3B00000000B9
:101E80002DE9F04F8FB01E4609931546FF230A1D1A
:101E9000DFF80481DFF804B1DFF804A1DFF8049172
:101EA00008920021316004468DF82F3004930C9184
:101EB000059106910DAF0CAE02230D93CDE901877C
:101EC00000962B460DF12F022146002004F046FA21
:101ED00002282DD00D9B002B30D19DF82F30FF2BE9
:101EE0003CD0052BE8D1002009F004FB0028E3D00A
:101EF00090F93930002BDFDB049902690C9BFF2934
:101F00000CD0069907921846049304F087FA059BB3
:101F1000089A99188842049B079A22D8CDE905238C
:101F20009DF82F300493C7E72146002004F05CFAA7
:101F30000D9B022BF8D00D9B002BCED06C235A4664
:101F40005146484617F0AAFD404080F311884FF0F3
:101F5000030002DF9DF82F30FF2BC2D1049BFF2B23
:101F600010D0DDE9053210481344A3FB000107221D
:101F700002FB031106A3D3E90023FEF7C1F8099B76
:101F8000803018600FB0BDE8F08F00BFAFF3008065
:101F900000CA9A3B0000000039000100C0C40100E3
:101FA00004C5010074BC01008D49FD1A0000000049
:101FB00070B582B01C4601921546064601AA022061
:101FC000FFF75EFF23680BB30198431B1B021FD46E
:101FD000294604F023FA1A4A03460721A0FB02020D
:101FE00001FB032114A3D3E90023FEF789F822683B
:101FF00002442260002A09DB40F2E24006FB00F0C6
:10200000904203D2121A8242FCD8226002B070BD04
:102010000146284604F002FA094A03460721A0FBBC
:10202000020201FB032104A3D3E90023FEF768F8B1
:102030002268121A2260DDE700CA9A3B0000000005
:102040008D49FD1A000000002DE9F041B0F894110F
:1020500088B0044640F2E2434348002603FB01F106
:1020600005AD0623C5E901668DF80F30A1FB00011F
:102070003BA3D3E900230596FEF742F80DF10F03C9
:1020800001950093B4F88A31049004AA20460121F6
:102090000DF0D4FF9DF80F8008F1FF3C5FFA8CFC37
:1020A0000DF11603304604F5CA7703EB4C0C04F52A
:1020B000D0764FF6FF7E3A88B8F1000F0AD02B4653
:1020C000724504D0198891424FF0010013D00233B9
:1020D0009C45F5D10237BE42EDD108BBBDF81430A6
:1020E000D4F8EC1040F2E24203FB02F2C4F81821EB
:1020F000180A0B7009E0D4F8EC1040F2E24302FB3E
:1021000003F3C4F81831100A0A70487094F80E31BD
:10211000042262F3020384F80E3108B0BDE8F081B6
:10212000D4F8EC30032203F8042C13F8052C94F8AF
:102130000E11052542F00302112003F8020C03F8EA
:10214000052C65F302010F20202203F8010C1A7000
:1021500084F80E1108B0BDE8F08100BFAFF3008035
:102160008D49FD1A0700000000CA9A3B00000000DC
:1021700038B5044610F036FFA27DC2F341030133A7
:1021800003F00303032B34D063F34202A27503F17F
:1021900025000FF04BFE63680BB32369FBB112F00F
:1021A0004BFD054604F038F9C11C002012F012FD69
:1021B00012F08EFD12F040FD294604F02FF912496D
:1021C00003460722A0FB010102FB03110CA3D3E984
:1021D0000023FDF795FF23691B1A236138BD04F026
:1021E0001BF9C11C002012F0F5FCBDE8384012F0CC
:1021F0006FBD6FF34202A2752520CAE7AFF30080DE
:1022000000CA9A3B000000008D49FD1A0000000042
:102210002DE9F04F89B0044612F022FAC0B250B94D
:102220000FF05CFE9A48214612F0B4F809B0BDE800
:10223000F04F12F0E9B912F033FAC7B212F034FCE1
:10224000C6B212F03BFC824612F056FE5FFA80F8EE
:1022500012F036FE834612F0EBFB814612F0C6FB0D
:102260000FF03CFE012007F029FA0546002800F097
:10227000D680002E40F0E380B8F1000F40F0EB80F4
:102280004FF0FF0A002FCDD0A37D180740F1EC805E
:10229000002E00F06F81636800225FFA89F68DF8E6
:1022A0001B20002B00F01481636893F820309907FD
:1022B00000F10E812B7F03F00F010729B2D0A27D20
:1022C000C2F3C009120740F15C81002940F0EC80A4
:1022D0006B7F252B00F27181042007F0EFF90028B5
:1022E000A0D012F0FDFC636A074643B9238C40F28C
:1022F000712202FB03F3B0FBF3F203FB1207236826
:102300001A69644B0721A2FB030301FB02315EA3A0
:10231000D3E90023FDF7F4FEA0F24233BB4281D3A0
:1023200012F056FB5046D4F804B00FF053F8E37D9A
:102330009B07074640F1EA81002800F0E78101464B
:102340000122CDE9042112F0B9F9049A2B7F019200
:1023500007AA0599039205F11E0281460291C3F373
:102360008013014600922046002211F04BF84846A7
:1023700012F01CF912F06AF9002840F0DC8146489E
:10238000214612F007F8002E40F0E3816168A37D3A
:1023900091F8202043F0800342F0010281F82020D0
:1023A000A37507F0A9F91623064603714FF6FF73CC
:1023B0002D7FC380494624221C3018F00CF8337F4F
:1023C000B460C5F3401565F34513337712F034FC60
:1023D000002130610120079D12F0FCF8B8F1000FD8
:1023E00008BF4FF0FF0A86F81AA0E37D2D1A13F0FC
:1023F0000203756102D03B1E18BF0123727E63F396
:102400004102727607F078F9034631463068F3608E
:1024100007F088F907F096F909B0BDE8F08F1F4A78
:102420001F49204840F2912317F038FB404080F3C9
:1024300011884FF0030002DF002E3FF41DAFA07D96
:102440005FFA8AF1C0F3C0000EF0E8FF8246002F69
:102450003FF4E8AE18E75FFA8BF00FF049F88246D8
:10246000002F3FF4DFAE0FE7002E3FF414AF5146CC
:1024700040460FF0CBF800287FF40DAFA37D19077D
:102480007FF5D0AE07E700BF00CA9A3B000000000E
:10249000C13001008D49FD1A8530010020C90100BD
:1024A000D4C8010074BC0100012916D16B7F0C2B2C
:1024B0007FF4B8AE2A7FCDF800A000230193D209A3
:1024C00005F12403204610F0CBFE00287FF404AF72
:1024D000297F01F00F01002965D0062963D0022968
:1024E00000F09180012968D16B7F0C2B7FF49AAEAC
:1024F0002A7FCDF800A00DF11B030193D20905F14D
:1025000024030021204610F0ABFE002855D06B7F3D
:10251000002B3FF487AE63682BB12B7F03F00F03D2
:10252000072B7FF47FAEB8F1000F4FF003009DF84A
:102530001B7008BF4FF0FF0A07F0C0F805460028DF
:102540003FF470AE07F0D8F84FF6FF73EB80052329
:102550002B71002E53D17F232B766B7E286885F854
:102560001AA067F3000329466B7607F0DBF807F043
:10257000E9F857E650460FF00DF800287FF48BAECF
:1025800050E6BAF1FF0F8DF81CA0C3F3801700F0DE
:10259000A280237EA3EB0A03B3FA83F35B09002B2B
:1025A0007FF493AE97E76B7F252B06D8A27D92062A
:1025B00001D562684AB3252BAAD92B7F03F00F03FC
:1025C000042B7FF42FAE6B7F252B3FF62BAEA37D24
:1025D000D8077FF527AE12F071F82B7F0278C3F38E
:1025E0008013B3EBD21F7FF41DAE0830062205F135
:1025F0001E0117F0DFFE00287FF414AE87E712F00B
:1026000009FAC3B2A8E76B7FD5E7962012F06CFAFF
:10261000002012F0B5F9B8F1000F4FF0030014BF1D
:10262000D0464FF0FF0807F049F8074600283FF46E
:10263000F9AD07F061F84FF6FF73FB8005233B719E
:10264000002E5FD17F233B767B7E386887F81A8027
:102650006FF3000339467B7607F064F807F072F8F1
:1026600012F02CF82B7F0646C3F380133278DB017F
:1026700002F0700243F00303134333700C237370B2
:1026800050460EF0A7FEE37D9F07014644D5002883
:1026900042D03378304643F0400300F8023B062234
:1026A00017F099FE062205F11E0106F1080017F049
:1026B00092FE304611F07AFF11F0C8FF00284DD18C
:1026C00012F006FBA37D314843F00103A3752146B8
:1026D00011F060FEA0E605F11E0B07AA5946384628
:1026E0000EF0C8FF00283FF4F3AEE37D03F00103D2
:1026F000BB4241D04B46297F01F00F01002B7FF4F4
:10270000E4ADE8E612F086F9C3B29CE7A27D04F1DD
:102710001901C2F3801214E6A37D3278C3F380134B
:10272000304663F3861200F8022B04F119010622E9
:1027300017F051FEB6E7164A1649174840F24C43C7
:1027400017F0ACF9404080F311884FF0030002DF2E
:1027500015E612F05FF98BF8A10017E60C4A0D4957
:102760000D4840F2D24317F099F9404080F31188A8
:102770004FF0030002DFA3E75946062204F10800E8
:1027800017F018FEB0FA80F35B09B4E7D53001000A
:1027900020C90100DCC8010074BC010008B500209C
:1027A00001F06AF820B10348BDE8084017F076B997
:1027B0000148F9E764CD010079CD01000B680133D0
:1027C0000B60014B1B68184710000020014B18607C
:1027D000704700BF1000002007B50B4600210246DD
:1027E0000191034801A900F0E5F803B05DF804FB8E
:1027F000BD2700002DE9F84FB0F8189019F008082F
:10280000044693460DD001290CBF49F0100949F048
:102810002009A0F818908BF31188BFF36F8FBDE8E3
:10282000F88F09F00709022907D1204617F05DF952
:102830000028F0D00128238B4ED16769218B002F0F
:1028400015DA256821F00701C4E9008841F001018B
:1028500021830026218B01F0070ACA4502D0A36814
:10286000002B5AD10DB9002E71D0002356E001F093
:1028700007035A1F012A1ED821F00701062B2568DD
:1028800089B2C4E900880AD13DB1638B2A46126837
:1028900001339BB2002AFAD1638341F00201218304
:1028A000204617F022F906460028D3D0238B43F0A8
:1028B00020032383CDE7042B0CD121F0070189B23B
:1028C0002183204617F011F905460028C1D041F0B8
:1028D000200121830025BCE7032809D1226923F0C8
:1028E0000703166843F00603238300252F46B1E74C
:1028F000042806D1226923F00703566843F0040335
:10290000F2E7052806D1226923F00703966843F011
:102910000503E9E700252E46E8E7012341F0080119
:1029200021838BF31188BFF36F8FFBB985BB16B181
:102930001F492046B0474FF02003EFF3118B83F37C
:102940001288BFF36F8F238B23F008032383238B1D
:10295000DA0625D523F0100323830121B4F818905B
:1029600009F0070900297FF45EAF54E7A168002948
:10297000DCD0D1F80090D1F804B03B465246204656
:10298000D847B9F1000FD1D04946D9F80090F2E705
:1029900029463B46524620462D6817F0C2F8C5E747
:1029A00013F020011EBF23F0200323830221D5E76B
:1029B0004F9B01002DE9F04F91B08B46029092465B
:1029C0001C4600259AF8000008B928465FE3252830
:1029D0000AF1010707D0029B594698470028C0F228
:1029E0005683013512E2182200210AA817F0FEFCD6
:1029F0009AF80130252B78D000221046964694464E
:102A00001646394617F8013B2B2B00F09D8000F24B
:102A10009480202B00F09B80232B00F09B802EB114
:102A20009DF8306046F004068DF83060BCF1000F70
:102A300005D09DF8306046F008068DF83060BEF194
:102A4000000F05D09DF8306046F010068DF830601C
:102A500028B19DF8300040F020008DF830002AB1F8
:102A60009DF8302042F040028DF830209DF8302053
:102A700002F04400442803D16FF386128DF8302011
:102A80009DF830202A2B42F080028DF830207BD137
:102A90009DF8312042F001024B1C8DF831201A784C
:102AA0002E2A9DF831200CBF0121002161F3410243
:102AB0008DF8312074D15A782A2A6AD00133002146
:102AC0000A26184610F8012BA2F13007092F40F210
:102AD0008E809DF830200E91C2F3400040EAD17103
:102AE00061F341028DF830205AE00AF102078DF8B7
:102AF00033309DF83130D90740F1498154F8049BB7
:102B0000B9F1000F07DA9DF8302042F004028DF889
:102B10003020C9F100095A0740F1428154F8048B72
:102B2000B8F1000F80F241819DF831306FF341031D
:102B30008DF831304FF0FF3837E12D2B0CD0302B92
:102B40007FF46DAF01225CE74FF0010C59E74FF0C5
:102B5000010E56E7012054E7012652E70CFB020262
:102B6000303A33461E4616F8010BA0F13007092F04
:102B7000F4D9994293D09DF830100D92D20F62F3A0
:102B800041018DF830108AE70B4600224FF00A0C05
:102B9000E8E79DF8312042F004028DF8312002333D
:102BA0001F4617F8012B6C2A41D025D8682A2BD054
:102BB0006A2A46D04C2A4CD01F4617F8012B9DF8A4
:102BC00031308DF83320782A00F2D980572A4DD839
:102BD000412A03D0453A022A00F2D1809DF83230D2
:102BE000042262F302038DF8323001239EE006FBDB
:102BF00001213039034664E7742A26D07A2ADBD1D2
:102C00009DF8313006220DE05A78682A9DF831206F
:102C100006D1012161F3C6028DF831209F1CCCE75B
:102C20001346022262F3C6038DF83130C5E75A78A5
:102C30006C2A9DF8312001D10421EBE713460322D1
:102C4000F0E79DF831300522ECE79DF8313007229E
:102C5000E8E7BDF8303023F4F04323F0020343F4F7
:102C6000804343F00203ADF83030A6E7A2F15801EB
:102C7000202900F2848001A050F821F0412D0000AD
:102C80007F2D00007F2D00007F2D00007F2D000094
:102C90007F2D00007F2D00007F2D00007F2D000084
:102CA000DD2B00007F2D0000412D0000012D0000D4
:102CB000DD2B0000DD2B0000DD2B00007F2D000050
:102CC000012D00007F2D00007F2D00007F2D0000D2
:102CD0007F2D0000492D0000412D0000652D0000D2
:102CE0007F2D00007F2D0000652D00007F2D00004E
:102CF000412D00007F2D00007F2D0000412D0000A0
:102D00009DF83210012003F0780360F30201402B9C
:102D10008DF8321002BF9DF8301041F001018DF89E
:102D20003010632A31D1003B18BF01239DF83020B9
:102D3000C2F340010B4363F341028DF83020D8E623
:102D40009DF832100220DEE79DF8322003F0780370
:102D5000A3F14000032161F3020243428DF83220C7
:102D60004341E3E79DF83220032113F0780F61F32C
:102D700002028DF8322014BF01230023D6E79DF80C
:102D8000303043F001038DF830300023CEE79DF959
:102D90003020002AB4BFDDF834904FF0FF39BAE696
:102DA0009B077FF5C7AEDDF838809DF83110002312
:102DB000CDE90D339DF8323003F00703012BC1F349
:102DC000C30138D1CB1E042B22D8DFE803F003095E
:102DD0000921210054F8043BDA17CDE90A3206E054
:102DE000073424F00704F4E80223CDE90A239DF810
:102DF000303013F0030656D002983B4652465946EF
:102E000017F05AFA0028C0F242810544BA46D9E5C3
:102E100054F8043B01294FEAE372CDE90A3205D1A7
:102E20009DF828300A9300230B93E0E70229DED1B6
:102E3000BDF92830D0E7022B23D1CB1E042B13D8A9
:102E4000DFE803F0030A0A12120022680A92002344
:102E5000201D0B930446CAE7E01D20F00700F0E8B0
:102E60000223CDE90A23F5E754F8043B0A9301292C
:102E70004FF000030B93D3D00229B8D1BDF828300E
:102E8000D0E7042B09D1E31D23F0070303F1080465
:102E9000D3E90023CDE90A23A9E7032B04BF54F8A3
:102EA000043B0A93A3E79DF833007828AED8622844
:102EB00022D825283FF48FAD5828A7D10DF126033D
:102EC0000093DDE90A0104AB0CAA17F0AFF98246C2
:102ED000B8F1000F0DF126000CDB9DF83020A0EBBF
:102EE0000A036FF3861298458DF8302002D9A8EBBB
:102EF00003030D9380463DE06338152886D801A270
:102F000052F820F0852F0000E92F00000D2E000060
:102F10000D2E00000D2E00000D2E0000E92F0000E8
:102F20000D2E00000D2E00000D2E00000D2E0000B5
:102F30004330000011300000153000000D2E00005D
:102F40000D2E00005D2F00000D2E0000113000003E
:102F50000D2E00000D2E000011300000B8F1000F02
:102F6000DDF828A00ADB4146504617F00EFA0AEBBE
:102F700000080026BAF1000F0CD147E7504617F0C1
:102F8000FDF9F4E70A9B8DF8103000260DF1100AC8
:102F90000DF11108A8EB0A0306B101339DF83220A8
:102FA000D00668D5023352060D9948BF0E9A0B44DD
:102FB00048BF9B18B9F1000F76DD9DF83020A9EBD2
:102FC0000309C2F38003039353076DD4500661D500
:102FD00046B1029B594630469847002857DB039B71
:102FE00001351E46302356E01E070FD413F010069D
:102FF00018BF2026DDE90A23002BBFF65FAF52423F
:1030000063EB4303CDE90A232D2657E72B26F1E78F
:10301000002653E70A9840B30DF1260300930CAA4B
:1030200004AB002117F002F9BDF8323003F0EF03D2
:1030300043F4F04343F010038246ADF832300026EB
:1030400046E70A9B07293FF6E1AEDFE801F00C04F2
:10305000060C08080C0C1D70D8E61D80D6E6EA1791
:10306000C3E90052D2E61D60D0E6DFF8C8A00646EC
:103070000AF105088EE7110748BF013393E71846A8
:1030800003935946029B98470028039B04DA11B02A
:10309000BDE8F08F20234D444A46002AA5EB0901E4
:1030A00009F1FF39EBDC0D4636B1029B594630463B
:1030B00098470028EBDB01359DF83230D90601D462
:1030C0001A0706D5029B5946302098470028DEDBB8
:1030D00001359DF83230DB0607D59DF83300029BA1
:1030E000594698470028D2DB01350D9E2E44731BAC
:1030F000002B16DC029843465246594617F0DCF87E
:103100000028C4DB0544A944A9EB0503002B7FF785
:103110007DAE029B5946202098470028B7DB013539
:10312000F2E7029B5946302098470028AFDB013573
:10313000DDE700BF98CD01004306F0B519D00E4A77
:103140000E4B0F499B1A9B104B4300249C4201D10C
:103150000020F0BD156A177F0021043DCEB2B742B2
:1031600002D801342432F1E7013115F8316086428A
:10317000F4D10120EDE700BF74060020980600207E
:10318000398EE338F0B5104B104C114D1B1B9B10C2
:103190006B43104DD5F824C000259D4202D16FF03D
:1031A0008500F0BD676867450AD3266946B197F880
:1031B00002E00779BE4503D13346BDE8F040184729
:1031C00001352434E9E700BF98060020740600208A
:1031D000398EE338000D00202DE9F047174D184CCB
:1031E000184BDFF864A0641BA41006460F469046F7
:1031F0005C434FF000094C4503D16FF08500BDE8FA
:10320000F0876A68DAF824309A4212D3AB6983B146
:1032100090783179884205D1424639463046BDE83A
:10322000F04718475279012A03D1424639463046C1
:10323000984709F101092435DDE700BF7406002035
:1032400098060020398EE338000D00202DE9F84360
:103250000E4D0F4C0F4B641BA41006460F469046B4
:103260005C434FF000094C4502D16FF085000BE044
:103270006B691BB909F101092435F4E74246394667
:10328000304698470028F5D1BDE8F8837406002041
:1032900098060020398EE33807B583788DF8003022
:1032A0000379427943EA0223ADF80230C3786846D5
:1032B00003F003038DF8043012F0DCFC10F1780FFA
:1032C00004D018B1002003B05DF804FB9DF80000A5
:1032D00012F056FD10F1780F01D00028F2D1024B08
:1032E000012083F8B900EEE7000D00200248082213
:1032F000002117F07BB800BFBB0D0020094808B5BE
:103300000378C3F341130A3350F823303BB100F183
:10331000080200F110019847C043C00F08BD1846CD
:10332000FCE700BF000D00202DE9F14F284B294C90
:10333000E41A294BA410042805460E4603FB04F4A6
:103340001CD1FFF7D3FFDFF8949099F8B930BBB1E7
:1033500000F0A4FD042D13D11D4F4FF0000844458B
:1033600025D0D7F820B04FF0000A3A7F5FFA8AF3F1
:103370009A4213D808F101082437F0E70528E2D073
:10338000134F4FF00008A04515D1144B1B6AE3B151
:103390003146284601B0BDE8F04F18470BEBC30398
:1033A0000AF1010A187912F015FD0028DDDA002370
:1033B00089F8B930E4E7FB681BB132462946384644
:1033C000984708F101082437DDE701B0BDE8F08F28
:1033D0007406002098060020398EE338000D002086
:1033E0002DE9F3479A4EB36905460F4690465BB9FF
:1033F000287800F01F03012B7AD0022B00F0E48024
:103400003BB16FF015008DE098470028F0D1002007
:1034100088E095F900206878002A2BDA0628D8F889
:10342000002009D008281FD00028EAD101235070BD
:10343000137002233B6075E069880A0A101F012897
:10344000DFD9072ADDD8CCB2716A18460B78002B79
:10345000D7D04D78954203D1844200F01C810130D1
:103460001944F3E70B781CE196F8BA1011700122A9
:103470003A60CCE7052818D00928C2D16C8844B13D
:103480004FF0FF08776A1846C1463C789CB900287F
:10349000B7D0FFF72BFF6B8886F8BA30F369002BA3
:1034A000B5D06C4903209847B1E7A87812F0D0FB5B
:1034B0000028ACD0A5E77B78042B0CD0052B0DD0D1
:1034C000022B05D197F805806A88424508BF012084
:1034D0003B781F44D9E797F80390F9E76B88434599
:1034E000F6D1B9F1000FF3D13846FFF7D5FEEFE77B
:1034F00096F8BA30002B84D0746AB5F804C02879E5
:1035000023461A78002A3FF47CAF5978022904D167
:1035100093F804E0864500F2C6801344F1E710708A
:103520005070396002B0BDE8F0870C44C9E00B2848
:103530007FF467AF00274FF0FF0AD046B94606E098
:103540006378042B0FD0052B22D023781C442378DA
:10355000002BF5D1F36913B1494607209847002F96
:103560007FF455AF4DE794F802A0AA8894F8038041
:1035700092455346E9D1698888451FFA88F2E4D11B
:10358000072B1ED83344A14683F8BB200127DCE774
:10359000AB885345D9D1AB7843450DD0A778384691
:1035A00000F05EFC384612F015FC10F1780FEDD0FB
:1035B000B0FA80F77F09C8E72046FFF76DFE07469F
:1035C000C3E7A1460027C0E795F900206B78002AE1
:1035D00019DA002B7FF415AF2C792046FFF7ACFDEC
:1035E00000283FF40EAF610604D096F8BA30002BE5
:1035F0003FF407AFD8F800502046294612F0A4FB4C
:103600000020687015E7012B26D0032B7FF4F9AE5C
:103610006B88002B7FF4F5AE2C798DF8074020469F
:10362000FFF78AFD00283FF4ECAE630604D096F85D
:10363000BA30002B3FF4E5AE204612F03DFBF369B3
:10364000002B3FF4E4AE0DF1070108202BE700BF8B
:10365000000D0020BA0D00206B88002B7FF4D1AE46
:103660002C798DF807402046FFF766FD00283FF4CF
:10367000C8AE620604D096F8BA30002B3FF4C1AE53
:10368000204612F041FBF369002B3FF4C0AE0DF170
:103690000701092007E7022AC8F800107FF4E2AE0C
:1036A0004B883B60B3E695F900306878002BBFF695
:1036B0003EAFD8F8002000283FF431AF0A287FF44D
:1036C000A0AE217800293FF49CAE6378042B7FF4F0
:1036D0002CAFA3789C457FF428AF072B96BF9B198E
:1036E000002393F8BB3013700123DAE713B5134CB2
:1036F000237DC3B9E268A168019201AB802016F076
:10370000F2FD0199A268E3680A445B1AA260E360D3
:103710003BB92369E2889A4203DD9B0601D101236C
:10372000237502B010BD00231A4619468020237568
:1037300002B0BDE8104012F073BB00BF000D0020C6
:1037400030B585B0002302460D46019300285FD1B5
:1037500000293CD108220B460DEB020116F08CFF2C
:10376000002804DA802012F0A7FA05B030BD2D4CF5
:103770009DF809309DF808206370BDF80A30638019
:10378000BDF80C302270A38004F13801BDF80E3072
:10379000E3801206C4E90355A16025750AD4802B85
:1037A00004D9802012F088FA0020DCE713B1C4E9C4
:1037B0000333DAE7FFF7A2FD0028D3D0E2882369BC
:1037C0009A42D4BFE260E360FFF790FFCDE7154C6B
:1037D000D4E90215002D01AB04DC16F04DFF0028E2
:1037E000C3DABFE72A4616F047FF0028D9DB019964
:1037F000A268E3680A445B1AA260E360002BB4D1BC
:1038000004F13803A360FFF779FD0028DCD1A9E7B4
:103810008028AAD1034BDA68002AD5D11B7D002B62
:10382000D2D1A2E7000D0020054B064A9A62064A53
:10383000DA62064A1A63064A58629A6100207047A3
:10384000000D0020E1330000853100004D32000002
:10385000D9310000074B10B593F8B84024B900F0F7
:10386000B3F918B1FFF7E0FF002010BD4FF0FF30B3
:10387000FBE700BF000D00202DE9F7430446384D5B
:1038800038484FF0FF324FF0FF3315F0C5F895F888
:10389000B860002E41D134482C62E86112F0D6FBAA
:1038A00012F098F9041E39DB00F04CFB041E35DBE6
:1038B00040236846ADF802308DF804608DF8006052
:1038C00012F0D8F9041E29DB802768468DF80070B5
:1038D00012F0D0F9041E21DB2449304612F0A2FB7D
:1038E000041E1BDB2149384612F09CFB041E15DB2D
:1038F0001F4F204C204BE41BA4105C43B44214D156
:10390000002012F03DFA041E08DB802012F038FA85
:10391000041E03DB012385F8B8300024114815F09C
:10392000F3F8204603B0BDE8F083D7F820904FF0BD
:1039300000083A7F5FFA88F39A4202D801362437AA
:10394000DCE709EBC30259F83310107912F06AFB77
:1039500008F101080028ECD04FF0FF34DEE700BF8B
:10396000000D0020F804002029330000413700003A
:103970007406002098060020398EE33830B51E4BBF
:103980008BB005AA03F1100518685968144603C4E2
:103990000833AB422246F7D11B7823701022002156
:1039A00001A816F023FD12220021144816F01EFD76
:1039B000102101A816F089FF00281ADD083801AA95
:1039C0000E490028A8BF1218002012F8013B0AACCB
:1039D00004EB131403F00F0314F8144C0C700AAC2E
:1039E0002344013013F8143C4B70082801F1020104
:1039F000EBD102480BB030BD9ECD01004C31002010
:103A00002DE9F04F6B4A6C4B9B1A6C4A87B09B10A8
:103A100053430446019300254FF0011BA9462E464F
:103A2000AA46207820B9664B02349C4217D0F2E7B0
:103A30006378052B05D8DFE803F083040383072BA5
:103A4000A24623781C44ECE7E378002BF9D1A37855
:103A50009BB9584A0199994204D14FF0FF3007B001
:103A6000BDE8F08F51688C4202F124020AD1514A1C
:103A7000242606FB0326B36833B909F101095FFA6E
:103A800089F9DEE70133E5E7494620469847F4E740
:103A9000002EE2D000230121327F9342DDD2326A30
:103AA000A77802EBC3021079874201D00133F3E714
:103AB0000127E07894F805C000F003008DF81400A9
:103AC000207940EA0C20ADF8120094F90200002899
:103AD0005FFA87F828DA07F1100001FA00F010EA1F
:103AE0000B0F29D168F07F008DF8100004A8CDE9F4
:103AF000023216F0A9FDDDE902320121E0B99DF89C
:103B00001030A37013F0800F1CBF08F110085FFA8B
:103B100088F813710B4615BF01FA08F8BB404BEA51
:103B2000080B4BEA030B8CE701FA07F010EA0B0FC6
:103B300002D18DF81080D9E70137102FB9D1B5E740
:103B4000032D1DD1FFF71AFF074668B116F016FCCA
:103B5000804648B11B4816F011FC804504D142460E
:103B60003946A01C16F037FC23786FF00201E218EA
:103B7000091B04EB5303D14213D50135EDB260E7C5
:103B8000002DF1D1BAF1000F3FF467AFA4EB0A03A7
:103B90008AF80230C3F307238AF803308AF80490C6
:103BA000EBE74FF0000002F8010C13F8010902F8EE
:103BB000020DE0E77406002098060020398EE338F5
:103BC000740600209ECD010008B50448FFF718FFD9
:103BD0000028024818BF002008BD00BFFC050020D7
:103BE00010B5094B00211A461C78844205D15C6847
:103BF0001CB1482000FB012010BD0131042903F154
:103C00004803F1D10020F7E7C40D00202DE9F3416E
:103C100050F8303C10F8346C1033044610D103696E
:103C200050F8282C99073CD502BB13F0040304D1AB
:103C30001A461946304616F056FB002344F8303C2D
:103C400054F8303C10330ED054F8205C5DB154F879
:103C5000247C54F81C8C17F0E7F900284CD02E482F
:103C6000214617F04CFB02B0BDE8F08150F82C1C47
:103C700001AB304616F037FB10B16FF01503DDE7EE
:103C8000019A54F82C3C134444F82C3C54F8283C3A
:103C90009B1A44F8283C54F8243C134444F8243C30
:103CA000CEE750F82C1C01AB304612F031F9002859
:103CB000E3D1019D54F82C3C2B4444F82C3C54F89F
:103CC000283C5B1B44F8283C54F8243C2B4444F823
:103CD000243C002DB1D0304612F0BEF9B5FBF0F314
:103CE00003FB1055002DA8D154F8283C002BA4D07C
:103CF000304612F055F9A3E744F8200CA4F118005F
:103D000014F078FF54F8303C8C33ACD0424639463E
:103D10003046A847A7E700BF580C00204B1E012BD8
:103D200073B506460D460FD8FFF75AFF044668B92B
:103D3000012D09D101AB01220DF10301304612F032
:103D4000E7F8019B002BF5D102B070BD17F06CF9BC
:103D500004F1340108B1012D05D1084602B0BDE8D7
:103D60007040FFF753BF034802B0BDE8704017F042
:103D7000C6BA00BF580C00202DE9F74F0646019146
:103D80001546984616F0CCFA044600285FD14FF04D
:103D90002003EFF3118A83F31288BFF36F8FDFF8EC
:103DA000B4B04FF0480909FB04F70022002358463D
:103DB00014F046FF68B9DFF8A09009EB07046368C8
:103DC00013F1100F14D10193584614F013FF019B07
:103DD00006E00134042C0BF1480BE4D16FF00B0327
:103DE0008AF31188BFF36F8F184603B0BDE8F08FD8
:103DF000019B2061C4E902350C9B63610D9BA361AB
:103E00006FF00F0309F80760C4F844806360304620
:103E100012F022F958B1304612F01EF9B5FBF0F25B
:103E200002FB10551DB1636C43F00403636418F08A
:103E3000020F07D03437094809EB070117F05FFA82
:103E40000023CDE7304612F0ABF80346C8E76FF029
:103E50000F03C9E7E00D0020C40D0020580C00201E
:103E600010B54FF02003EFF3118483F31288BFF3F2
:103E70006F8FFFF7B5FE50B14368103307D16FF075
:103E80008B03436000F13401034817F038FA84F3E0
:103E90001188BFF36F8F10BD580C00202DE9F04141
:103EA000104CDFF8448004256FF08B074FF020039F
:103EB000EFF3118683F31288BFF36F8F63681033BB
:103EC00005D104F134014046676017F018FA86F313
:103ED0001188BFF36F8F013D04F14804E6D1BDE8BE
:103EE000F08100BFC40D0020580C0020F0B504463E
:103EF0008BB00D4616461F460122002104A817F07C
:103F000075F903AB01930E4B009332463B462946AD
:103F10002046FFF731FF88B940F6CD42002304A8C0
:103F200014F08EFE48B12046FFF75AFE10B14368E8
:103F30001033F1D06FF08B0000E003980BB0F0BDB0
:103F400017A3010070B50A4C0A4E002531462046E1
:103F500017F0CCF90122A4F118001146013517F031
:103F600045F9042D04F14804F0D1002070BD00BFD4
:103F7000F80D00200D3C0000014B9970704700BF08
:103F80001706002007B500290EDD0E4B01910093A6
:103F90004FF0FF324FF0FF33062000F003FD0146E3
:103FA00068B1094816F0FCFA002301930748084B52
:103FB00000930449007901234022FFF7DDFE03B09E
:103FC0005DF804FB5F3100203C0500201400002058
:103FD000853F0000013910B505291CD8DFE801F044
:103FE000161B030F1C20144B1A78A2B9012119705B
:103FF000124BBDE8104018791146FFF7C3BF0F4CB4
:10400000207BFFF72DFF2079FFF72AFF0C4A0023C2
:104010001370094A137010BD094B01221A70FAE798
:10402000074B1A78002AF6D000221A70024B1B7830
:10403000002BF0D0DCE700BF5E3100201400002030
:104040009F31002070B50A4E0A4D4FF0FF324FF0FD
:10405000FF33304616F086FA0223828981680446CF
:10406000287BFFF743FF204611F028FAEDE700BF59
:10407000540500201400002038B5084D4FF0FF32E1
:104080004FF0FF33284616F06DFA044600F0E6FCC8
:104090000028F3D0204611F011FAEFE73C0500208C
:1040A000F0B5184889B000F0DFFC044638BB0026A4
:1040B00000276FF00705CDE90205CDE90000049067
:1040C000CDE90667104B114911484FF4007214F006
:1040D00005FC10490E4816F0ADFF0F4B0F49009438
:1040E000CDE90667CDE90354CDE901444FF40072F0
:1040F0000B4814F0F3FB0B49094816F09BFF2046D0
:1041000009B0F0BD540500207940000020360020A1
:1041100098060020AFCD0100454000004038002047
:1041200018070020BCCD0100F8B505464FF020036C
:10413000EFF3118683F31288BFF36F8F094B1C686E
:104140005CB1094FD4E90132002D08BF13460BB111
:10415000387898472468002CF4D186F31188BFF38F
:104160006F8FF8BDE40E0020EC0E00201FB50F4B42
:104170001A68BAB901221A600D4A07CA01AB83E86E
:1041800007000C4A4AB193E8070016F04EF90020E8
:1041900005B05DF804EBFFF7C7BF82F31188BFF3EA
:1041A0006F8FF4E705B05DF804FB00BF240000202A
:1041B000EC0E00202BA40100F0B589B06E4601463C
:1041C0000546304616F0BAF896E80700174C84E822
:1041D00007002078274638B3154B002119606B1C67
:1041E0000DD0144816464FF4004C134A0023E6FB4A
:1041F0000C01FBF785FF0121281A17F0CFF914F005
:1042000007FF0120FFF790FF97E8070005AB83E861
:1042100007000A4A1AB193E8070016F0F3F8FFF70F
:10422000A5FF15F0C3F8207809B0F0BDEC0E002012
:10423000240000203F420F0040420F0005A401006F
:10424000014910220A60704710ED00E072B640404C
:1042500080F31188BFF36F8FBFF34F8F30BF62B60B
:10426000BFF36F8F704700BF72B6494081F311886A
:1042700020BF80F3118862B6704700BF43B2002BA5
:1042800008DB012200F01F0002FA00F05B09024A7D
:1042900042F82300704700BF00E100E043B2002B6A
:1042A0000DDB01225B0900F01F0002FA00F0203351
:1042B000034A42F82300BFF34F8FBFF36F8F70475D
:1042C00000E100E0054B420900F01F0053F82220F6
:1042D000012303FA00F01040704700BF00E100E046
:1042E00043B2002BA8BF03F1604301F10101B8BF45
:1042F000064B4FEA4111ACBF03F5614300F00F00DC
:10430000C9B2B4BF195483F80013704714ED00E02C
:1043100008B572B6044B986918B100229A6116F07C
:104320008EFE62B608BD00BF0431002030BFFFF72B
:10433000FDBF00BF0F4A08B50F4B22F07F029A6005
:10434000BFF34F8FBFF36F8FD3F8882022F4700232
:10435000C3F88820EFF3148323F0040383F3148855
:10436000BFF36F8F14F0AAF915F064F900F0CAF9E1
:1043700014F0AEF90000000000ED00E0094A0A491F
:1043800093680968D967094998674B6843F0805377
:104390004B60002383F31188BFF36F8F9368D86F4E
:1043A000704700BF043100203CCD010000ED00E06B
:1043B00012498A684FF030001044EFF3098C80E80E
:1043C000F01F202080F31288BFF36F8F0C4F4FF047
:1043D0000066CA698A603E60906F0023936780F32D
:1043E000118804B5104600F0CFF9BDE8044002F191
:1043F000300090E8F01F8CF30988704704310020EA
:1044000004ED00E01EF0040F0CBFEFF30880EFF3A3
:104410000980816911F8021C0229FFD001B515F04D
:1044200094FF01BD42F8203C009B42F81C3C0A4925
:10443000019B42F8183C029B42F8143C21F0010118
:104440004FF0807342F8043C42F8081C0023203AE5
:1044500002658367704700BFC39C0100094A034699
:10446000906870B113F1160F806E05D0A0F1200294
:104470009A4205D8834203D2814228BF0020704768
:10448000002070470431002008B5094B98600D46A4
:10449000144600F079F9204685F30988002163B6B7
:1044A00081F31188BFF36F8F0022002315F009FC00
:1044B0000431002001B572B60B4A906900281EBF76
:1044C0000021916116F0BBFD62B6EFF30580A0F10B
:1044D00010004FEAC0000549014409C99847BDE8EA
:1044E00001400349084700000431002004BA0100DC
:1044F000F5440000044B9968D869884203D0034909
:104500004FF080520A6070470431002004ED00E053
:1045100038B5194B14469A6A9A6A9A6A0546900702
:1045200019D5586B9A6A120615D519B19A6A22F0F4
:1045300080029A629A6A9A6A9A6AD1060ED49B6A33
:104540009A070BD400200C4A936A43F0FF0393624E
:104550000023237038BD6FF01500EBE7064B5B6856
:104560001B05EFD52946FFF779FF0028EAD080F335
:1045700009880220E7E700BF00ED00E00D4B9A6AD2
:104580009A6A9A6A920508D59A6B9A6A120404D5B7
:1045900018B19A6A22F400429A62064B9A6A9A6AA1
:1045A000D20558BF9A6A9A6A002042F47F429A6202
:1045B0000870704700ED00E070B5484B5B688AB04A
:1045C0000D46C3F30803002686F31188BFF36F8FEF
:1045D00002F07F41B1F17F4F11D102F00C010829A7
:1045E0000DD0110701D4054601260022033B8DF8AA
:1045F0000720032B6BD8DFE803F00455595D3546DF
:10460000F3E7364BDC6A14F0020460D1DA6A002A60
:1046100015DBDA6A520012D5AA6932F8021C4DF68F
:10462000027291420AD093F828200AB30DF10702D2
:1046300001212846FFF76CFF044600E02C689DF836
:1046400007309BB92022294602A815F0C4FE099B19
:10465000002E3ED0C3F3080222B96FEA53236FEA5B
:104660004323099302A9204615F06DFE0AB070BDE0
:1046700093F829202AB10DF107010120FFF77EFFF1
:10468000DAE75A8D92B2002AD9D09A6A9A6A9A6A5F
:104690009A6A9A6A9A6A9A6A6FEA02426FEA1242C0
:1046A0009A62CCE70DF107020021C2E70DF1070184
:1046B0000020E3E7094B9A6A9A6A9A6A9A6A9A6AA8
:1046C0009A6A9A6A6FEA02426FEA12429A62002478
:1046D000B5E723F4FF7323F00103C2E700ED00E028
:1046E000024A536943F010035361704700ED00E044
:1046F000EFF30880EFF3098101B57246FFF75CFF25
:1047000001BD00BF044800232021C2180133302B13
:1047100082F80013F9D1704700E100E017F0D4F8F7
:10472000202080F3118808484FF40261401880F37C
:104730000988EFF314800221084380F31488BFF343
:104740006F8FFFF7F7FD000000480020064B9B68C5
:10475000834207D1EFF3058323B1044A536843F042
:104760008053536014F002BF0431002000ED00E0DC
:10477000024B034A0348012100F06EB800000420F8
:1047800000000020D8BB0100826E054B203A1A6061
:10479000044A2021C3E901121846012100F066B83D
:1047A000F80E002000000B15F0B51F4F00268E42BA
:1047B00001DB1046F0BD44689CB353B104F1FF3CEB
:1047C00014EA0C0F18D11F2C16D905681CEA050F26
:1047D00012D1202C0568D0F808C0D2B20FD9B4F19C
:1047E000004F0ED8013CB4FA84F4C4F11F046400F5
:1047F000072A4CEA040406D96FF01502D9E7082409
:10480000F6E73E24F4E725F01F05154345F01005B3
:1048100044F00104C7F89820C7F89C500132C7F84B
:10482000A04001360C30C2E700ED00E0044B052249
:10483000C3F89420BFF34F8FBFF36F8F704700BF53
:1048400000ED00E0BFF35F8F024B0022C3F894201D
:10485000704700BF00ED00E010B5034C0123227843
:10486000FFF7A2FF207010BDA031002008B5094A53
:1048700000231278FFF798FF10F1160F02D0064AB6
:10488000072800DD08BDC2F89800C2F8A03001304A
:10489000F6E700BFA031002000ED00E014490868F1
:1048A000082810B521D8FFF7CDFF124C4968002227
:1048B000904201F10C0105D10F4B1870FFF7B6FFC4
:1048C000002010BDC4F8982051F80C3C23F01F03C1
:1048D000134343F01003C4F89C3051F8043C43F0F8
:1048E0000103C4F8A0300132E2E74FF0FF30E8E7FF
:1048F000E4BB010000ED00E0A0310020014B186096
:10490000704700BF280000204FF02003EFF3118212
:1049100083F31288BFF36F8F06490123C1F8403536
:104920004FF08041C1F8783582F31188BFF36F8F63
:104930000020704700E0014020B1034B800143F0AC
:1049400001031847704700BFD0BB0100074A034668
:10495000106828B9D96831B1196921B1136070475D
:104960006FF0770070476FF015007047040F00205C
:10497000052870B5054611D8012606FA00F414F092
:104980002A0409D0064815F0E8FD044620B1314656
:10499000083015F001FE2575204670BD0024FBE7A8
:1049A000D40500202DE9F0410228DDE90667044620
:1049B00029D0062802D040B300251EE0144909780A
:1049C0000129F9D13478012C1AD0022CF4D11148E4
:1049D0000136013F15F0C1FD05460028ECD000F17D
:1049E00008080121404615F0D7FD2C752EB127B1DE
:1049F0003A463146404615F0F6FD2846BDE8F081BE
:104A000005480024E4E70348E4E70348E2E700BF81
:104A1000BC04002084050020AC05002010B50D4B1F
:104A20001B78012B04460CD1037D012B04D0032BF2
:104A30000ED06FF0150010BD042104F1080015F030
:104A4000DBFD054B2146186815F0AAFD0020F2E7B2
:104A50000221F2E7BC040020080F0020014B1B6874
:104A60001B691847040F0020044B054A1B6810609F
:104A70000BB1DB6818476FF012007047040F00207D
:104A8000080F00202DE9F0411646C21D22F0030256
:104A9000751E0F46ADB2186082B004461680002124
:104AA000042207FB050015F0A1FCBDB1023EB6B221
:104AB00006FB077306FB07F81C44A8EB0308002558
:104AC000042204EB08000DEB0201019415F083FCB5
:104AD000B542A4EB070405F10105F1D102B0BDE830
:104AE000F08100BF70B5056882B095B1EB1D23F071
:104AF00003030422044629460DEB02001E8815F02C
:104B00006AFC019B23B1DA1D22F00302013E1680EC
:104B10002360284602B070BD0B6870B50C46054690
:104B200083B1073323F003031E880136B6B2042293
:104B30002146284615F04FFCEB1D23F003031E8091
:104B4000256070BD0126F2E702FB0100704700BF3F
:104B5000401A80B2B0FBF2F0704700BF531E114400
:104B60009BB242B1DB430138CA1811F8013D00F88D
:104B7000013F9142F9D17047014402E010F8013B36
:104B80001BB98842FAD1002070470120704700BF4E
:104B900010600860704700BF0A68034600689042D2
:104BA00005BF00220A6000201A607047D2F800C0DA
:104BB000CCF80000D2F800C0CCF8041010607047A8
:104BC000884203D01AB143681360704700207047D1
:104BD0000B68834209D02AB1586810601A680A60CD
:104BE00018467047002BF9D1FAE70023F8E700BF19
:104BF0002DE9F041DFF830800C4E0C2706F130042F
:104C00004546221D214628460C3CFFF7C1FFB44211
:104C1000A5F10805F5D1043F3B1DA8F12008A4F13A
:104C20003006EBD1BDE8F081840F00201410002085
:104C300010B40346154C8C4692B100EB40010CEBCE
:104C40004C00000100EB81012144487A0C7AA0421B
:104C500004BF0130087210BC6146184610F060B9FC
:104C600001EB4102120100EB400302EB83032344FA
:104C70009C7ADA7AA24201D010BC704701329A7253
:104C8000034B01225A5410BC10F0A0B9900F002021
:104C90008C0F002070B506461C460D4622B32278C4
:104CA0006378D21A12F0030205D0012A40D00133F2
:104CB000DBB223700FE00133DBB230212370042319
:104CC00011FB05311B4A60680C2313FB06131A44C1
:104CD0002146FFF76BFF184B012230465A552946F3
:104CE00010F074F9002070BD10F05AF90028D6D0E9
:104CF0002946304610F034F90028D0D005EB4502A3
:104D000012010C4906EB460302EB83030B449A7A2B
:104D1000DB7A9A42C3D122786378D21A920702D002
:104D20000233DBB22370D4E902039847002070BD40
:104D3000104670BD900F00208C0F00204F4A135C6E
:104D4000002B00F099802DE9F04F00234C4F1354B5
:104D500087B01A464FF03C0BCDE901200BFB007BDE
:104D6000039300EB40030BF1040807EB03174FF02C
:104D700003090023D7E9090105AA0593FFF720FFDE
:104D800007F12406834698B3059C63782578ED1ACD
:104D900005F00305012D06D1013B6370D4E9020241
:104DA0009047059C63782078C31A03F00303012B16
:104DB0004FF0000231465FFA80FA0FD0B86AFFF771
:104DC00007FF94F801C02378C4F804B0A3EB0C03E8
:104DD00003F00303012B84F801A045D0D7E90901B2
:104DE00005AAFFF7EDFE012D83462BD00028CBD17D
:104DF00097F82E3097F82F209A4203D087F82F305B
:104E00000123019397F82C3097F82D209A4203D074
:104E100087F82D300123039309F1FF395FFA89F9EF
:104E2000B9F1FF0FA7F10C07A3D1DDE9013AC3B136
:104E3000039BB3B91A465146504607B0BDE8F04F40
:104E400010F06EB8B9F1000F01D10028D0D0DDF814
:104E500008A00A4A012302F80A305146504610F0D1
:104E6000B5F807B0BDE8F08F42462146584684F8B1
:104E700001C0FFF79BFEB1E7704700BF8C0F002019
:104E8000900F00204B1EDBB289B1411E00EB030CDA
:104E9000002011F8013F3BB15BB25A1E13400130B4
:104EA00013F0FF03C0B2F7D16145F2D17047084655
:104EB000704700BF2DE9F04FA44D83B0074603268D
:104EC0000124042138460CF0A7FE38684FF0000892
:104ED0004FEAD07E1E234FF0010AC346C1461AE0B6
:104EE00008F101010E2BC9B25FFA83FE40F29C80EB
:104EF000D2B39646CC461C2B40F2A5801B2B40F229
:104F0000128119293BD088469246BCF10C0FE1462C
:104F100035D0013B3BD320FA03F202F00102724587
:104F2000DED10AF10102072BD2B240F2E080062A5C
:104F300040F2D780BEF1000F54D004FA03F220EA09
:104F40000200CC464FF0000E08F101010E2BC9B251
:104F500088BF0122D5D8E14500F0C08019290ED0C4
:104F600088464FF0010AD4E7CC460122052B40F2D7
:104F70008980062A4FF0000EBDD11929C3D1013313
:104F800004FA03F3BEF1000F40D05B42184080EA00
:104F9000050301930DF1040C0DF1080E00221CF81D
:104FA000013B3BB15BB2591E0B40013213F0FF03D2
:104FB000D2B2F7D1E645F2D1012A09D983B2B3EBD7
:104FC000104F4FEA104224D1C3B2B3EB106F20D17F
:104FD000013E16F0FF067FF474AF6FF00D0003B0D2
:104FE000BDE8F08F04FA03F210434146CC464FF07F
:104FF000010E8845A8D00E2B87D8E14589D14146BE
:105000000CF1010C5FFA8CFC52467AE7013B184325
:10501000BDE7C0F30721130A387000207970BA7019
:10502000FB7003B0BDE8F08F09F1010CBEF1070F72
:105030005FFA8CFC1DD912B9964601225BE7012963
:1050400007D096465DE700297FF458AFBEF1000F08
:1050500037D004FA03F2072B20EA020088BF4FF092
:10506000000EC6D80BF1FF3B5FFA8BFB4FF0000E32
:10507000BFE7002A3FF479AF0BF1010B5FFA8BFB1E
:1050800096463BE7BBF1000F0BD0042B3FF671AF08
:10509000BBF1010F05D9032B3FF66BAFBBF1020F3C
:1050A00009D804FA03F210430BF1010B5FFA8BFBF2
:1050B0004FF0010E9DE7062A0DD011B14FF0000E02
:1050C0001CE704FA03F2072B40EA020088BF4FF006
:1050D000010E8ED8E8E74FF0000E12E74FF0010AFC
:1050E0008EE7BEF1000F12D14146CC463EE7BEF13D
:1050F000000F1FD00BF1010B062A5FFA8BFB0BD9B7
:1051000004FA03F220EA02004146CC46AAE7062A46
:1051100018D14146CC46F6E6FBD04146CC46B8F124
:10512000000F96D0EAE601293FF6EBAEBEF1000F84
:10513000C7D08EE7062AD7D904FA03F210434146B6
:10514000CC46B1E74146CC46D5E600BFD6BE898EF7
:1051500030B5437F0568FF2B14D003EB43028B422D
:1051600005EB021228D04FF0000C01E099420BD061
:105170009E4613789468FF2B03EB4302A44405EB8F
:105180000212F3D1002030BD714518D01378906819
:105190000FFA8EFE0EEB4E0E4FEA0E1E05F80E3085
:1051A0001378FF2B06D003EB430305EB0315AB6825
:1051B0000344AB60604430BD9E464FF0000C137852
:1051C0004377E4E7A2EB010C1CF4000F10B48368F2
:1051D00044690AD12CF07F410B44A34214D91B1B14
:1051E000002110BC836041617047891A21F07F4122
:1051F0008B4206D82144C91A002310BC8360416148
:1052000070475B1AA342EAD8E11AF5E72DE9F04F9F
:1052100087B00346427A0190006802905868059072
:10522000002A00F0F680531EDBB200EBC3030F46EA
:105230000393039B5A685E780492FF2F5ED007EBBE
:105240004704029B4FEA041AB84613F80A7003EBAE
:1052500004140025019B4FF0FF0984F80090D3F857
:1052600000E05A7F0EEB0A0B4A45DBF808100FD11D
:10527000CAE0091A06D1BBF81EA0BCF81EC0E24560
:1052800000F286801EF80330FF2B914672D01A463A
:1052900002EB42030EEB031C1B01DCF80800884202
:1052A000E7D9B9F1FF0FCBF808108BF8002066D1D1
:1052B000019B83F81D80FF2A08D002EB42020EEB0F
:1052C000021EDEF808305B1ACEF80830A3780133EE
:1052D0006370002DB1D04FF00002EB6A2A700022FB
:1052E000AA6213B1296B104698476368002BA4D1BA
:1052F000D5E90B23FF2FC4E90823A0D1039B98789D
:10530000B0422FD0DDE903B906EB460306EB830379
:105310009BF8001019F823200136F6B2B14208BFFD
:105320000026042A09EB83051AD195F80180029919
:1053300008EB480201EB02144FEA021AA1786278E6
:10534000521A12F0FF0225D04FF0000209F8232074
:10535000EB6A0120A8620BB1296B98479BF8020009
:10536000B042D1D1039A05999142A2F1080350D0DD
:1053700003935EE7CBF808108BF800301A460FFA5B
:1053800089F909EB49094FEA09190EF8098092E7F2
:10539000014686E7AB8A01994FF6FE708342496960
:1053A0002AD04FF6FF729A1AB2FA82F2520984F8A2
:1053B0002C206A6AA262EA6862602A6922624FF659
:1053C000FD72934288BF0023A383AB69A361EB699D
:1053D000E3602B6A2361AB68A360002363616A68A2
:1053E00020469946FFF7EEFE4FF00103C4F82490E3
:1053F000A4F81E90E3702DE713466A6AA262EA6879
:1054000062602A692262DFE70EF80A2083F81D80B5
:105410005CE707B0BDE8F08F2DE9F04F827F8FB0D9
:1054200001230692C377002A59D1437FFF2B81467F
:1054300054D00EF047FFD9F8142099F81C3099F891
:105440001D60801AFF2B20F07F4B00F03F81D9F8C0
:1054500018305B4594BF002301230393FF2ED9F836
:1054600000704FF0000844D0CDF8109006EB4606CF
:1054700007EB06143601A3685B4538D894F802A000
:10548000BE5DABEB030B98446378A3EB0A03DBB27E
:10549000012B2AD1A069002853D0039B002B4BD0AD
:1054A000E38B0593A26A3AB113681BB1137A002B00
:1054B00000F0F38000231372059B94F82C10013345
:1054C0009BB2E38371B1A18B99420BD2002A00F009
:1054D0000081137A012B05D0012335E0C2770FB08C
:1054E000BDE8F08F0AF1FF33A370FF2EBED1DDF8C7
:1054F000109099F80B3099F80A209A420AD101329B
:10550000D2B2022A1CBF13460693069A89F80B20D2
:1055100008BF002309EB8303D9F82440C3F80C80AB
:10552000002289F81F204B46012204210320A446B3
:105530000FB0BDE8F04F604794F92D3007938033EA
:1055400043D1A26AEAB1002300201072E5685168D5
:1055500050600AF1FF3C84F802C0002DC5D0049AC7
:1055600060695269A8EB0000104420F07F40626A35
:10557000BBB123690193E37800934FF6FF73A8470B
:10558000B3E7E5680AF1FF33A370002DADD063697E
:10559000A8EB0300049B5B6911461844626A20F083
:1055A0007F40D4F810C0E38BCDF804C094F803C05A
:1055B000CDF800C0A847A369002B039B18BF0123A7
:1055C00003930023E383E3708FE7FF2EB9D0E28BD0
:1055D000A38BD4F804C005929A4228BFD21A02FBCA
:1055E0000CC108910799CDF828A0CDE90BB8521A43
:1055F000A1463346099200250D9664461BB203EB83
:10560000430307EB03121B01D2F808804544A8426C
:105610003CD39169002936D0D18B968BD2F804A067
:1056200092F92DE0B1428C4628BFA1EB060CBAF1ED
:10563000000F3FD0AAEB0808002C37D00AFB0C88DB
:10564000DDF820A0C2458CBF4FF001084FF00008E4
:1056500034BF4FF0010A4FF0000AB14292F803B094
:1056600099F803200FD3934529D81EF1800F26D037
:10567000099AACEB0E0C944502DDB8F1000F1ED078
:10568000079A724518D0FB5CFF2BB7D1DDE90BB848
:10569000DDF828A00D9E4C4653E7A38B05998B425D
:1056A0003FF608AF4FF00103137205E74FF0010812
:1056B000A246D2E7D046BFE7BAF1000FE3D0DDE95A
:1056C0000BB8DDF828A00D9E4C46EBE6069B039335
:1056D000C4E6E5680AF1FF33A370002D3FF405AF7F
:1056E0006369A8EB0300049B5B691844114620F032
:1056F0007F40626A3DE700BFC37F002B40F03584E6
:105700002DE9F04F827F8DB08346002A40F08C80D7
:10571000837AC17A01208BF81E009942DBF81400CD
:10572000079000F048840133DBB2022B08BF134618
:105730000BEB83028BF80A309BF81D30D26809937B
:10574000079B0392134423F07F439BF80920CBF877
:105750001430DBF800300093DBF804300593531E5F
:105760000692DBB2002A00F0D58101220B92059A45
:1057700002EBC30900230893FF230193CA46DAF81A
:1057800004809AF803C09AF80270674544D09AF8EA
:1057900000207B1C3EB2DBB29A4208BF002306EB1E
:1057A000460206EB82068AF8023018F82600042822
:1057B00008EB860442D9082842D86178009A01EBA8
:1057C000410502EB05156A7895F802E0A2EB0E029E
:1057D00012F0FF0234D0052841D0012A40F0188190
:1057E000062806D05846FFF7B3FCAB78A8606B706C
:1057F00061789BF81C308B4200F0D980002008F8BB
:105800002600E36AA0620BB1216B98479AF803C0A7
:105810009AF802706745BAD1059A5245AAF1080371
:1058200000F007819A46AAE7446A04210346012250
:105830000420A4460DB0BDE8F04F60471F46A4E722
:10584000002208F82620E26A0120A062002AF5D092
:10585000216B90479AF803C09AF8027095E7606848
:1058600048B9A06838B9E06828B9206918B96069F2
:1058700030F07F40E4D0012A40F0CA805846FFF75C
:1058800067FCDBF81430A860074602930EF01AFD9F
:10589000029BC21A039B22F07F42D1188F4281469D
:1058A00040F2AF806B6904937A1AD5F804C0BCF15A
:1058B000000F51D0A38A002B4ED0013B9FB29445DC
:1058C000EB8BA78223D20CF1010ECDF818800A943D
:1058D00018E0696ADFF828828A4C8844A04584BFB2
:1058E00001F1E87101F5D43170462C6A94BF60462D
:1058F00001F5A571013B121A091B9BB2944569621F
:10590000EB8301D29F42E4D3DDF818800A9C9F42CA
:1059100021D90CF10100D5E908E106900A9405E0CF
:1059200001339BB260469F42024411D07448754CCB
:1059300071440818A042F3D801330698A1F1E87128
:105940009BB2A1F5D4319F42A1F5A5710244EDD1DE
:105950000A9C6962EF83AF836168A068049B0A4474
:10596000AA60AA6A03446B611AB113680BB1091AE1
:1059700051604A4602992846FFF724FCE268AB6969
:105980001344226993428CBF9B1A0023AB61A37D11
:1059900003B1EB70E37D13B1013B85F82C30019B23
:1059A0002B706B786278019201336B7026E7FF23CE
:1059B0008BF81C3018F82630062B13D0082B11D08A
:1059C0000EF080FCDBF81420831A1D0210D4039A19
:1059D00023F07F431344DBF818209A4288BFCBF8AA
:1059E00018300BE76068DBF81420831A1D02EED52F
:1059F000131A039A23F07F43934234BFD31A002330
:105A0000E9E76B69DA1B531804936B6100224CE7DA
:105A100004215B460122DBF824400846A047059A92
:105A20008AF80270012352450893AAF108037FF413
:105A3000F9AE9BF81D30099A9B1A18BF01230693F3
:105A40000B9B002B6AD101995846FFF7DFFB9BF8AF
:105A50001D300093009B099A934200F07082089BCE
:105A6000002B00F0E3819BF81D300093009BFF2B7F
:105A700000F0CC82099BFF2B00F0DF82009ADBF85C
:105A80000030DFF88490DFF88480214F02EB42027F
:105A900003EB02130A259E680EF014FCDBF8144099
:105AA000031B23F07F430333B3422CBFE418A41934
:105AB00024F07F44DBF828308246204698470EF0D9
:105AC00001FCA0EB0A03A4EB0A0423F07F43033399
:105AD00024F07F44A34205F1FF3540F23782002DC8
