:10000000A031012065320000A164010039320000F6
:10001000393200003932000039320000000000009F
:100020000000000000000000000000004D2F000054
:100030003932000000000000F92E0000876B01003B
:10004000FD2F000091F90000FD2F0000FD2F0000A2
:10005000FD2F0000FD2F0000FD2F0000FD2F0000F0
:10006000FD2F0000FD2F0000FD2F0000FD2F0000E0
:10007000FD2F0000FD2F0000FD2F0000FD2F0000D0
:10008000FD2F0000FD2F0000FD2F0000FD2F0000C0
:10009000FD2F0000FD2F0000FD2F0000FD2F0000B0
:1000A000FD2F0000FD2F0000FD2F0000FD2F0000A0
:1000B000FD2F0000FD2F0000FD2F0000FD2F000090
:1000C000FD2F0000FD2F0000FD2F0000FD2F000080
:1000D000FD2F0000FD2F0000FD2F0000FD2F000070
:1000E000FD2F0000FD2F0000FD2F0000FD2F000060
:1000F000FD2F0000FD2F0000FD2F0000FD2F000050
:1001000053B94AB9002908BF00281CBF4FF0FF317E
:100110004FF0FF3000F074B9ADF1080C6DE904CE7A
:1001200000F006F8DDF804E0DDE9022304B07047D2
:100130002DE9F047089E0D4604468846002B4DD118
:100140008A42944668D9B2FA82F252B101FA02F3B5
:10015000C2F1200120FA01F10CFA02FC41EA030885
:1001600094404FEA1C45210CB8FBF5FE1FFA8CF7B2
:1001700005FB1E8341EA03430EFB07F199420BD9AD
:100180001CEB03030EF1FF3080F01E81994240F218
:100190001B81AEF1020E63445B1AA4B2B3FBF5F00F
:1001A00005FB103344EA034400FB07F7A7420AD9D2
:1001B0001CEB040400F1FF3380F00881A74240F2F9
:1001C000058164440238E41B40EA0E4000211EB160
:1001D000D4400023C6E90043BDE8F0878B4208D92C
:1001E000002E00F0EE800021C6E900050846BDE8BB
:1001F000F087B3FA83F100294AD1AB4202D382429D
:1002000000F2F980841A65EB030301209846002E62
:10021000E2D0C6E90048DFE702B9FFDEB2FA82F2B7
:10022000002A40F09180A1EB0C054FEA1C471FFA11
:100230008CFE0121B5FBF7F307FB1350250C45EAB3
:1002400000450EFB03F0A84208D91CEB050503F19D
:10025000FF3802D2A84200F2CB8043462D1AA4B246
:10026000B5FBF7F007FB105544EA05440EFB00FE12
:10027000A64508D91CEB040400F1FF3502D2A645BF
:1002800000F2BB802846A4EB0E0440EA03409EE740
:10029000C1F120078B4022FA07FC4CEA030C20FA3C
:1002A00007F405FA01F31C43FD404FEA1C4900FA2C
:1002B00001F3B5FBF9F8200C1FFA8CFE09FB185569
:1002C00040EA054508FB0EF0A84202FA01F20BD9FC
:1002D0001CEB050508F1FF3A80F08880A84240F247
:1002E0008580A8F1020865442D1AA4B2B5FBF9F087
:1002F00009FB105544EA054500FB0EFEAE4508D942
:100300001CEB050500F1FF346CD2AE456AD902380A
:10031000654440EA0840A0FB0294A5EB0E05A54207
:10032000C846A64656D353D05EB1B3EB080265EB80
:100330000E0505FA07F722FA01F3CD401F43C6E97F
:1003400000750021BDE8F087C2F1200320FA03F117
:100350000CFA02FC25FA03F395400D434FEA1C47C3
:100360001FFA8CFEB3FBF7F107FB11302B0C43EAAD
:10037000004301FB0EF0984204FA02F408D91CEB8A
:10038000030301F1FF382FD298422DD9023963447B
:100390001B1AADB2B3FBF7F007FB103345EA034578
:1003A00000FB0EF3AB4208D91CEB050500F1FF384A
:1003B00016D2AB4214D902386544ED1A40EA014125
:1003C00038E73146304607E78646E5E61846FAE65E
:1003D0004B45A9D2B9EB020864EB0C0E0138A3E738
:1003E0004046EAE7204694E74146D1E7D0467BE71E
:1003F000023B654432E7084609E76444023842E7B5
:10040000704700BF000000002DE9F041D0E90B3536
:10041000866A5C193034A6428846174618D81C4DA7
:10042000A3FB050118A3D3E90023FFF769FEA41B72
:1004300020F07F40C8F8000013A3D3E90023A4FBF9
:100440000501FFF75DFE20F07F403860BDE8F081D8
:100450000F4C0DA3D3E90023A6FB0401FFF750FEC8
:1004600005F1300120F07F40C8F8000006A3D3E971
:100470000023A1FB0401FFF743FE20F07F4038601A
:10048000BDE8F081AFF300808D49FD1A0700000040
:1004900000CA9A3B0000000000284FD02DE9F04F21
:1004A0006D4C94F86A5015F0010591B040F0C08091
:1004B00094F82500FF2300F0030084F826300EF0A6
:1004C000FBFD94F86A00420729D494F8292094F897
:1004D000353004EB820204EB8303D76AD3F83890FB
:1004E00087B15D48394608F0C3F93B785B0605D50E
:1004F000062103F0DFF8002800F00982564849463B
:1005000008F0B6F93B7813F00E0F19D1236A002BCF
:1005100000F0AE800C25284611B0BDE8F08F2A46C9
:1005200004F16B01C0F3C0000EF03CFFFF2884F81B
:100530002600CAD028460EF005FEC6E707F000BF29
:1005400094F824300121C3F342030CA88DF8303015
:1005500003F036FA002870D099F8011002463846A8
:1005600007F07EFF3D49E46131230026A360A0FB34
:10057000010137A3D3E90023C4E90566267066604C
:10058000E660FFF7BDFDB4F86890206104F0D2FC8E
:100590008046B9F1000F07D13E7806F00F06A6F1AC
:1005A0000106B6FA86F6760994F8240066F3000090
:1005B00010F0010684F8240040F078812369284A6D
:1005C0002848049303F24713A9FB000106940296FE
:1005D0001360912303FB0911234B0793234B0593CE
:1005E0004FF6FF7309924FF0020903930EAF18A361
:1005F000D3E90023CDF838900897FFF781FD4346F3
:10060000CDE900604A463046032104F013FB394629
:1006100007F048FB88B994F86A3043F0010384F886
:100620006A3008F00DFB18B901200EF027FD72E7C3
:100630000025284611B0BDE8F08F236A002B3FF457
:1006400069AF07F051FE0C2565E700BFAFF30080EE
:100650008D49FD1A070000000447002000CA9A3B9C
:100660007C470020002AE78485700000DD840000BC
:1006700007F094FA8246002800F0518107F09AFAB8
:100680008346002800F0488109F09AF906460028C0
:1006900000F03F814FF6FF73406F338506F11C0376
:1006A0000B93002800F03D8106F1680206F1640119
:1006B00003F00CF8B6F86030DFF870C223F4EF6393
:1006C00023F0070343F4887343F00103A6F8603076
:1006D00096F8393003F03F0363F07F0386F8393032
:1006E00096F87A3023F0070386F87A3096F83C3093
:1006F00023F0070386F83C3096F8D6304FF0000818
:100700004FF01B10C6E9160C68F300037F2086F833
:10071000D63086F8BD00FF2306220DF1310106F127
:10072000D700A6F8C020C6E91288C6F87480A6F8DB
:100730007880A6F82E80C6F8308086F83B80C6F810
:100740005080A6F8C480A6F8C880A6F8D080A6F885
:10075000CC808DF831308DF832308DF833308DF813
:1007600034308DF835308DF830808DF8363015F016
:10077000BBFE96F8D61068F3410186F8D610FF2329
:1007800006220DF1390106F1DD008DF839308DF8C2
:100790003A308DF83B308DF83C308DF83D308DF897
:1007A0003E308DF8388015F09FFE96F8E430A6F8BC
:1007B000F08023F0070386F8E43086F8F280C6F86C
:1007C0001481A6F81881A6F8308106F01BFC96F873
:1007D0004A31A6F8488123F0030386F84A3196F897
:1007E0007A30A6F8508123F0180386F87A3096F80C
:1007F000763186F8538123F0070386F8763196F830
:100800009631C6F854A168F3451386F8963196F8E8
:10081000BE31A6F8748168F3C303002286F8BE31A6
:100820000023C6E94E01C6E9502386F8E580A6F804
:100830009481C6F8EC80A6F8BC81A6F8C88109F0BE
:10084000D5FCA6F8D20009F0D7FCD6F8CC21384B5D
:10085000A6F8D4001340C6F8CC3109F0D3FC96F8C2
:10086000D03160F3020386F8D03109F0D1FC06F1F3
:100870001C03236296F8D031C6F8D48160F3C50317
:10088000C4E918ABC6E97888C6E97688C6E9058860
:1008900086F80080F66186F8D0310FF0F7FC00286A
:1008A0003FF44EAE07F020FD032534E62369214ACC
:1008B000DFF884900493002002260EAF0193059286
:1008C0000321CDE902000694434600900897CDF835
:1008D0001C9032460E9604F003FA394607F0E2F90E
:1008E00000287FF4AAAE154A05924AF2D832009247
:1008F000CDE90300CDE90100CDF81C9008970694DE
:100900004346012203210E9604F0EAF97FE6122500
:1009100001E6584607F054F9504607F045F9072517
:10092000F9E506F16C007067BEE600BF48014801BA
:100930000000FFF6DD8400008570000035820000B5
:1009400070B590F824308AB0C3F342030D460446D4
:1009500001210DF1230016468DF8233003F030F805
:1009600071780246284607F07BFD1D491AA3D3E99A
:100970000023A0FB0101FFF7C3FB23699842054652
:1009800020D21B1A00220192164A0293164BA21A79
:10099000A3FB02320221920900230A4409AE099105
:1009A00012490591CDE903330321D2B20696009393
:1009B000184604F007FA314607F074F948B9256182
:1009C0000AB070BD02D9C21A0023DCE700200AB0C9
:1009D00070BD0C200AB070BD8D49FD1A07000000E3
:1009E00000CA9A3B044700208988888885700000E7
:1009F00038B5194C9DF810E094F844C01CF001057E
:100A000022D163F3420C400194F83230A1874FEABF
:100A1000CE0E0EF0180E00F0200040EA0E0023F07B
:100A2000380303430D4884F83230A2FB00019123C0
:100A300003FB021106A3D3E9002384F844C0FFF7A7
:100A40005FFB2064284638BD0C25284638BD00BF12
:100A50008D49FD1A07000000A0470020002AE78406
:100A600010B59DF808C0044649014FEACC0000F0DB
:100A7000180001F0200CA17D22844CEA000C0C48E7
:100A800021F038014CEA010C9122A3FB000102FB8A
:100A9000031184F816C004A3D3E90023FFF730FB49
:100AA000606210BDAFF300808D49FD1A07000000A1
:100AB000002AE784000000002DE9F047044600F119
:100AC000350190F8440094F83230C0F3400060F3F0
:100AD00086138CB084F8323004F064FA94F8322033
:100AE000A38F4D48E46102F079020025A3FB0001C9
:100AF00084F83220912202FB0311C4E9055544A376
:100B0000D3E900232570FFF7FBFA3123C4E9015331
:100B1000236CE5600933A0F13102934232BF2361B7
:100B200022612564064604F005FA236A07460DF1A2
:100B30002C08002B4CD0394D394BCDF82080069431
:100B4000651BA3FB05353448A38F4FF0000AA3FBB8
:100B500000019122CDF80CA002FB0311236904933C
:100B6000304B0793304B05934FF0020928A3D3E98C
:100B70000023CDF82C90FFF7C3FA104619464FF426
:100B80007A720023FFF7BCFA2D090435EDB22A462C
:100B9000CDE901603B460321CDF800A0504604F0AA
:100BA0009FF8414607F07EF8054668B994F844304E
:100BB00043F0010384F8443007F030FE0446F8B1F6
:100BC00028460CB0BDE8F0870C200CB0BDE8F087DB
:100BD000CDE90A33216943460AAA032001F040F90E
:100BE0000B990029A7D0114809A3D3E90023A1FB41
:100BF0000001FFF785FA0A9F20F07F4007449AE73B
:100C000048460EF03BFA20460CB0BDE8F08700BF26
:100C10008D49FD1A07000000002AE784A047002044
:100C2000398EE338857000003D8A000000CA9A3B87
:100C30002DE9F04FC38D458E1D4490F81A310D44B7
:100C4000174613F007028BB00446ADB20AD0531E0C
:100C5000042B00F24F83DFE813F0A90112028A018E
:100C600041011502B0F8F480A5EB080318041FFA3F
:100C700083FB00F15E8194F93930002B0E46C0F2FF
:100C8000458294F8F03084F8F13094F8942194F887
:100C9000953194F8181184F8191193420AD094F8F8
:100CA000963103F00F03062B04D1002384F895211D
:100CB000A4F8C830B24BD4F814911A68944204BF17
:100CC00000221A60B9F1000F00F04981D9F8000044
:100CD000002800F04481B4F81C31618D4268C4F8EA
:100CE00014218B42B4F81E2100F01882B4F82011B0
:100CF000B4F828C0A9F81E30182389F8043000235E
:100D0000A9F806C0A9F82020A9F8221089F81C30FB
:100D1000494606F05BFF06F063FFA368002B09DA83
:100D2000E168626823F0004391422CBF7F18BF182E
:100D3000A360FF1A608DB4F81C9110FB0BF080B219
:100D4000B0FBF9F119FB01F39BB298421FFA81FA4B
:100D500080F0F4801B1A40F2E2418A4803FB01F163
:100D6000A1FB000184A3D3E90023FFF7C9F920F018
:100D70007F400744E18D94F93930A8EB0508D04451
:100D80000E444644002B40F2E248E68508FB09F693
:100D9000C0F2E781D4F824117A4877A3D3E900237D
:100DA000A1FB0001FFF7ACF920F07F48B34608F142
:100DB0000108754AB4F82031B4F81E117348A4F83C
:100DC0002A903244B2FBF6F2A4F8C62042F2107226
:100DD00002FB03633044013BB0FBF6F0B3FBF6F6D5
:100DE00083B2881D8342A185A4F8C260A4F8CE30E6
:100DF00002DD5B1A063B9BB2A4F8CA3094F81A31A4
:100E00001B0744BF0023A4F8C4300221012012F0C4
:100E10002DFA002202218146012002F0A7FC5C4944
:100E20004FF4F872204602F031FC00F1050A5FFA37
:100E30008AFA584B009452460121002003F0DAFF51
:100E400030F0020304D0544840F65F3101F09CFDBD
:100E50004C4EABFB066B48A3D3E900233046594602
:100E6000FFF74EF920F07F454C480723A5FB000112
:100E7000301A03FB05116BEB01014FF47A7200236A
:100E8000FFF73EF9CDE9015008940694CDF80080B3
:100E9000216994F93950424804914249424C0794DF
:100EA00011EA250138BF014605914FF6FE713B4618
:100EB000039152460121002003F012FF30F002039B
:100EC00004D0354840F6793101F05EFDB9F1000FEC
:100ED00040F0418100200BB0BDE8F08F838D90F889
:100EE0001A01D4F8D4211D440635D4F8F830ADB237
:100EF0006FF30200A4F8F450A3F109011D8184F8F6
:100F00001A0122B194F87601860740F17881D4F86D
:100F1000D801002800F08C81D4F8DC21106843F857
:100F2000090C116053F8092CC4F8DC11002A00F0F8
:100F30007C816FF076000BB0BDE8F08F09FB1101EA
:100F400040F2E2430F4889B203FB01F1A1FB00012B
:100F500009A3D3E90023FFF7D3F83F1A0AE70E48A5
:100F600040F6B42101F010FDD9F80000B3E66FF0AF
:100F70000F000BB0BDE8F08F8D49FD1A070000008F
:100F8000FC47002000CA9A3BFF5962027FC3C90197
:100F9000D0190020118F0000E47A01008D49FD1A5C
:100FA000ADE0000019DF0000E18E0000DFF82083D3
:100FB000012006F01BFE0646002800F04A81C548C5
:100FC00002F02EFB0546002800F04381C24B1A6850
:100FD000002A00F0128106F027FE3368D4F81421AD
:100FE0005A602B79C4F8146143F003032B710C236E
:100FF0006B710023EB7194F828312B72B74AD4F847
:101000002431A2FB03239B0AA5F80930B4F81C3154
:10101000A5F80B30B4F81E31A5F80D30B4F8203126
:10102000A5F80F3094F81A31C4F8FC70032262F36B
:10103000020384F81A31A368002B0ADAE1686268B7
:1010400023F0004391422CBF7F18BF18FB1AC4F84D
:10105000FC30A34B01220935C4F8F8500221104698
:10106000C3E9024802F0B4FB00283FF462AF9D4898
:1010700040F6092101F088FC6FF076002BE7DFF8DD
:10108000688295E7D0F8F820D0F8D43190F8F000D5
:1010900084F8F10094F818018F4984F8190194F844
:1010A000940184F8950100200860A2F10901C3B100
:1010B00094F87601800714D494F8CF01C70710D4B0
:1010C000D4F8E001834200F0E080D4F8D80168B998
:1010D000187900F00300032800F0E880C4F8D83144
:1010E00006E0D4F8D801002800F0AC80D4F8DC3158
:1010F000186842F8090C196052F8093CC4F8DC1170
:10110000002B00F0A9806FF08B00E4E694F8E53046
:10111000002B3FF4B6AD84F8E520B6E5A18D9142F1
:10112000B4F820117FF4E4AD40F2E24C0CFB03FE76
:1011300042F2107C0CFB01EC0CF1FF3CBCFBFEFC12
:10114000B4F8C2E01FFA8CFCE6457FF4D1AD012370
:1011500089F80430DCE501220221104602F006FB8A
:10116000B8E6226CA36C02FB1B33A3640FF0FAF801
:10117000054694F8E400C0F3C2000FF0F5F805440A
:1011800006FB05F5594B94F8282105F5742505F261
:101190003F25A3FB0535AD0C08FB02F2A36C2265CD
:1011A00005FB0AF072080344963A934228BF13469F
:1011B0002564A6EB050B4E4DC4E911230023C4F8AA
:1011C000EC30A0FB050140A3D3E90023FEF798FF14
:1011D000424B3F1AD4F82401A3FB0030800A08FBDD
:1011E00000F039A3D3E90023A0FB0501FEF788FF37
:1011F000B4F81C9120F07F48DBE51C60EBE694F826
:10120000CF01C5073FF583AED4F8E001824228D074
:10121000D4F8D80100287FF47FAE107900F00300E5
:1012200003284AD0C4F8D82178E6C4F8E41180E64F
:1012300043F8092CC4E97511C4F8DC11002A7FF4C5
:1012400078AEF2E742F8093CC4E97511C4F8DC1144
:1012500056E76FF068003EE6C4F8E4116FF08B00CB
:1012600039E61068C4F8E001D4F8D80100287FF40A
:1012700053AE106843F8090C116053F8092CC4E907
:101280007611002A7FF455AECFE71868C4F8E00164
:10129000D4F8D80100287FF429AF186842F8090C67
:1012A000196052F8093CC4E9761129E7D879032876
:1012B000F3D00A287FF412AFEFE7D0790328D8D013
:1012C0000A28AFD1D5E700BF8D49FD1A07000000FD
:1012D00041E6000048130120FC4700205917B7D110
:1012E00018160020E47A01000920000083DE1B4369
:1012F00000CA9A3B034840F65D2101F045FB4FF0E0
:10130000000855E6E47A01002DE9F04F0B68D2F8A9
:1013100000B01B6897B08A460A93037F00F11E0154
:10132000C3F380130446154614A806228DF84730EF
:1013300015F0DAF89AF812000C90FF280DF1480920
:1013400000F083804A460DF147010DF035FC9DF811
:1013500047600236F6B28DF847600A9B277FD4F8C3
:1013600000C0CDF82CC003F17108FF094B4606F010
:1013700001024146384608F051FF00284BD19BF846
:10138000D6200D9066F341028BF8D62049460622FE
:101390000BF1DD0015F0A8F89BF8D62067F30002EA
:1013A00041468BF8D6200BF1D700062215F09CF8A9
:1013B0002F1D032204F12E0105F1080015F094F809
:1013C00005F11806042204F12A01384615F08CF8BC
:1013D000052204F13A01304615F086F83046052121
:1013E00002F0EEFA6A7F94F83F1000F03F0060F3DD
:1013F00005026A77C1F30402AA77A68EEE8101285E
:10140000B6B201F01F0206D91B3202F01F020B2AEE
:1014100001D80D9B0EBB0A9BE6680B9800225A610F
:1014200095F82030012762F3000385F8203021462B
:10143000277106F0CBFB30683771314606F0C6FBEA
:1014400006F0CEFB17B0BDE8F08F062214A948467F
:1014500015F04AF89DF847607FE7DAF800205360FE
:1014600094F8372094F8363043EA02232B829BF815
:10147000E430628E0D92490961F3C5038BF8E430C4
:101480000EF070FF0E909BF8E400C0F3C2000EF067
:101490006BFF0E9BB44A298A40F2E24808FB06F62D
:1014A000034406FB03F303F5742303F23F23A2FB7B
:1014B00003239B0C6B6294F83130AC4A08FB03F3B6
:1014C000AB637308963BAB62238FADF83830184698
:1014D0003244A74BB2FBF6F2ABF8C62082B242F21E
:1014E000107000FB02623344013A881DB2FBF6F231
:1014F000B3FBF6F3ABF8C2209AB28242ABF8CE202F
:1015000002DD521A063A92B2ABF8CA2039460422DA
:101510000BF1E80014F0E8FF4FF4807394F81C809E
:10152000A3830A9B93F82600C8F340130F939846B1
:101530000EF0CEF8002800F0E480062204F1240129
:1015400004F12B0014F0D0FF0C9BFF2B00F0E08087
:1015500014A9062204F1250014F0C6FF9DF84730B7
:10156000A3774946062204F11F0014F0BDFF9BF843
:10157000E430EA8962862A8AA286C3F3C203BDF8F0
:10158000382084F83830E286584608F025FA21469B
:10159000A881E080DAF804400B9806F017FBAB89CD
:1015A000E3801B23D4F800902371B8F1000F40F0C2
:1015B000BE809DF83C3023772146484606F006FB66
:1015C00006F00EFB95F84500B5F84040B5F84270BE
:1015D000012100F007000EF003FD274407F5E17735
:1015E00039188146634800273123CBF80830A1FB26
:1015F00000015BA3D3E90023CBF80470CBF80C7097
:10160000FEF77EFD6B6A0D9ADAF80C4020F07F4001
:10161000F61A40F2E24303FB024402213A46CBF8B9
:101620001000012002F0A2F80A9D284607F0DCF81D
:10163000821C514B0095D2B23846012103F0DAFBEF
:1016400004F2B2440128A4EB09047BD00A9B93F86E
:101650002430DB0763D4584608F0BEF9DFF8149154
:10166000A6FB09863EA3D3E9002305463146404642
:10167000FEF746FDDAF80830CDF818B0A3F13A0AC3
:101680003E4B07933E4B059340F2AB130893DBF8B8
:101690001030049320F07F473A480023A7FB000155
:1016A00003930723B8EB000003FB071166EB01016E
:1016B0004FF47A720023FEF723FD29A3D3E9002318
:1016C000CDE90170A4FB0901FEF71AFD053520F0F4
:1016D0007F40EDB2009053462A460121002003F0DE
:1016E000FFFA30F0020304D027484FF4D67101F01E
:1016F0004BF901220221104602F038F817B0BDE87C
:10170000F08F0146062204F12B0014F0F8FE1BE7CF
:101710000622002104F1250014F0F1FE1EE700234B
:10172000012200931846114603F064FB93E76B7F98
:1017300043F040036B7738460DF030F80123E8831F
:10174000237739E706F0E0FA0A9B83423FF47EAF45
:101750000D4840F26E2101F017F977E7AFF30080F2
:101760008D49FD1A0700000083DE1B43FF5962020A
:101770007FC3C90100CA9A3BF1DE0000DDDE000034
:1017800019DF00008D49FD1A307B010000000000C8
:101790002DE9F04F8BB0CDE904011F460020BDF8C4
:1017A00060309DF85490BDF858A0BDF85CB003932C
:1017B000164607F053FA002800F0BE8109F0010830
:1017C0000546404603F0DEFB0290B8F1000F6AD1F7
:1017D000149B02993A46404608F020FD002840F04C
:1017E000BC812B6A05F11C020692002B62D02B6A89
:1017F0001C6807F0010A93F844000293C0F3C0018B
:1018000000F007000EF0EAFB029BB3F8401000F571
:10181000E1700144B3F842000144D948D6A3D3E9AA
:101820000023A1FB0001FEF76BFC20F07F4020614C
:1018300030460DF063FC95F833306FF3410385F8C3
:101840003330FF2385F83430002E00F07981A9F180
:101850000203012B40F2858195F84430149969F315
:10186000420385F8443095F833306AF3000385F875
:101870003330062205F1240014F036FE039B2B863C
:1018800005F11C00DDE9042300210096FFF7E8F8CC
:101890000EF0FCFC002840F07F812846FFF70CF991
:1018A0000BB0BDE8F08F062101F004FF00288FD1B6
:1018B0001220F5E706F072F90690002800F09881F2
:1018C00008F07EF80446002800F0A081203002F0E5
:1018D0008FF804F11C03002840F07F81032104F1FC
:1018E000240007930EF066FA606F079BA4F82CB0F3
:1018F0004FF6FF72A4F82AA02285002800F0748118
:1019000004F1640104F16802079301F0DFFEB4F80A
:1019100060209C4B22F4EF6222F0070242F48872AE
:1019200042F00102A4F8602094F87A2022F0070225
:1019300084F87A204FF01B124FF0000BC4E91623F5
:101940007F2284F8BD20C4F874B0A4F878B0A4F85D
:101950002EB0C4F830B004F134000CF0D3FE94F88B
:10196000392060F3050284F8392001210DF12700A8
:101970000EF020FA9DF82710834AA08D84F83BB022
:10198000A2FB0132D20802EB4202A1EB8202053235
:1019900084F83A2094F83920039BA4F8C4B002F0EC
:1019A0003F0240F2E24184F8392094F83C20A4F848
:1019B000C8B001FB0AFA7549A4F8D0B022F00302BE
:1019C000514484F83C20B1FBFAF1714AA4F8C610E6
:1019D00042F2107101FB03A152440139B2FBFAF249
:1019E000B1FBFAFA0621A4F8C01000F1060C91B27E
:1019F0006145079BA4F8CCB0A4F8C2A0A4F8CE100F
:101A000002DD091A063989B294F8E420A4F8CA1054
:101A10004FF0000B22F0070284F8E420A4F8F0B0A5
:101A200084F8F2B0C4F814B1A4F818B1A4F830B135
:101A3000079305F0E7FA94F84A21069BC4F854315D
:101A400022F0030284F84A2194F87A20A4F848B1DD
:101A500022F0180284F87A2094F87621A4F850B184
:101A600022F0070284F8762194F8962184F853B185
:101A70006BF3451284F8962194F8BE21A4F874B152
:101A80006BF3C302C4E94E0100210020C4E95001F8
:101A900084F8BE21A4F894B1A4F8BCB1A4F8C8B1EC
:101AA00008F0A4FBA4F8D20008F0A6FBD4F8CC11EF
:101AB000384AA4F8D4000A40C4F8CC2108F0A2FBAC
:101AC00094F8D02160F3020284F8D02108F0A0FB42
:101AD00094F8D0211499C4F8D4B160F3C50284F805
:101AE000D02194F8D620C4F804B007F0010A6AF3B4
:101AF000410284F8D6203122A260C4E978BB0622D4
:101B0000C4E976BBC4F80CB004F1DD0014F0ECFCC1
:101B100094F8D620029969F3000284F8D62004F1E3
:101B2000D700062214F0E0FC079B2B62C4E905BB3A
:101B300084F800B0E4615EE60C200BB0BDE8F08FE5
:101B40000DF01EFF00283FF482AE1499384632464D
:101B50000DF028FC85F8340079E60B200BB0BDE8C9
:101B6000F08F00200DF0EEFA95F8333043F00203C9
:101B7000C14685F833306FE68D49FD1A0700000035
:101B800000CA9A3B48014801ABAAAAAAFF596202BF
:101B90007FC3C9010000FFF62C6AA36D23B11E4864
:101BA00040F25D4100F0F0FE04F14C0104F1480008
:101BB00001F090FD064618B32768A665D7F8544192
:101BC000C4B1204605F0F0FF384607F0FFFE0023C1
:101BD00003202B620BB0BDE8F08F0F480793B621AE
:101BE00000F0D2FE079B79E604F16C00606787E69F
:101BF000072055E6084840F2664100F0C5FEE0E7E0
:101C0000054840F25F4100F0BFFED5E7069805F0B9
:101C1000CBFF072044E600BF787B010000000000F6
:101C20002DE9F04F8DB0067F04460F46154600F1B2
:101C3000240106220AA814F057FC002394F81C90F3
:101C4000A383797C97F81280C9F3401B11F002013D
:101C5000C6F3C016D9464FF0060200F0CF8004F15B
:101C60001E0104F12B0014F03FFCB8F1FF0F00F04F
:101C7000CD80404604F11F0204F11E010CF09CFFD0
:101C8000A37F02330AA9A377062204F1250014F0EA
:101C90002BFC3B68D3F800A0EB8963862B8AA386D4
:101CA000BAF83030E3860EF05BFB84F83800D5F8E4
:101CB0000080404607F090FE7E68A8812146E080C3
:101CC000206805F083FFAB89F3801B2334683371F0
:101CD000B9F1000F40F0A88086F81CB031462046CC
:101CE00005F074FF05F07CFFD8F80430D8F80860E0
:101CF00095F84400B5F80E90FC689E4238BF1E4629
:101D0000C0F3C00140F2E24300F0070003FB09F911
:101D10000EF064F9203400220221241A012001F07F
:101D200025FD504606F072FF021D474BCDF800A07E
:101D3000D2B20121002003F05DF830F0020304D09C
:101D400042484FF45E7100F01FFE4FF0000A534608
:101D500003220121CDF800A0504603F04BF8404685
:101D600007F03AFEBB68CDF81880093B9E1B384B44
:101D70000793384B05934FF46A73374F0893D8F89D
:101D80001030A9FB0798CDE903A3451D2CA3D3E987
:101D9000002348464146FEF7B3F9104619464FF472
:101DA0007A720023FEF7ACF925A3D3E90023029051
:101DB00041464846FEF7A4F921A3D3E90023019048
:101DC000A4FB0701FEF79CF9EDB220F07F400090E4
:101DD00033462A460121504602F082FF30F00203CA
:101DE00004D01A4840F2A93100F0CEFD01220221B0
:101DF000104601F0BBFC0DB0BDE8F08F04F12B00E4
:101E000014F07DFBB8F1FF0F7FF433AF0622002101
:101E100004F1250014F073FBA6770AA9062204F149
:101E20001F0014F061FB34E76B7F43F040036B77D6
:101E3000281D0CF0B3FC0123E88333774EE700BF85
:101E40008D49FD1A0700000095E00000787B010035
:101E500099E00000ADE0000000CA9A3B00000000DD
:101E60002DE9F04F8FB04FF0FF0A1546DFF8F090E4
:101E7000DFF8F0B009930A1D0021044608928DF89E
:101E80002FA019600C91049105910DF134080CAF4D
:101E90000226CDE9019800972B460DF12F0221462D
:101EA00000200D9602F0E8FF02282ED00D9B002B9B
:101EB00031D19DF82F00FF2835D00538C3B2042B4F
:101EC000E7D880B207F090FD0028E2D090F93930D1
:101ED000002BDEDBBAF1FF0F02690C9B0CD00599D9
:101EE00007921846069303F027F8049B089A99185E
:101EF0008842DDE9063219D8CDE904239DF82FA0E8
:101F0000C7E72146002002F0FDFF0D9B022BF8D011
:101F10000D9B002BCDD058466C2100F035FD9DF86F
:101F20002F00FF28C9D1BAF1FF0F10D0DDE904322C
:101F30000D481344A3FB0001072202FB031106A373
:101F4000D3E90023FEF7DCF8099B803018600FB05E
:101F5000BDE8F08FAFF3008000CA9A3B000000009C
:101F6000B5E30000BC7B01008D49FD1A00000000B4
:101F700070B582B01C4601921546064601AA0220A1
:101F8000FFF76EFF23680BB30198431B1B021FD49E
:101F9000294602F0D1FF1A4A03460721A0FB02029C
:101FA00001FB032114A3D3E90023FEF7A9F822685B
:101FB00002442260002A09DB40F2E24006FB00F006
:101FC000904203D2121A8242FCD8226002B070BD45
:101FD0000146284602F0B0FF094A03460721A0FB4C
:101FE000020201FB032104A3D3E90023FEF788F8D2
:101FF0002268121A2260DDE700CA9A3B0000000046
:102000008D49FD1A000000002DE9F041B0F8A4113F
:1020100088B0044640F2E2434348002603FB01F146
:1020200005AD0623C5E901668DF80F30A1FB00015F
:102030003BA3D3E900230596FEF762F80DF10F03E9
:1020400001950093B4F89A31049004AA2046012126
:102050000CF0B2F99DF80F8008F1FF3C5FFA8CFCA0
:102060000DF11603304604F5D27703EB4C0C04F562
:10207000D8764FF6FF7E3A88B8F1000F0AD02B468B
:10208000724504D0198891424FF0010013D00233F9
:102090009C45F5D10237BE42EDD108BBBDF81430E6
:1020A000D4F8F81040F2E24203FB02F2C4F8242113
:1020B000180A0B7009E0D4F8F81040F2E24302FB72
:1020C00003F3C4F82431100A0A70487094F81A31E6
:1020D000042262F3020384F81A3108B0BDE8F081EB
:1020E000D4F8F830032203F8042C13F8052C94F8E4
:1020F0001A11052542F00302112003F8020C03F81F
:10210000052C65F302010F20202203F8010C1A7040
:1021100084F81A1108B0BDE8F08100BFAFF3008069
:102120008D49FD1A0700000000CA9A3B000000001C
:1021300038B504460EF0EEFEA27DC2F34103013332
:1021400003F00303032B34D063F34202A27503F1BF
:1021500025000DF00DFF63680BB32369FBB110F090
:10216000F9FE054602F0E6FEC11C002010F0A2FEBA
:1021700010F03CFF10F0EEFE294602F0DDFE1249A1
:1021800003460722A0FB010102FB03110CA3D3E9C4
:102190000023FDF7B5FF23691B1A236138BD02F048
:1021A000C9FEC11C002010F085FEBDE8384010F0CB
:1021B0001DBF6FF34202A2752520CAE7AFF300806E
:1021C00000CA9A3B000000008D49FD1A0000000083
:1021D0002DE9F04F89B0044610F06EF910F0B0FB15
:1021E000C0B250B90DF010FF9948214610F03AFAEC
:1021F00009B0BDE8F04F10F077BB10F0C1FBC7B2DB
:1022000010F0C2FDC6B210F0C9FD824611F006F80A
:102210005FFA80F810F0E6FF834610F079FD814602
:1022200010F054FD0DF0F0FE012005F019FE0546FA
:10223000002800F0DA80002E40F0DF80B8F1000FB7
:1022400040F0E7804FF0FF0A002FCDD0A37D1807A4
:1022500040F1E880002E00F06981636800225FFA97
:1022600089F68DF81B20002B00F00E81636893F82F
:102270002030990700F108812B7F03F00F01072917
:10228000B2D0A27DC2F3C009120740F156810029E5
:1022900040F0E6806B7F252B00F26B81042005F077
:1022A000DFFD0028A0D010F0A9FE636A074643B9FD
:1022B000238C40F2712202FB03F3B0FBF3F203FB29
:1022C000120723681A69634B0721A2FB030301FB72
:1022D00002315DA3D3E90023FDF712FFA0F24233E0
:1022E000BB4281D310F0E4FC5046D4F804B00DF0AA
:1022F000FDF9E37D9B07074640F1E681002800F0E9
:10230000E38101460122CDE9042110F047FB049A44
:102310002B7F019207AA0599039205F11E028146BF
:102320000291C3F3801301460092204600220EF072
:10233000A3FF484610F0AAFA10F0F8FA002840F07F
:10234000D88110F0BBF84448214610F08BF9002EDC
:1023500040F0D5816168A37D91F8202043F080038F
:1023600042F0010281F82020A37505F097FD1623A5
:10237000064603714FF6FF732D7FC3804946242222
:102380001C3014F0B1F8337FB460C5F3401565F329
:102390004513337710F0DEFD002130610120079DE9
:1023A00010F088FAB8F1000F08BF4FF0FF0A86F866
:1023B0001AA0E37D2D1A13F00203756102D03B1EB3
:1023C00018BF0123727E63F34102727605F066FD49
:1023D000034631463068F36005F076FD05F084FD74
:1023E00009B0BDE8F04F10F075B81C4840F29121DB
:1023F00000F0CAFA002E3FF421AFA07D5FFA8AF107
:10240000C0F3C0000DF096F98246002F3FF4ECAE09
:102410001CE75FFA8BF00DF0CDF98246002F3FF4F8
:10242000E3AE13E7002E3FF418AF514640460DF0DF
:1024300023FA00287FF411AFA37D19077FF5D4AEEE
:102440000BE700BFAFF3008000CA9A3B000000001A
:10245000D90F01008D49FD1A9D0F0100EC7C010090
:10246000012916D16B7F0C2B7FF4BEAE2A7FCDF8ED
:1024700000A000230193D20905F1240320460EF0A9
:1024800049FE00287FF40AAF297F01F00F010029DF
:1024900065D0062963D0022900F09180012968D116
:1024A0006B7F0C2B7FF4A0AE2A7FCDF800A00DF13E
:1024B0001B030193D20905F12403002120460EF0ED
:1024C00029FE002855D06B7F002B3FF48DAE63684A
:1024D0002BB12B7F03F00F03072B7FF485AEB8F1F0
:1024E000000F4FF003009DF81B7008BF4FF0FF0A6C
:1024F00005F0B6FC054600283FF476AE05F0CEFCAC
:102500004FF6FF73EB8005232B71002E53D17F23F1
:102510002B766B7E286885F81AA067F3000329469E
:102520006B7605F0D1FC05F0DFFC5DE650460DF062
:1025300073F900287FF491AE56E6BAF1FF0F8DF8DB
:102540001CA0C3F3801700F0A480237EA3EB0A0332
:10255000B3FA83F35B09002B7FF499AE97E76B7FA7
:10256000252B06D8A27D920601D562684AB3252B99
:10257000AAD92B7F03F00F03042B7FF435AE6B7FBA
:10258000252B3FF631AEA37DD8077FF52DAE10F099
:1025900005FA2B7F0278C3F38013B3EBD21F7FF4CD
:1025A00023AE0830062205F11E0113F08CFF00282F
:1025B0007FF41AAE87E710F09DFBC3B2A8E76B7FEC
:1025C000D5E7962010F000FC002010F049FBB8F190
:1025D000000F4FF0030014BFD0464FF0FF0805F086
:1025E0003FFC074600283FF4FFAD05F057FC4FF6CF
:1025F000FF73FB8005233B71002E61D17F233B7667
:102600007B7E386887F81A806FF3000339467B7643
:1026100005F05AFC05F068FC10F0C0F92B7F064667
:10262000C3F380133278DB0102F0700243F003033E
:10263000134333700C23737050460DF057F8E37D4D
:102640009F07014646D5002844D03378304643F0F2
:10265000400300F8023B062213F046FF062205F174
:102660001E0106F1080013F03FFF304610F00EF98E
:1026700010F05CF9002847D10FF020FF10F0B6FCF5
:10268000A37D294843F00103A37521460FF0EAFF1B
:10269000A6E605F11E0B07AA594638460DF014F9B7
:1026A00000283FF4F1AEE37D03F00103BB4231D0DB
:1026B0004B46297F01F00F01002B7FF4E8ADE6E6E1
:1026C00010F018FBC3B29AE7A27D04F11901C2F31E
:1026D000801218E6A37D3278C3F38013304663F38B
:1026E000861200F8022B04F11901062213F0FCFEF9
:1026F000B4E70E4840F24C4100F046F921E610F0F4
:10270000F9FA8BF8A10025E6084840F2D24100F022
:102710003BF9B1E75946062204F1080013F0D3FE55
:10272000B0FA80F35B09C4E7ED0F0100EC7C010017
:1027300038B5094D4FF0FF324FF0FF33284613F004
:1027400097FF044600F028FF10B1204610F0D0FF9C
:1027500012F09AFFEEE700BF9C17002010B50F4C57
:10276000204614F055FAA0B1204613F0CAFA2046CC
:1027700013F0CFFAA3682BB19B6C1BB10849002260
:1027800020469847A3689B6A33B1044898470020C5
:1027900010BD6FF01500FBE71846F9E73C76010025
:1027A000A52700002DE9F0476D4CA5686B6B8CB038
:1027B0002BB12046984710B9204613F09BFA684881
:1027C00013F098FA60B1674C2368A3B966480022F9
:1027D000002313F04DFF206068B9614813F099FAA7
:1027E0006B6BFBB9614E624D3378032B1ED8DFE86B
:1027F00003F020388EA8236899689A896B6973B1B1
:102800005748984701462068083013F084FF206835
:102810008689002EE4D110F06BFF2660E0E76FF0B0
:102820005701F0E74E4898470028DBD10CB0BDE8CF
:10283000F087504C4A480122214613F054FA0028F0
:10284000F4D02278531EDBB2012B01D9052ACBD15B
:10285000042B96BF484A0023D3562B6001233370C4
:10286000C2E7DFF810A1DFF814919AF800303C4875
:10287000013BDBB2042B9CBF3F4AD1562A6888BF7C
:102880000021891A494413F02EFA2F683F1A044692
:102890002F60002F51D10123CDE900A30022002396
:1028A000062000F01DFEDFF8D880C8F8000008B947
:1028B0003070BBE79AF80030022B21D0052B1FD0D7
:1028C000012B20D199F802202A60013BDBB2042BB6
:1028D00098BF294A294998BFD75608303A4613F07D
:1028E00008FFD8F80000083013F025FF2B68984245
:1028F0000BD2D8F8000010F0FBFE032333701CE06D
:10290000B9F80220E0E73A46DEE70223F6E71C4F7B
:102910002A683B68124899899B68194413F0E3F9C7
:1029200039682F688B893F1A034404468B812F60D6
:102930001FB9144813F0BAFE3770002C7FF454AF5F
:1029400074E72A680648212A28BF212203A913F028
:10295000CAF92B681B1A04462B60002BEDD1CDE77A
:102960003C76010064250020B41700201E250120BC
:10297000682500201F250120918201001A250120D1
:10298000602500209C17002070B504460E464FF0CD
:102990002002EFF3118382F31288BFF36F8F234875
:1029A00013F0AFF9214813F0B4F9002C37D12546C4
:1029B0001E48042113F0AAF91C48FF2113F0A6F9C0
:1029C000A91D1A48C9B213F0A1F91848AA2113F099
:1029D0009DF93DB1154D013C14F8011F11BB134881
:1029E00013F094F91148F1B213F090F90F48C6F3BF
:1029F000072113F08BF90D48C6F3074113F086F950
:102A00000A48310E13F082F9FEE701332F2A08BF7E
:102A10001D46E25C002AF8D12C445D1BC8E7002566
:102A20002B46F6E7284613F071F9D5E73C7601000E
:102A300070B5184888B000F0B5FD00220023CDE93C
:102A4000062300236FF00802CDE90323CDE901330B
:102A500000931149114B12484FF4806212F0A0F913
:102A600010490F480B4D104E104C14F06EF94FF0FA
:102A7000FF324FF0FF33284613F0FAFD014630468F
:102A800013F014FEA368DB69002BF0D020469847B2
:102A9000EDE700BF841700208025012031270000CA
:102AA000481800207C820100B41700203C76010009
:102AB0002DE9F84FB0F8189019F00808044693462D
:102AC0000DD001290CBF49F0100949F02009A0F8E8
:102AD00018908BF31188BFF36F8FBDE8F88F09F062
:102AE0000709022907D1204613F045F90028F0D044
:102AF0000128238B4ED16769218B002F15DA2568B9
:102B000021F00701C4E9008841F00101218300267A
:102B1000218B01F0070ACA4502D0A368002B5AD1C5
:102B20000DB9002E71D0002356E001F007035A1FA3
:102B3000012A1ED821F00701062B256889B2C4E9B5
:102B400000880AD13DB1638B2A46126801339BB2DB
:102B5000002AFAD1638341F002012183204613F059
:102B60000AF906460028D3D0238B43F020032383A1
:102B7000CDE7042B0CD121F0070189B22183204637
:102B800013F0F9F805460028C1D041F02001218357
:102B90000025BCE7032809D1226923F00703166842
:102BA00043F00603238300252F46B1E7042806D10E
:102BB000226923F00703566843F00403F2E705286F
:102BC00006D1226923F00703966843F00503E9E77D
:102BD00000252E46E8E7012341F0080121838BF30D
:102BE0001188BFF36F8FFBB985BB16B11F49204613
:102BF000B0474FF02003EFF3118B83F31288BFF33C
:102C00006F8F238B23F008032383238BDA0625D5CC
:102C100023F0100323830121B4F8189009F0070969
:102C200000297FF45EAF54E7A1680029DCD0D1F819
:102C30000090D1F804B03B4652462046D847B9F13F
:102C4000000FD1D04946D9F80090F2E729463B461B
:102C5000524620462D6813F0AAF8C5E713F020016C
:102C60001EBF23F0200323830221D5E7DB5D010093
:102C7000F8B505464FF02003EFF3118683F3128871
:102C8000BFF36F8F094B1C685CB1094FD4E9013267
:102C9000002D08BF13460BB1387898472468002CE4
:102CA000F4D186F31188BFF36F8FF8BD6C25002037
:102CB000742500201FB50F4B1A68BAB901221A609B
:102CC0000D4A07CA01AB83E807000C4A4AB193E8F2
:102CD000070013F030FC002005B05DF804EBFFF7AF
:102CE000C7BF82F31188BFF36F8FF4E705B05DF8BB
:102CF00004FB00BF10000020742500203765010090
:102D0000F0B589B06E4601460546304613F0B9FB72
:102D100096E80700174C84E807002078274638B368
:102D2000154B002119606B1C0DD0144816464FF44A
:102D3000004C134A0023E6FB0C01FDF7E1F90121E9
:102D4000281A14F09EFA12F0F1FA0120FFF790FF12
:102D500097E8070005AB83E807000A4A1AB193E831
:102D6000070013F0D5FBFFF7A5FF12F065FC2078F4
:102D700009B0F0BD74250020100000203F420F0074
:102D800040420F0011650100014910220A6070479E
:102D900010ED00E072B6404080F31188BFF36F8FF2
:102DA000BFF34F8F30BF62B6BFF36F8F704700BF66
:102DB00072B6494081F3118820BF80F3118862B652
:102DC000704700BF43B2002B08DB012200F01F0058
:102DD00002FA00F05B09024A42F82300704700BF84
:102DE00000E100E043B2002B0DDB01225B0900F0A3
:102DF0001F0002FA00F02033034A42F82300BFF319
:102E00004F8FBFF36F8F704700E100E0054B420921
:102E100000F01F0053F82220012303FA00F01040B5
:102E2000704700BF00E100E043B2002BA8BF03F1F0
:102E3000604301F10101B8BF064B4FEA4111ACBF3D
:102E400003F5614300F00F00C9B2B4BF195483F811
:102E50000013704714ED00E008B572B6044B986992
:102E600018B100229A6113F075FF62B608BD00BF69
:102E7000D024012030BFFFF7FDBF00BF0F4A08B5C7
:102E80000F4B22F07F029A60BFF34F8FBFF36F8F1B
:102E9000D3F8882022F47002C3F88820EFF314835B
:102EA00023F0040383F31488BFF36F8F11F0B8FE8F
:102EB00012F006FD00F0CAF911F0BCFE000000009F
:102EC00000ED00E0094A0A4993680968D967094991
:102ED00098674B6843F080534B60002383F311885D
:102EE000BFF36F8F9368D86F704700BFD024012065
:102EF0007882010000ED00E012498A684FF030004E
:102F00001044EFF3098C80E8F01F202080F3128832
:102F1000BFF36F8F0C4F4FF00066CA698A603E6046
:102F2000906F0023936780F3118804B5104600F07A
:102F3000CFF9BDE8044002F1300090E8F01F8CF3B7
:102F400009887047D024012004ED00E01EF0040F32
:102F50000CBFEFF30880EFF30980816911F8021CC0
:102F60000229FFD001B513F093FA01BD42F8203CCD
:102F7000009B42F81C3C0A49019B42F8183C029B0A
:102F800042F8143C21F001014FF0807342F8043CF8
:102F900042F8081C0023203A02658367704700BF8F
:102FA000175F0100094A0346906870B113F1160FCC
:102FB000806E05D0A0F120029A4205D8834203D248
:102FC000814228BF0020704700207047D024012094
:102FD00008B5094B98600D46144600F079F9204673
:102FE00085F30988002163B681F31188BFF36F8FE1
:102FF0000022002312F08FFFD024012001B572B609
:103000000B4A906900281EBF0021916113F0A2FEB7
:1030100062B6EFF30580A0F110004FEAC000054949
:10302000014409C99847BDE8014003490847000029
:10303000D02401209C7601003D300000044B9968AB
:10304000D869884203D003494FF080520A60704724
:10305000D024012004ED00E038B5194B14469A6ADB
:103060009A6A9A6A0546900719D5586B9A6A1206A9
:1030700015D519B19A6A22F080029A629A6A9A6A00
:103080009A6AD1060ED49B6A9A070BD400200C4A88
:10309000936A43F0FF0393620023237038BD6FF0FF
:1030A0001500EBE7064B5B681B05EFD52946FFF7DC
:1030B00079FF0028EAD080F309880220E7E700BF03
:1030C00000ED00E00D4B9A6A9A6A9A6A920508D55B
:1030D0009A6B9A6A120404D518B19A6A22F40042D3
:1030E0009A62064B9A6A9A6AD20558BF9A6A9A6A95
:1030F000002042F47F429A620870704700ED00E0C1
:1031000070B5484B5B688AB00D46C3F308030026D0
:1031100086F31188BFF36F8F02F07F41B1F17F4FCB
:1031200011D102F00C0108290DD0110701D4054678
:1031300001260022033B8DF80720032B6BD8DFE824
:1031400003F00455595D3546F3E7364BDC6A14F05D
:10315000020460D1DA6A002A15DBDA6A520012D55D
:10316000AA6932F8021C4DF6027291420AD093F815
:1031700028200AB30DF1070201212846FFF76CFF52
:10318000044600E02C689DF807309BB920222946B0
:1031900002A813F0A9F9099B002E3ED0C3F3080240
:1031A00022B96FEA53236FEA4323099302A9204609
:1031B00013F06CF90AB070BD93F829202AB10DF113
:1031C00007010120FFF77EFFDAE75A8D92B2002A4D
:1031D000D9D09A6A9A6A9A6A9A6A9A6A9A6A9A6A2A
:1031E0006FEA02426FEA12429A62CCE70DF10702DF
:1031F0000021C2E70DF107010020E3E7094B9A6ABD
:103200009A6A9A6A9A6A9A6A9A6A9A6A6FEA024209
:103210006FEA12429A620024B5E723F4FF7323F0A9
:103220000103C2E700ED00E0024A536943F01003D6
:103230005361704700ED00E0EFF30880EFF3098180
:1032400001B57246FFF75CFF01BD00BF04480023D3
:103250002021C2180133302B82F80013F9D17047B6
:1032600000E100E014F0A4F9202080F31188084860
:103270004FF40261401880F30988EFF314800221B3
:10328000084380F31488BFF36F8FFFF7F7FD00004A
:1032900020330120064B9B68834207D1EFF305835F
:1032A00023B1044A536843F08053536012F0A4BA28
:1032B000D024012000ED00E0024B034A0348012125
:1032C00000F06EB8000004200000002068780100C3
:1032D000826E054B203A1A60044A2021C3E901128C
:1032E0001846012100F066B88025002000000B156B
:1032F000F0B51F4F00268E4201DB1046F0BD44683A
:103300009CB353B104F1FF3C14EA0C0F18D11F2CED
:1033100016D905681CEA050F12D1202C0568D0F8D3
:1033200008C0D2B20FD9B4F1004F0ED8013CB4FAA4
:1033300084F4C4F11F046400072A4CEA040406D98B
:103340006FF01502D9E70824F6E73E24F4E725F0EC
:103350001F05154345F0100544F00104C7F89820F7
:10336000C7F89C500132C7F8A04001360C30C2E7C4
:1033700000ED00E0044B0522C3F89420BFF34F8F0B
:10338000BFF36F8F704700BF00ED00E0BFF35F8FAA
:10339000024B0022C3F89420704700BF00ED00E00C
:1033A00010B5034C01232278FFF7A2FF207010BD57
:1033B0002025012008B5094A00231278FFF798FF5D
:1033C00010F1160F02D0064A072800DD08BDC2F82A
:1033D0009800C2F8A0300130F6E700BF2025012098
:1033E00000ED00E014490868082810B521D8FFF75F
:1033F000CDFF124C49680022904201F10C0105D129
:103400000F4B1870FFF7B6FF002010BDC4F89820CE
:1034100051F80C3C23F01F03134343F01003C4F88E
:103420009C3051F8043C43F00103C4F8A030013251
:10343000E2E74FF0FF30E8E77478010000ED00E0CC
:10344000202501204FF02003EFF3118283F312882F
:10345000BFF36F8F06490123C1F840354FF080411B
:10346000C1F8783582F31188BFF36F8F0020704761
:1034700000E0014020B1034B800143F001031847F5
:10348000704700BF60780100074A0346106828B9FA
:10349000D96831B1196921B1136070476FF07700B5
:1034A00070476FF0150070478C250020052870B517
:1034B000054611D8012606FA00F414F02A0409D0B2
:1034C000064813F0D0F8044620B13146083013F016
:1034D000E9F82575204670BD0024FBE71C18002084
:1034E0002DE9F0410228DDE90667044629D00628C7
:1034F00002D040B300251EE0144909780129F9D112
:103500003478012C1AD0022CF4D111480136013F35
:1035100013F0A9F805460028ECD000F108080121B5
:10352000404613F0BFF82C752EB127B13A4631460C
:10353000404613F0DEF82846BDE8F0810548002437
:10354000E4E70348E4E70348E2E700BF3817002058
:10355000CC170020F417002010B50D4B1B78012B61
:1035600004460CD1037D012B04D0032B0ED06FF049
:10357000150010BD042104F1080013F0C3F8054B39
:103580002146186813F092F80020F2E70221F2E7D2
:103590003817002090250020014B1B681B69184735
:1035A0008C250020044B054A1B6810600BB1DB68BA
:1035B00018476FF0120070478C25002090250020DE
:1035C0002DE9F0411646C21D22F00302751E0F467A
:1035D000ADB2186082B0044616800021042207FBB9
:1035E000050012F08CFFBDB1023EB6B206FB0773B8
:1035F00006FB07F81C44A8EB03080025042204EB93
:1036000008000DEB0201019412F06EFFB542A4EB2D
:10361000070405F10105F1D102B0BDE8F08100BF5A
:1036200070B5056882B095B1EB1D23F00303042249
:10363000044629460DEB02001E8812F055FF019B3F
:1036400023B1DA1D22F00302013E168023602846D2
:1036500002B070BD0B6870B50C46054683B10733E8
:1036600023F003031E880136B6B204222146284601
:1036700012F03AFFEB1D23F003031E80256070BD9E
:103680000126F2E702FB0100704700BF401A80B23A
:10369000B0FBF2F0704700BF531E11449BB242B121
:1036A000DB430138CA1811F8013D00F8013F91428F
:1036B000F9D17047014402E010F8013B1BB9884280
:1036C000FAD1002070470120704700BF10600860E9
:1036D000704700BF0A6803460068904205BF002299
:1036E0000A6000201A607047D2F800C0CCF80000D1
:1036F000D2F800C0CCF8041010607047884203D0A4
:103700001AB1436813607047002070470B6883420A
:1037100009D02AB1586810601A680A6018467047C4
:10372000002BF9D1FAE70023F8E700BF2DE9F041BB
:10373000DFF830800C4E0C2706F130044546221D80
:10374000214628460C3CFFF7C1FFB442A5F108050D
:10375000F5D1043F3B1DA8F12008A4F13006EBD1C0
:10376000BDE8F0810C2600209C26002010B4034602
:10377000154C8C4692B100EB40010CEB4C00000163
:1037800000EB81012144487A0C7AA04204BF013049
:10379000087210BC614618460FF054BD01EB41029F
:1037A000120100EB400302EB830323449C7ADA7A94
:1037B000A24201D010BC704701329A72034B012221
:1037C0005A5410BC0FF07CBD18260020142600208F
:1037D00070B506461C460D4622B322786378D21A8D
:1037E00012F0030205D0012A40D00133DBB223706E
:1037F0000FE00133DBB230212370042311FB0531CC
:103800001B4A60680C2313FB06131A442146FFF77A
:103810006BFF184B012230465A5529460FF050FDD8
:10382000002070BD0FF036FD0028D6D02946304666
:103830000FF01CFD0028D0D005EB450212010C4909
:1038400006EB460302EB83030B449A7ADB7A9A4237
:10385000C3D122786378D21A920702D00233DBB246
:103860002370D4E902039847002070BD104670BD54
:1038700018260020142600204F4A135C002B00F06D
:1038800099802DE9F04F00234C4F135487B01A460E
:103890004FF03C0BCDE901200BFB007B039300EBC9
:1038A00040030BF1040807EB03174FF00309002353
:1038B000D7E9090105AA0593FFF720FF07F12406C0
:1038C000834698B3059C63782578ED1A05F00305C7
:1038D000012D06D1013B6370D4E902029047059C9B
:1038E00063782078C31A03F00303012B4FF0000222
:1038F00031465FFA80FA0FD0B86AFFF707FF94F8F5
:1039000001C02378C4F804B0A3EB0C0303F0030355
:10391000012B84F801A045D0D7E9090105AAFFF7DA
:10392000EDFE012D83462BD00028CBD197F82E3009
:1039300097F82F209A4203D087F82F300123019364
:1039400097F82C3097F82D209A4203D087F82D3025
:103950000123039309F1FF395FFA89F9B9F1FF0FE8
:10396000A7F10C07A3D1DDE9013AC3B1039BB3B9B9
:103970001A465146504607B0BDE8F04F0FF062BC02
:10398000B9F1000F01D10028D0D0DDF808A00A4A13
:10399000012302F80A30514650460FF091FC07B05F
:1039A000BDE8F08F42462146584684F801C0FFF733
:1039B0009BFEB1E7704700BF1426002018260020A8
:1039C0004B1EDBB289B1411E00EB030C002011F845
:1039D000013F3BB15BB25A1E1340013013F0FF03AD
:1039E000C0B2F7D16145F2D170470846704700BFB9
:1039F0002DE9F04FA44D83B007460326012404218E
:103A000038460CF0D7F938684FF000084FEAD07EFE
:103A10001E234FF0010AC346C1461AE008F1010116
:103A20000E2BC9B25FFA83FE40F29C80D2B3964659
:103A3000CC461C2B40F2A5801B2B40F21281192989
:103A40003BD088469246BCF10C0FE14635D0013B95
:103A50003BD320FA03F202F001027245DED10AF1F3
:103A60000102072BD2B240F2E080062A40F2D78052
:103A7000BEF1000F54D004FA03F220EA0200CC4653
:103A80004FF0000E08F101010E2BC9B288BF0122D0
:103A9000D5D8E14500F0C08019290ED088464FF0F6
:103AA000010AD4E7CC460122052B40F28980062A80
:103AB0004FF0000EBDD11929C3D1013304FA03F32D
:103AC000BEF1000F40D05B42184080EA050301932D
:103AD0000DF1040C0DF1080E00221CF8013B3BB166
:103AE0005BB2591E0B40013213F0FF03D2B2F7D183
:103AF000E645F2D1012A09D983B2B3EB104F4FEA60
:103B0000104224D1C3B2B3EB106F20D1013E16F0A6
:103B1000FF067FF474AF6FF00D0003B0BDE8F08FC7
:103B200004FA03F210434146CC464FF0010E88459B
:103B3000A8D00E2B87D8E14589D141460CF1010C64
:103B40005FFA8CFC52467AE7013B1843BDE7C0F3AD
:103B50000721130A387000207970BA70FB7003B027
:103B6000BDE8F08F09F1010CBEF1070F5FFA8CFC84
:103B70001DD912B9964601225BE7012907D0964666
:103B80005DE700297FF458AFBEF1000F37D004FA8B
:103B900003F2072B20EA020088BF4FF0000EC6D8C0
:103BA0000BF1FF3B5FFA8BFB4FF0000EBFE7002AE3
:103BB0003FF479AF0BF1010B5FFA8BFB96463BE7C5
:103BC000BBF1000F0BD0042B3FF671AFBBF1010F1F
:103BD00005D9032B3FF66BAFBBF1020F09D804FAEE
:103BE00003F210430BF1010B5FFA8BFB4FF0010E58
:103BF0009DE7062A0DD011B14FF0000E1CE704FA24
:103C000003F2072B40EA020088BF4FF0010E8ED866
:103C1000E8E74FF0000E12E74FF0010A8EE7BEF121
:103C2000000F12D14146CC463EE7BEF1000F1FD037
:103C30000BF1010B062A5FFA8BFB0BD904FA03F296
:103C400020EA02004146CC46AAE7062A18D141469E
:103C5000CC46F6E6FBD04146CC46B8F1000F96D0F4
:103C6000EAE601293FF6EBAEBEF1000FC7D08EE7C2
:103C7000062AD7D904FA03F210434146CC46B1E7ED
:103C80004146CC46D5E600BFD6BE898E30B5437FCF
:103C90000568FF2B14D003EB43028B4205EB0212A5
:103CA00028D04FF0000C01E099420BD09E461378CB
:103CB0009468FF2B03EB4302A44405EB0212F3D1FB
:103CC000002030BD714518D0137890680FFA8EFE31
:103CD0000EEB4E0E4FEA0E1E05F80E301378FF2B3A
:103CE00006D003EB430305EB0315AB680344AB605D
:103CF000604430BD9E464FF0000C13784377E4E7F4
:103D0000A2EB010C1CF4000F10B4836844690AD1C3
:103D10002CF07F410B44A34214D91B1B002110BC83
:103D2000836041617047891A21F07F418B4206D838
:103D30002144C91A002310BC8360416170475B1A9B
:103D4000A342EAD8E11AF5E72DE9F04F87B0034620
:103D5000427A01900068029058680590002A00F0AD
:103D6000F680531EDBB200EBC3030F460393039BA5
:103D70005A685E780492FF2F5ED007EB4704029BDF
:103D80004FEA041AB84613F80A7003EB041400252E
:103D9000019B4FF0FF0984F80090D3F800E05A7FB0
:103DA0000EEB0A0B4A45DBF808100FD1CAE0091ADE
:103DB00006D1BBF81EA0BCF81EC0E24500F286800A
:103DC0001EF80330FF2B914672D01A4602EB4203D5
:103DD0000EEB031C1B01DCF808008842E7D9B9F19F
:103DE000FF0FCBF808108BF8002066D1019B83F8F9
:103DF0001D80FF2A08D002EB42020EEB021EDEF805
:103E000008305B1ACEF80830A37801336370002DB8
:103E1000B1D04FF00002EB6A2A700022AA6213B1FF
:103E2000296B104698476368002BA4D1D5E90B2372
:103E3000FF2FC4E90823A0D1039B9878B0422FD06C
:103E4000DDE903B906EB460306EB83039BF800109C
:103E500019F823200136F6B2B14208BF0026042A21
:103E600009EB83051AD195F80180029908EB480205
:103E700001EB02144FEA021AA1786278521A12F08A
:103E8000FF0225D04FF0000209F82320EB6A012041
:103E9000A8620BB1296B98479BF80200B042D1D1C0
:103EA000039A05999142A2F1080350D003935EE76B
:103EB000CBF808108BF800301A460FFA89F909EB95
:103EC00049094FEA09190EF8098092E7014686E789
:103ED000AB8A01994FF6FE70834249692AD04FF6AA
:103EE000FF729A1AB2FA82F2520984F82C206A6A96
:103EF000A262EA6862602A6922624FF6FD7293420A
:103F000088BF0023A383AB69A361EB69E3602B6ADD
:103F10002361AB68A360002363616A682046994609
:103F2000FFF7EEFE4FF00103C4F82490A4F81E90B2
:103F3000E3702DE713466A6AA262EA6862602A6942
:103F40002262DFE70EF80A2083F81D805CE707B0E5
:103F5000BDE8F08F2DE9F04F827F8FB001230692EC
:103F6000C377002A59D1437FFF2B814654D00EF0EE
:103F700011FBD9F8142099F81C3099F81D60801AAB
:103F8000FF2B20F07F4B00F03F81D9F818305B45C4
:103F900094BF002301230393FF2ED9F800704FF044
:103FA000000844D0CDF8109006EB460607EB061447
:103FB0003601A3685B4538D894F802A0BE5DABEB30
:103FC000030B98446378A3EB0A03DBB2012B2AD1DD
:103FD000A069002853D0039B002B4BD0E38B0593A3
:103FE000A26A3AB113681BB1137A002B00F0F38078
:103FF00000231372059B94F82C1001339BB2E383CA
:1040000071B1A18B99420BD2002A00F00081137A82
:10401000012B05D0012335E0C2770FB0BDE8F08F4A
:104020000AF1FF33A370FF2EBED1DDF8109099F88E
:104030000B3099F80A209A420AD10132D2B2022AF0
:104040001CBF13460693069A89F80B2008BF00236D
:1040500009EB8303D9F82440C3F80C80002289F8C7
:104060001F204B46012204210320A4460FB0BDE8C7
:10407000F04F604794F92D300793803343D1A26A03
:10408000EAB1002300201072E568516850600AF11F
:10409000FF3C84F802C0002DC5D0049A60695269C3
:1040A000A8EB0000104420F07F40626ABBB1236996
:1040B0000193E37800934FF6FF73A847B3E7E568F1
:1040C0000AF1FF33A370002DADD06369A8EB0300A4
:1040D000049B5B6911461844626A20F07F40D4F863
:1040E00010C0E38BCDF804C094F803C0CDF800C035
:1040F000A847A369002B039B18BF01230393002348
:10410000E383E3708FE7FF2EB9D0E28BA38BD4F863
:1041100004C005929A4228BFD21A02FB0CC1089132
:104120000799CDF828A0CDE90BB8521AA14633461D
:10413000099200250D9664461BB203EB430307EB7F
:1041400003121B01D2F808804544A8423CD3916970
:10415000002936D0D18B968BD2F804A092F92DE0AD
:10416000B1428C4628BFA1EB060CBAF1000F3FD03C
:10417000AAEB0808002C37D00AFB0C88DDF820A039
:10418000C2458CBF4FF001084FF0000834BF4FF01C
:10419000010A4FF0000AB14292F803B099F80320E7
:1041A0000FD3934529D81EF1800F26D0099AACEB86
:1041B0000E0C944502DDB8F1000F1ED0079A72452F
:1041C00018D0FB5CFF2BB7D1DDE90BB8DDF828A0D8
:1041D0000D9E4C4653E7A38B05998B423FF608AFE3
:1041E0004FF00103137205E74FF00108A246D2E732
:1041F000D046BFE7BAF1000FE3D0DDE90BB8DDF838
:1042000028A00D9E4C46EBE6069B0393C4E6E568AA
:104210000AF1FF33A370002D3FF405AF6369A8EBEB
:104220000300049B5B691844114620F07F40626ADA
:104230003DE700BFC37F002B40F025842DE9F04F00
:10424000827F8DB08346002A40F08C80837AC17AC9
:1042500001208BF81E009942DBF81400079000F053
:1042600038840133DBB2022B08BF13460BEB830209
:104270008BF80A309BF81D30D2680993079B039294
:10428000134423F07F439BF80920CBF81430DBF86C
:1042900000300093DBF804300593531E0692DBB226
:1042A000002A00F0C58101220B92059A02EBC30996
:1042B00000230893FF230193CA46DAF804809AF892
:1042C00003C09AF80270674544D09AF800207B1C1E
:1042D0003EB2DBB29A4208BF002306EB460206EB71
:1042E00082068AF8023018F82600042808EB8604B3
:1042F00042D9082842D86178009A01EB410502EBC7
:1043000005156A7895F802E0A2EB0E0212F0FF02A2
:1043100034D0052841D0012A40F01881062806D063
:104320005846FFF7B3FCAB78A8606B7061789BF8D8
:104330001C308B4200F0D980002008F82600E36A88
:10434000A0620BB1216B98479AF803C09AF80270EB
:104350006745BAD1059A5245AAF1080300F00781D2
:104360009A46AAE7446A0421034601220420A4468F
:104370000DB0BDE8F04F60471F46A4E7002208F8E3
:104380002620E26A0120A062002AF5D0216B904726
:104390009AF803C09AF8027095E7606848B9A06877
:1043A00038B9E06828B9206918B9606930F07F40F1
:1043B000E4D0012A40F0CA805846FFF767FCDBF8DA
:1043C0001430A860074602930EF0E4F8029BC21A6C
:1043D000039B22F07F42D1188F42814640F2AF808A
:1043E0006B6904937A1AD5F804C0BCF1000F51D060
:1043F000A38A002B4ED0013B9FB29445EB8BA78242
:1044000023D20CF1010ECDF818800A9418E0696AE5
:10441000DFF81082844C8844A04584BF01F1E87124
:1044200001F5D43170462C6A94BF604601F5A57140
:10443000013B121A091B9BB294456962EB8301D2BE
:104440009F42E4D3DDF818800A9C9F4221D90CF1E9
:104450000100D5E908E106900A9405E001339BB21A
:1044600060469F42024411D06E486F4C7144081858
:10447000A042F3D801330698A1F1E8719BB2A1F5EF
:10448000D4319F42A1F5A5710244EDD10A9C696225
:10449000EF83AF836168A068049B0A44AA60AA6A9C
:1044A00003446B611AB113680BB1091A51604A4693
:1044B00002992846FFF724FCE268AB69134422699D
:1044C00093428CBF9B1A0023AB61A37D03B1EB70B9
:1044D000E37D13B1013B85F82C30019B2B706B7889
:1044E0006278019201336B7026E7FF238BF81C3052
:1044F00018F82630062B13D0082B11D00EF04AF8EE
:10450000DBF81420831A1D0210D4039A23F07F4392
:104510001344DBF818209A4288BFCBF818300BE719
:104520006068DBF81420831A1D02EED5131A039A73
:1045300023F07F43934234BFD31A0023E9E76B692A
:10454000DA1B531804936B6100224CE704215B468D
:104550000122DBF824400846A047059A8AF8027039
:10456000012352450893AAF108037FF4F9AE9BF8A2
:104570001D30099A9B1A18BF012306930B9B002B31
:104580005AD101995846FFF7DFFB9BF81D30009385
:10459000009B099A934200F06082089B002B00F078
:1045A000D3819BF81D300093009BFF2B00F0BC8251
:1045B000099BFF2B00F0CF82009ADBF800301B4EE6
:1045C00002EB420203EB02130A279D680DF0E2FFA3
:1045D000DBF81440031B23F07F430333AB422CBFB3
:1045E000E418641924F07F44DBF828308046204624
:1045F00098470DF0CFFFA0EB080323F07F43A4EB17
:104600000804033324F07F44A34207F1FF3740F24C
:104610002B82002FDAD140F63E113046FEF7B4F976
:10462000D4E700BF5A2B17FF592B177FC47801001E
:10463000069B0893FF2301930DF0ACFF079B9BF8AB
:104640001D60C31A23F07F49FF2EDBF80030009372
:104650004FD00023DFF87482DFF874A2039F029327
:10466000009A06EB460302EB03141B010493A368B4
:104670009F42C0F04C82029AB4F81EE01A440292A3
:10468000DBF818209342A7EB0307A9EB030925BF2A
:104690004FF0FF338BF81C30D31A0023CBF81830BF
:1046A000A2786378A1699B1ADBB211B1022B00F0EA
:1046B0003881A06A049D0021A1600099495D8BF8B2
:1046C0001D106568002D51D110B1017A012954D017
:1046D00053B1012B02D0BEF1000F05D0236A1BB1EC
:1046E000616A01209847A27862709BF81D60FF2ED6
:1046F000B6D1069B099A0199964218BF01235846E4
:104700000693FFF721FB9BF81D30DBF800A0CDE9F5
:10471000003B0022009BFF2B0FD0009E33B203EB27
:1047200043030AEB03151B01AF6A17B1397A01295C
:104730003BD01AF80360FF2EF0D1DDF804B0002A58
:104740003FF426AF009B09998B427FF426AF089B6C
:10475000002B7FF429AF9BF80930DBF804605F1E63
:10476000FFB2002B3FF420AF0692F8E0002800F0E3
:10477000A080037A012B40F09C806270A760079BA9
:10478000029ADBF814109A182046FFF7B9FA009A3B
:104790000499019B535463780196013363709BF82D
:1047A0001D60FF2E7FF45CAFA3E7019B1B7FFF2BF7
:1047B0004AD0019B039A9B69934245D9A3EB020C13
:1047C0007B6802931A463B6895F800B09A4280F0E5
:1047D000A180BBF1FF0FA3EB020800F09B80D5F88E
:1047E00018E0F0454FF0000331D3F1465A461C461D
:1047F0001CE081680B1F0429234409D9434528BFC5
:104800004346994504D2B3EB0E0301D09C451ED913
:1048100083691AF8022001EB030C0C44A8EB0E0389
:10482000FF2A04EB0E0912D0C84510D302EB420256
:104830000AEB02101201816A0029DAD0097A0129F3
:10484000D7D11AF80220EBE74FF0000CB8E7AA68BE
:1048500002998A1A1A447A605C46AB604FF0FF0EE8
:1048600000E0144621B201EB41020AEB021C1201E6
:10487000DCF80800984280F040811B1AAB601AF8FF
:104880000220FF2AA646ECD1019BCDF800B001EB37
:104890004101090183F81DB01AF801302B700AF8A4
:1048A0000160EB8B013BEB834FF002033B72012273
:1048B00030E7BEF1000F43D1A38B0A931A46681C60
:1048C000D4E908C30021059009E000BF5A2B17FF67
:1048D000592B177F2846013A0144501C0FD06344DE
:1048E00003EB08005045F5D80598A3F1E873013AA9
:1048F000A3F5D4330144501CA3F5A573EFD194F86C
:104900002C206362002A00F0BF800A9BA1607344E0
:10491000E38334E7AB68029AD31A7B600023AB6071
:10492000BFE7A06ABEF1000F7FF4C4AE18B1057AEC
:10493000012D00F00481CBF818108BF81C60B9E64B
:10494000627000220A92BAE79BF80930DBF8046033
:104950005F1EFFB2002B3FF424AE0123069306EB4B
:10496000C70700254FF0010A00967B78FA787E6829
:104970009A420CD160E0012B58D07B783978013312
:10498000DBB2994208BF00239A427B7054D01BB21D
:1049900003EB430103EB810306EB830016F823309E
:1049A000022B17D0032BE6D143789BF808209A42BC
:1049B0003FD9DBF8002003EB430302EB031302793A
:1049C00083F82D208562C36A13B1016B806A984712
:1049D000FA78D2E7D0E901E19EF80020D0F80C8007
:1049E000DBF800C0DBF81440FF2A02D00B68A342BA
:1049F0002BD09BF81D200C600024FF2A12D081468A
:104A000005E01CF803208968FF2A0C441BD002EB48
:104A100042030CEB03111B0188690028F1D08B685D
:104A200048461C448EF80020C8F80040C36A8562DE
:104A3000CAE7C0F828A0C6E7009ABA42A7F108035F
:104A40000ED01F4691E74846ECE702EB4202130105
:104A5000D8F800401CF80320CFE7089B002B59D062
:104A6000069B002B7FF49DAD9BF81F3000228BF836
:104A70001E202BB1DBF824405B460122032175E4A4
:104A80000DB0BDE8F08F704789457FF63EAF681CDA
:104A90000594044605E0284601440132894592B256
:104AA00010D9634403EB08005045F4D82046A3F125
:104AB000E8730144A3F5D43301328945A3F5A57306
:104AC00092B2EED80A98059C1044636283B20A93AE
:104AD0001BE79BF81D309BF809100993DBF80030A9
:104AE0000093DBF8043005934B1E0891DBB20029DC
:104AF0003FD00B920392FFF7D8BBC31ABEF1FF0F52
:104B0000CCF808303FF4CDAE0FFA8EF1BCE6DB1BDB
:104B1000A360EEE59BF80930DBF804605F1EFFB28E
:104B2000002B7FF41CAF9BE70DF01AFD00289BD1F2
:104B3000CBF818000DF02EFDCBF8140094E7009987
:104B4000049DC4F808E0495D8BF81D1061680029D8
:104B50003FF4BBAD11E60DF01DFD04460DF0F0FC79
:104B60009BF81D30009300287FF426ADCBF814404D
:104B700022E5FF230691019303E500BFF0B4049DF5
:104B80009DF81470069C002837D11D4E01F1FF3CA2
:104B9000317232605FFA8CFC49B10CEB4C0C02EBC9
:104BA0000C11914281F82D00A1F13001F9D15A1E6A
:104BB00073727560D2B283B105EBC20254601046C5
:104BC00012F8083903EB430103EB81018542A7EB9F
:104BD000030304EB8104DFB2F0D177B9079A3262A4
:104BE000089A72624FF6FF73099AB2623846C6E9B4
:104BF0000577B3837781F0BC70470120F0BC704724
:104C0000D82600200A4B2C2202FB003210B4546A32
:104C10005CB100EB800200EB420003EB8003A44692
:104C2000012210BC03210220604710BC704700BF66
:104C3000D82600202DE9F843284EBDF82C800446E4
:104C40002C2505FB0465084604EB840104EB4104B4
:104C5000696801EBC00706EB840697F803E011F8DA
:104C6000304079780EF1010C5FFA8CFC644598BFF6
:104C70004FF0000C61452ED079680EEB4E040EEB20
:104C8000840E01EB8E044FF0040901F82E9063604E
:104C9000089BA360099BE3600A9B23610C9BA361B3
:104CA000119B63620D9BE3610E9B23620F9BE3628A
:104CB000109B236302236270A362A4F8148087F818
:104CC00003C0D5E908359847334649460022A8472E
:104CD000A06ABDE8F8830120BDE8F883D82600204B
:104CE00010B58AB00C9C00940D9C01940E9C02940B
:104CF000BDF83C400394109C0494119C0594129CB4
:104D00000694139C0794149C089400240994FFF7BC
:104D100091FF0AB010BD00BF2DE9F84F284DBDF836
:104D200034709DF83880044608462C2101FB04515C
:104D300004EB840604EB460405EB84054C6804EBA5
:104D4000C00614F8309096F803E074780EF1010C68
:104D50005FFA8CFCE14598BF4FF0000C64459DF86C
:104D600044902AD0D6F804A00EEB4E040EEB840E2D
:104D70000AEB8E044FF0050B0AF82EB063600A9B15
:104D8000A3600B9BE3600C9B23610F9BE362109B72
:104D9000236302236270A362A78284F8168084F8DA
:104DA000179086F803C0D1E9083698472B460022B1
:104DB0000421B047A06ABDE8F88F0120BDE8F88F54
:104DC000D826002010B588B00A9C00940B9C019452
:104DD0000C9C0294BDF8344003949DF83840049430
:104DE0000F9C0594109C069400240794FFF794FFF1
:104DF00008B010BD2DE9F0411E4C844608462C2118
:104E000001FB0C410CEB8C050CEB450C4D6805EBE4
:104E1000C00615F8307096F803E0757804EB8C0442
:104E20000EF1010C5FFA8CFC674598BF4FF0000C47
:104E300065451CD077680EEB4E050EEB850E07EB33
:104E40008E054FF0070807F82E80EB62069B2B6358
:104E500002236A70AB6286F803C0D1E9083698472E
:104E6000234600220421B047A86ABDE8F081012052
:104E7000BDE8F081D82600202DE9F041204D844680
:104E800008462C2101FB0C510CEB8C040CEB440C60
:104E90004C6804EBC00614F8307096F803E07478A0
:104EA00005EB8C050EF1010C5FFA8CFC674598BF91
:104EB0004FF0000C644520D077680EEB4E040EEBEB
:104EC000840E07EB8E044FF6027827F82E80C4E993
:104ED0000123069BE360079BE362089B2363022395
:104EE000A36286F803C0D1E9083698472B46002212
:104EF0000421B047A06ABDE8F0810120BDE8F0813F
:104F0000D826002070B50A4D2C2202FB0052D2E9AF
:104F1000083604460846984704EB840304EB430331
:104F200005EB8303B4460022BDE8704004216047CE
:104F3000D82600200DF02EBB401A20F07F4070478D
:104F400070B5044600200D4603F076FC98B903F0D6
:104F500091FE10F006060ED134B10622294607480C
:104F600011F0C2FA304670BD06222946044811F0FD
:104F7000BBFA204670BD0C2070BD00BF0C2700207E
:104F8000042700200128034605D8044A0448002BC2
:104F900018BF104670470020704700BF0C27002044
:104FA00004270020012810B503460BD80846074CFB
:104FB0000749002B18BF0C460622214611F094FA2F
:104FC000204610BD0024204610BD00BF042700204D
:104FD0000C270020022801D00120704738B5044674
:104FE00008461D4604F008FD10B10020287038BDA9
:104FF000204638BD002303700B70704708B5024887
:10500000FEF742FA002008BD6479010030B58389BB
:1050100083B023B1037D0446C3B1022B04D06FF0EB
:105020001505284603B030BD01A901F0ADFA019B7A
:10503000054613B1184611F0D3FA002DF1D12046E0
:105040000EF056FB0025284603B030BD01A90193A0
:1050500000F0C6FB0028F2D011F0C2FA019D002D2D
:10506000EDD0284601F076FF68710199014811F0F2
:10507000E8FEE4E76C1700202DE9F041DFF8B0808E
:105080002C4F82B00CE011F0A8FA2246BDF80210B5
:10509000044601F047FF204611F0A2FA10F0F4FA9E
:1050A0000DF1020101A802F079FB04464FF0FF3236
:1050B0004FF0FF3300211320002CE4D1019B93B16A
:1050C00002F040FC019E304601F044FF019D7071EA
:1050D0006B79032B02D12B79172B0CD0294638463C
:1050E00011F0AFFEDCE74FF0FF324FF0FF334046E8
:1050F0000FF04EFFD4E74FF0FF3321464FF0FF3261
:105100000520EE8811F069FA31460246044605F1A1
:105110001C0001F09DFA304601F0BAFA204624B195
:1051200011F05EFA20460EF0E3FA019DD6E700BFCB
:10513000541700206C170020D0B51B4888B002F02F
:105140004DFA044660BB194801F01AFF00260027FB
:105150006FF00902CDE90324CDE90667CDE90144EA
:10516000134B144900944FF4E07213480FF018FEEB
:105170001249114811F0E9FD6FF00702CDE903244F
:10518000CDE90667CDE901440D4B0E4900944FF47B
:1051900000720D480FF004FE0C490B4811F0D5FDCC
:1051A000204608B0D0BD00BF541700203C000020AE
:1051B00079500000A0290120C818002004790100BE
:1051C000D1510000802B01204819002010790100E6
:1051D0002DE9F04FAC4DAD4FDFF8B482DFF8B4A24B
:1051E000DFF8B492DFF8B4B285B04FF0FF324FF081
:1051F000FF330221284610F0B7FC002840F0AD80B4
:10520000EB6803F4FC23B3F5005F00F0A2802B6A87
:1052100003F4FC23B3F5004F00F006810024EA6894
:105220002B6A6FF352326FF35233EA602B629C4A5F
:105230009C4B1E68BFF35B8F52E8003F23F00101D7
:1052400042E800100028F7D1BFF35B8FDB0744BFB3
:105250000023C7E90033002E40F3ED80DAF8001098
:10526000D9F80030711A19443B68C8F80010002BB7
:1052700000F006815A79002C75D1042A47D8022AF9
:1052800000F2BA804FF4DB715846CDE90032FDF7E9
:105290007BFB019A009B0393002A40F0B38040F20D
:1052A00047115846FDF770FB039B00221A6003A8C4
:1052B00002F0E0FBDAF80030F61AD9F800301E44AC
:1052C0003B68C8F800602BB15B79DA1E012A16D959
:1052D000052B12D0002C88D0204611F0F4F921467D
:1052E0000646002011F0F3F9B389044630465BB15D
:1052F000FEF732F910F0C8F9ECE7002EEAD00021F1
:10530000694810F08DFCE5E70EF0F2F9F2E7052AA6
:1053100016D100293FF469AF79681A683A608B4268
:1053200000F0EE8003934FF0FF324FF0FF33032085
:10533000FEF7BCF804460146039801F0CBF9B3E749
:105340004FF4DB7158460093FDF71EFB009B03935F
:10535000A5E72B6900249C6061E74FF4F77158467C
:10536000FDF712FB4CE7D01E012840F28280052A8F
:1053700000F09C800131627965D0511E3B6805299F
:1053800000F2D180DFE801F003031B1B3003042A85
:1053900003945DD9052A1BD14FF0FF324FF0FF3344
:1053A0000320FEF783F804462146039801F092F9A2
:1053B000039B00221A6003A802F05CFB8AE701212C
:1053C000C8F80010002B40F08A800394002A3FD1D7
:1053D000584640F24711FDF7D7FA039B00221A60A6
:1053E00003A802F047FB00E7002B78D1D8F8003083
:1053F000002B74D00394CFE7786819683960834232
:105400007CD00393022A71D04FF0FF324FF0FF336C
:105410000120FEF74BF80446002C3FF445AF0398FB
:10542000214601F0ADF93FE7686A002200230FF042
:1054300055FD0446F3E64FF0FF33C8F80030002C6A
:105440003FF4D3AE62790394042AA3D8002ABFD0D4
:10545000022A5DD001204FF0FF324FF0FF33FEF7FC
:1054600025F80446002C4DD00398214601F088F918
:105470009EE700210C4810F0D3FBD8F8001079E724
:10548000002C7FF477AFB0E614000020182700202E
:1054900014270020C0270020B02700201879010021
:1054A000C8270020C42700203C0000200029E0D1AC
:1054B0006279511E052936D801A050F821F000BFAD
:1054C0008F5300008F530000D9540000D9540000BE
:1054D000E95300008F5300000123C8F800307B68B7
:1054E00000222260E3B11C607C607EE60022002383
:1054F0000121002011F071F804468DE7796080E702
:105500007A600FE7039B03A81C6002F0B3FA6CE615
:10551000012100200022002311F05FF80446A1E7DA
:10552000C7E9004461E640F26D115846FDF72CFAD8
:1055300003944DE72DE9F843DFF8A890D9F800303F
:10554000002B07468846164612DD274C00252146CB
:105550000622304610F0B7FF18B914F8013C434555
:1055600029D0D9F8003001359D4204F10804EEDB62
:105570001E4D1F4C286804EBC00006223146023045
:1055800010F0B2FF2B68012202FA07F7D9F80020C9
:1055900004F8337004EBC3040F2A84F801801EDC86
:1055A00001321346C9F800202A60102B4FF000008A
:1055B0000AD1286008E00E4911F8352022FA07F3D5
:1055C00013F0010302D00120BDE8F883184601233F
:1055D00003FA07F73A4301F83520BDE8F8830133B1
:1055E0002B60E2E7242700202E2700202827002018
:1055F0002C270020F8B5194C6468A40004D5154682
:10560000174A1268120700D4F8BD03F108040746D0
:105610000E462046022111F066F83E2303700C234B
:1056200043700121204611F05EF8034604221A70EF
:1056300020460B2111F057F808220770A0F80150FE
:105640002FB9311D0330BDE8F84010F04DBFBDE863
:10565000F8400021033010F052BF00BF00000020CE
:1056600008000020F0B5013887B01546092806D893
:10567000DFE800F0092643050557056B889D6FF0AC
:10568000150007B0F0BD544B0D21188810F0C6FF6F
:105690000D212860083011F026F803460222002070
:1056A000072118705A709870DA70187158719A71D1
:1056B000D971187258729872D872187307B0F0BD09
:1056C000454B4121188810F0A9FF4121286008307E
:1056D00011F009F800240546402200F8014B21464C
:1056E00010F00DFF6A78AB7862F0580243F00303C4
:1056F00020466A70AB7007B0F0BD374B092118889F
:1057000010F08CFF09212860083010F0ECFF002415
:1057100000F8014B0822214610F0F1FE204607B0A8
:10572000F0BD89680020FFF70BFC2B4B0121188886
:1057300010F074FF01210446083010F0D4FF034636
:10574000002018702C6007B0F0BD244E224F0FCE01
:105750000DF1040CACE80F00336838888CF8003089
:10576000122110F05BFF12212860083010F0BBFFFF
:10577000002400F8014B112201A910F0B5FE2046CB
:1057800007B0F0BD144B1821188810F047FF1821FE
:105790002860083010F0A7FF00240546012100F81A
:1057A000024B0DF033FE6870204607B0F0BD0A4B87
:1057B0002121188810F032FF21212860083010F0D4
:1057C00092FF0146002401F8114B01300DF092FECA
:1057D000204607B0F0BD00BF1025012078790100F8
:1057E000F0B583898FB00022022B099233D9044689
:1057F0000E460830032110F096FFA28983789A4262
:1058000029D30288CC4FC2F38523082B90B23A806B
:10581000C2F309050DD8BBB1013B072B14D8DFE853
:1058200013F01E0013002D001F0139011300130097
:105830007C003F2B08D109AA21462846FFF712FF1A
:10584000163040F04C863888012110F0F9FE0446ED
:1058500020460FB0F0BD002420460FB0F0BD062D4D
:1058600000F026861D2DEFD1A368188804F0F4FA05
:105870000146388810F0E4FE0446E9E7352D00F2D1
:105880003F812C2D00F22281012D00F07A81032D21
:10589000DAD1AA48AA49AB4AAB4B4FF0FF340460B7
:1058A00041F6FF754FF0FF34C1E9004500200021AB
:1058B000C2E900011F200021C3E9000101F0FAFE46
:1058C0000121388810F0AAFE01210546083010F0A9
:1058D0000AFF9E4B9E499F4A00241C609E4B047009
:1058E0000C6014609D481C600A222146099510F046
:1058F00006FEBFF35B8F9A4B53E8002F42F0010284
:1059000043E800210029F7D1BFF35B8F954B18685E
:10591000214610F085F9099C9AE76A1E4D2A93D812
:1059200001A353F822F000BFA164000077640000D7
:1059300029640000495800001F640000E76300006C
:10594000C9630000BD630000B1630000A7630000ED
:105950008F6300005F630000D9620000D162000025
:10596000AD620000A76200009F6200009762000025
:105970006F620000676200003B6200002562000069
:10598000EF610000CB610000AB6100009B61000093
:105990008B61000057610000496100004361000015
:1059A00017610000F9600000E1600000096000007C
:1059B000D35F0000C75F000049580000495800004D
:1059C000B95F0000B15F0000AB5F0000895F0000BD
:1059D0005B5F0000B1600000A76000008560000010
:1059E00037600000015F0000E35E0000855E00009C
:1059F0005B5E00002B5E0000495800004958000023
:105A00004958000049580000495800004958000012
:105A10004958000049580000495800004958000002
:105A200049580000495800004958000049580000F2
:105A300049580000495800004958000049580000E2
:105A400049580000495800004958000049580000D2
:105A5000075E00004958000049580000515E0000F0
:105A60006A1E082A3FF6F0AE01A353F822F000BFE9
:105A7000AD5C0000EF5B0000C75B00004958000010
:105A80004958000049580000495800004958000092
:105A9000A55B0000052D7FF4D7AEA36804211D8807
:105AA00010F0BCFD042103460830099310F01BFEE2
:105AB0000446E11CA8B204F0F9FAA4F801502070E1
:105AC00000285AD07F23E370099CC1E6A5F12D027E
:105AD000082A3FF6B9AE01A353F822F0E35C0000B8
