:1000000080D70020F962000057DC0100CD620000BB
:10001000CD620000CD620000CD6200000000000053
:10002000000000000000000000000000015C000073
:10003000CD62000000000000AD5B0000CD6200005A
:10004000B15C000091360100B15C0000B15C0000C1
:10005000B15C0000B15C0000B15C0000B15C00006C
:10006000B15C0000B15C0000B15C0000B15C00005C
:10007000B15C0000B15C0000B15C0000B15C00004C
:10008000B15C0000B15C0000B15C0000B15C00003C
:10009000B15C0000B15C0000B15C0000B15C00002C
:1000A000B15C0000B15C0000B15C0000B15C00001C
:1000B000B15C0000B15C0000B15C0000B15C00000C
:1000C000B15C0000B15C0000B15C0000B15C0000FC
:1000D000B15C0000B15C0000B15C0000B15C0000EC
:1000E000B15C0000B15C0000B15C0000B15C0000DC
:1000F000B15C0000B15C0000B15C0000B15C0000CC
:1001000053B94AB9002908BF00281CBF4FF0FF317E
:100110004FF0FF3000F00CB8ADF1080C6DE904CEE3
:1001200000F008F8DDF804E0DDE9022304B07047D0
:10013000704700BF2DE9F04786468C460846089E6A
:10014000154674461946002B40F0C2808542B2FA2B
:1001500082F245D94AB1C2F1200300FA02FC2EFA1C
:1001600003F3954043EA0C0C94404FEA154EA8B2B5
:10017000BCFBFEF8230C0EFB18CC08FB00F943EA8D
:100180000C43994528D9EB1808F1FF3704D299455B
:1001900002D9A8F102072B44A3EB0903A4B2B3FBD5
:1001A000FEFC0EFB1C330CFB00F044EA0344A042AF
:1001B00014D92C190CF1FF3304D2A04202D9ACF1AE
:1001C00002032C44241A43EA07401EB1D440002302
:1001D00034607360BDE8F0874746DDE76346F1E7CA
:1001E00092BB431B01214FEA154EAFB2B3FBFEFC9D
:1001F000200C0EFB1C330CFB07F840EA0343984528
:1002000062D9EB180CF1FF3004D2984502D9ACF159
:1002100002002B44A3EB0803A4B2B3FBFEFC0EFBCD
:100220001C330CFB07F744EA0344A7424ED92C19B0
:100230000CF1FF3304D2A74202D9ACF102032C44E3
:10024000E41B43EA0040C0E7C2F1200320FA03F1B7
:10025000954090402EFA03F303434FEA154EAFB298
:10026000B1FBFEFC0EFB1C10190C0CFB07F841EA5D
:100270000041884504FA02F422D969180CF1FF30D4
:1002800004D2884502D9ACF102002944A1EB08014F
:100290009BB2B1FBFEFC0EFB1C110CFB07F743EA03
:1002A00001439F420ED9EB180CF1FF3104D29F425B
:1002B00002D9ACF102012B44DB1B41EA004192E779
:1002C0006046E3E76146F7E76046A3E76346B7E7C2
:1002D000834206D916B9002108467BE7C6E900E04B
:1002E000F9E7B3FA83F78FB9834201D3724508D88F
:1002F000BEEB020460EB030301209C461EB9002103
:1003000068E73846FAE7C6E9004CF8E7C7F1200C81
:10031000BB4022FA0CF41C432EFA0CF120FA0CF329
:10032000B84001434FEA14490EFA07F5B3FBF9F858
:100330001FFA84FE09FB18300B0C08FB0EFA43EA87
:1003400000439A4502FA07F240D9E31808F1FF305A
:1003500004D29A4502D9A8F102002344A3EB0A0370
:1003600089B2B3FBF9F809FB183308FB0EFE41EA2A
:1003700003418E452CD9611808F1FF3304D28E4514
:1003800002D9A8F10203214443EA0040A0FB0298ED
:10039000A1EB0E014145CE46434602D306D14D4561
:1003A00004D2B9EB020E68EB04030138002EA6D08C
:1003B000B5EB0E0261EB030101FA0CFC22FA07F324
:1003C0004CEA0303F940C6E9003198E74046C5E727
:1003D0004346D9E7000000002DE9F843D0E90B358A
:1003E000D0F828805C193034A0450F46164619D83D
:1003F0001D4DA3FB05011AA3D3E90023FFF780FEDF
:100400000346A4EB0800A0FB050123F07F4414A3DE
:10041000D3E90023FFF774FE20F07F403C6030609A
:10042000BDE8F883DFF840900DA3D3E90023A8FBD3
:100430000901FFF765FE044605F1300008A3D3E982
:100440000023A0FB0901FFF75BFE24F07F4420F0AE
:100450007F403C603060BDE8F88300BFAFF30080B0
:100460008D49FD1A0700000000CA9A3B00000000F9
:10047000002800F064812DE9F04FB74C94F86A2011
:1004800012F001058FB040F0A78194F82500FF23FA
:1004900000F0030084F8263012F006FD94F86A009C
:1004A000420727D494F8292094F8353004EB8202CF
:1004B00004EB8303D66AD3F8388086B1A648314668
:1004C0000BF098FC33785B0605D5062106F024FA7C
:1004D000002800F08381A04841460BF08BFC337864
:1004E00013F00E0F40F0C480236A93B10C200FB0BC
:1004F000BDE8F08F2A4604F16B01C0F3C00012F092
:1005000055FEFF2884F82600CCD0284612F012FDB4
:10051000C8E70AF051FC8146002800F071810AF01A
:1005200057FC8246002800F068810CF00BF8054665
:10053000002800F067814FF6FF73D0F888002B8504
:1005400005F11C030B93002800F04E8105F17C029D
:1005500005F1780106F0ECF9B5F8763095F88E20C3
:10056000DFF8F8B123F4EF6323F0070343F4887353
:1005700043F00103A5F8763095F8393022F00702F0
:10058000594685F88E2003F03F0395F83C2063F030
:100590007F0385F8393022F0070211F8013B85F816
:1005A0003C2095F8922103F0010363F3000285F8E3
:1005B00092217F22002785F8D1204FF4C022C5F870
:1005C0008021C5E912770622C5F88870A5F88C70DD
:1005D0006F86C5F82E7085F83B702F65A5F886717B
:1005E000A5F87C7105F293100B931DF068FB0B9B33
:1005F00095F8922163F341020BF1010185F89221F4
:1006000005F2991006221DF05AFB28460EF028FE2E
:1006100085F84871C5F84C910CF04EFB95F88C317B
:1006200060F3020385F88C310CF04CFB95F88C31AB
:1006300060F3C50385F88C3195F8783167F3410391
:1006400085F87831012128460DF068F805F1D400CD
:100650000EF0E8FB05F11C03C4E9189A2362C5E912
:1006600005772F70ED6113F0B3FC002840F0B880DF
:1006700094F824300121C3F342030DF133008DF8C7
:10068000333006F0DFFA024600285AD098F80110FD
:1006900030460BF0AFF93249B4F8687000253123C9
:1006A000A360C4E905552AA3D3E90023257065603A
:1006B000E560A0FB0101FFF723FD206107F070FD5D
:1006C00080463FB9357805F00F05A5F10105B5FA6B
:1006D00085F56D0994F82400236965F3000010F096
:1006E000010584F8240043D000201E4A1E4F0493C5
:1006F00002250DAE019305920321CDE90200089673
:1007000006944346009007972A460D9507F01CFC77
:1007100031460AF0D7FBA0B9144905914AF2D83303
:100720000093CDE90300CDE90100079708960694F0
:100730004346012203210D9507F006FC3EE00BF035
:10074000D3B8236A002B3FF4D1AE0BF0A1F8CDE66D
:100750008D49FD1A07000000A8370020BB150200D4
:1007600000CA9A3B65BA000051A60000DDB7000040
:100770002B4A2C48049303F24713069402959121C7
:100780001360A7FB000301FB0731274B0793274B9F
:1007900005934FF6FF730992022703930DAE1EA334
:1007A000D3E900230D970896FFF7AAFC4346CDE94D
:1007B00000503A462846032107F070FB31460AF004
:1007C00081FB0028BDD194F86A3043F0010384F81E
:1007D0006A300BF00DFD60B1002088E6122086E63D
:1007E0000BF056F8032082E605F18000C5F888007A
:1007F000ACE6012012F03AFBEEE748460AF0E2FAD6
:10080000072074E650460AF0E9FA48460AF0DAFA98
:10081000F6E700BFAFF300808D49FD1A0700000026
:100820009C370020002AE78451A6000065BA00002A
:1008300070B590F824308AB0C3F342030D460446E5
:1008400001210DF1230016468DF8233006F0FAF948
:100850007178024628460BF0CDF81D491AA3D3E95A
:100860000023A0FB0101FFF74BFC236998420546DA
:1008700021D21B1A00220192164A0293164BA21A89
:10088000A3FB02320221920900230A4409AE099116
:1008900012490591CDE903330321D2B206960093A4
:1008A000184607F0C5FB31460AF00CFB38B9256144
:1008B00000200AB070BDFBD9C21A0023DBE70C2070
:1008C0000AB070BDAFF300808D49FD1A070000002B
:1008D00000CA9A3BA83700208988888851A6000062
:1008E00038B5194C9DF810E094F844C01CF001058F
:1008F00022D163F3420C400194F83230A1874FEAD1
:10090000CE0E0EF0180E00F0200040EA0E0023F08C
:10091000380303430D4884F832309121A2FB0003D1
:1009200084F844C001FB023105A3D3E90023FFF79B
:10093000E7FB2064284638BD0C25284638BD00BF9B
:100940008D49FD1A0700000038380020002AE7848E
:1009500010B504469DF8080022844FEA411CC000EF
:10096000A17D00F018000CF0200C4CEA000C0C48A3
:1009700021F038014CEA010CA3FB0002912101FB9C
:10098000032184F816C004A3D3E90023FFF7B8FBC2
:10099000606210BDAFF300808D49FD1A07000000B2
:1009A000002AE784000000002DE9F047044600F12A
:1009B000350190F8440094F83230C0F3400060F301
:1009C00086138CB084F8323007F02AFC94F8322079
:1009D000A38F4B48E46102F07902002584F83220AD
:1009E0009121A3FB0002C4E90555257001FB0321F9
:1009F00041A3D3E90023FFF783FB3123A360236CDA
:100A0000656018339842E56098BF25643D4D3E4AC5
:100A100098BF03462361651BA2FB0525064607F028
:100A2000BFFB236AC5F307150746002B46D00DF11F
:100A30002C08CDF820800694A38F314A4FF000098E
:100A4000A3FB0202CDF80C90912101FB0321236945
:100A500004932E4B07932E4B05934FF0020A26A3C7
:100A6000D3E90023CDF82CA0FFF74AFB1046194626
:100A70004FF47A720023FFF743FB0435EDB2CDE962
:100A8000016003213B462A46CDF80090484607F016
:100A90005BFA41460AF016FA60B994F8443043F024
:100AA000010384F844300BF07BF908B300200CB04C
:100AB000BDE8F0870C200CB0BDE8F0870DF12C08E4
:100AC000CDE90A33216943460AAA032000F000FF5A
:100AD0000028AED10B990F4807A3D3E90023A1FB4F
:100AE0000001FFF70DFB0A9B20F07F471F44A0E7A2
:100AF000504612F0BBF9D9E78D49FD1A07000000F6
:100B0000002AE78438380020398EE33851A60000E7
:100B1000F5BF000000CA9A3B2DE9F04FB0F81091E4
:100B2000468EB0F82EB0D0F80C7191B04E44BDF89E
:100B30007450BDF868800B915E44B6B2CDE90E32B8
:100B4000721B92B283680A92BDF86C200C92002B43
:100B5000BDF870200D92044609DAC168426823F09E
:100B6000004391422CBF7F18BF188360FF1A0A9A76
:100B7000638D13FB02F39BB2B3FBF8F218FB02F098
:100B800080B283421FFA82FA80F0FA80C01A40F2E3
:100B9000E2428F4902FB00F0A0FB01018AA3D3E9E6
:100BA0000023FFF7ADFA20F07F400744D94494F8C2
:100BB00039304D44AD1B554440F2E246DB09E58532
:100BC00006FB08F500F0ED80226C0A99A36CDFF8B3
:100BD00000B202FB1133A36413F064FA814694F867
:100BE0006C01C0F3420013F05FFA0F9B814406FBD7
:100BF00003F305FB09F9236509F57429754B09F21F
:100C00003F29A3FB09394FEA994303FB0AF0236408
:100C1000A5EB0309A36C6A080344963A934228BFE4
:100C20001346C4E911230023C4F87431A0FB0B015F
:100C300065A3D3E90023FFF763FA0E9B3F1A6648CA
:100C4000A0FB0330800A06FB00F05FA3D3E900237A
:100C5000A0FB0B01FFF754FA06460C9B0D9AA385E7
:100C600042F2107303FB025329462046A4F82A805F
:100C7000013BB3FBF5F3A4F884310EF061FB574B55
:100C8000A18D2B44881DB3FBF5F39AB29042A4F8D2
:100C90007E2102D2521A063A92B20B9BA4F87A2114
:100CA00013B10023A4F886310221012016F0BAFA0C
:100CB000002202218346012005F08AFE48494FF4B4
:100CC000D072204605F014FE00F105085FFA88F89E
:100CD000444B009442460121002007F0C1F930F056
:100CE000020304D0404841F658711BF0CAFE384D4B
:100CF000A9FB055934A3D3E9002328464946FFF749
:100D0000FFF93A4B20F07F4AAAFB03310722E81A89
:100D100002FB0A1169EB01014FF47A720023FFF71D
:100D2000EFF9CDE901A000960894069494F93950A2
:100D30002F48304931EA250128BF01460591216934
:100D400004912D4907914FF6FE713B4603914246AF
:100D50000121002007F0F8F830F0020304D0224807
:100D600041F66C711BF08DFEBBF1000F25D194F89C
:100D7000783143F0010384F8783111B0BDE8F08F89
:100D800008FB1231124840F2E24389B203FB01F141
:100D9000A1FB00010CA3D3E90023FFF7B1F93F1A2F
:100DA00004E70E9B0A48A3FB000107A3D3E9002335
:100DB000FFF7A6F9A946461C4FE70122022110467B
:100DC00005F006FED3E700BF8D49FD1A07000000BD
:100DD00000CA9A3B83DE1B435917B7D17FC3C901B1
:100DE00058180020A1C4000098FD01008D49FD1A8B
:100DF000252001007121010071C4000000000000E5
:100E00002DE9F04F0B68D2F800B01B6897B08A4606
:100E10000B93037F00F11E01C3F3801304461546B4
:100E200014A806228DF847301CF049FF9AF81100EB
:100E30000D90FF280DF1480800F0838042460DF127
:100E4000470111F027FD9DF847600236F6B28DF894
:100E500047600B9B277FD4F800C0CDF830C003F16A
:100E60007109FF09434606F00102494638460BF076
:100E70002FFF00284BD19BF892210E9066F3410280
:100E80008BF89221414606220BF299101CF017FFB5
:100E90009BF8922167F3000249468BF892210BF2EE
:100EA000931006221CF00BFF2F1D032204F12E01CC
:100EB00005F108001CF003FF05F11806042204F1F7
:100EC0002A0138461CF0FBFE052204F13A013046A7
:100ED0001CF0F5FE0521304605F0B4FE6A7F00F0F7
:100EE0003F0060F305026A7794F83F20C2F30401E3
:100EF000A977A18EE981012802F01F0289B206D9E3
:100F00001B3202F01F020B2A01D80E9B09BB0B9B60
:100F10000C9800225A6195F8203062F3000385F89E
:100F20002030E56801262146267109F05DFF28681A
:100F30002E71294609F058FF09F060FF17B0BDE88F
:100F4000F08F062214A940461CF0B9FE9DF84760B8
:100F50007FE7DAF8002053601946E38E2B82EB8995
:100F600040F2E24606FB03F95846638E0F930EF0FB
:100F7000FBF994F83F309BF86C215B0963F3430263
:100F80008BF86C2113F08EF80E909BF86C01C0F377
:100F9000420013F089F80E9BB34A034409FB03F3A4
:100FA00003F5742303F23F23A2FB03239B0C6B6224
:100FB0004FEA5903963BAB6294F8313006FB03F3DA
:100FC000AB63268F42F21072B3B202FB0393494621
:100FD0005846013BB3FBF9F3ABF884310EF0B0F99E
:100FE000A24BA34ACBF888214B44B3FBF9F39AB246
:100FF000ABF87E21298A881D824204DDC1F57F413C
:10100000FA310A4492B2ABF87A21394604220BF540
:10101000B8701CF054FE234613F81C2FC2F3401284
:101020000E92DA0700F1F8804FF48073A3830B9BD4
:1010300093F8260012F0D8F90146062204F12B009D
:10104000002900F0E18004F124011CF038FE0D9B22
:10105000FF2B04F1250000F0DA8014A906221CF011
:101060002EFE9DF84730A3774146062204F11F006B
:101070001CF025FEEB8963862B8AA386E6869BF807
:101080006C31C3F3420384F8383058460BF066FAEB
:10109000A881E08021460C98DAF8044009F0A4FE0B
:1010A000AB89E3801C2323710E9BD4F80080002BB6
:1010B00040F0BF800E9E26772146404609F094FE00
:1010C00009F09CFE95F85B00B5F85060B5F8524009
:1010D000012100F0070012F019FE344404F5617498
:1010E00021188046634800273123CBF80830A1FB44
:1010F00000015BA3D3E90023CBF80470CBF80C709C
:10110000FEF7FEFF20F07F40CBF810000F9ADAF8D0
:101110000C406E6A40F2E24303FB024402213A466D
:10112000012005F055FC0B9D28460AF01FFE821C8D
:10113000514B0095D2B23846012106F091FF04F2DE
:10114000B2440128A9EB0606A4EB08047BD00B9B54
:1011500093F82430DB0764D458460BF0FFF9DFF82E
:101160001491A6FB09863EA3D3E900230546314628
:101170004046FEF7C5FFDAF80830404A0792A3F16F
:10118000490A3F4BCDF818B020F07F47A7FB033149
:10119000B8EB03003B4B05934FF4EB730893DBF87C
:1011A000103004934FF0000303934FF0070303FB49
:1011B000071166EB01014FF47A720023FEF7A0FFDE
:1011C00027A3D3E90023CDE90170A4FB0901FEF7B1
:1011D00097FF053520F07F40EDB2009053462A4638
:1011E0000121002006F0B0FE30F0020304D02648B2
:1011F00040F2D7111BF045FC01220221104605F0F8
:10120000E7FB17B0BDE8F08F1CF064FD1FE7062276
:1012100000211CF05FFD24E71B48FF211BF031FC7F
:1012200002E70023012200931846114606F018FF3A
:1012300092E76B7F43F0400338466B7711F028F953
:101240000126E88337E709F071FE0B9B83423FF4E8
:101250007EAF0D4840F2A1211BF013FC77E700BFE1
:101260008D49FD1A0700000083DE1B437FC3C901BF
:10127000404B4C0000CA9A3BFD1F0100E91F0100D2
:101280008D49FD1A25200100E80102000000000040
:101290002DE9F04F8BB0CDE904011F460020BDF8C9
:1012A00060309DF85490BDF858A0BDF85CB0039331
:1012B00016460AF0ABFF002800F0768109F001081D
:1012C0000446404606F09CFF0290B8F1000F6AD138
:1012D000149B02993A4640460BF0FAFC002840F075
:1012E0007481236A04F11C020692002B62D0236AE7
:1012F0001D6807F0010A93F85A000293C0F3C00179
:1013000000F0070012F000FD029BB3F85010B3F894
:10131000523000F561700144D5481944A1FB000129
:10132000D1A3D3E90023FEF7EBFE20F07F40286134
:10133000304611F0DBFD94F833306FF3410384F84D
:101340003330FF2384F83430002E00F03181A9F1CE
:101350000203012B40F23D8194F84430149969F363
:10136000420384F8443094F833306AF3000384F87D
:101370003330062204F124001CF0A1FC039B2386D9
:1013800004F11C00DDE9042300210096FFF7E0FAD8
:1013900012F01EFE002840F027812046FFF704FBD4
:1013A0000BB0BDE8F08F062105F0B6FA00288FD10A
:1013B0001220F5E709F000FD0690002800F05081AA
:1013C0000BF0C0F80546002800F04781203005F0FA
:1013D0004DFC05F11C03002840F02781032105F195
:1013E0002400079312F07EFBD5F88800079BA5F830
:1013F0002CB04FF6FF72A5F82AA02A85002800F02D
:101400001B8105F17C0205F17801079305F090FA44
:10141000B5F8762022F4EF6222F0070242F48872D7
:1014200042F00102A5F8762095F88E204FF0000BCF
:1014300022F00702012185F88E202846C5F888B0E1
:10144000A5F88CB00CF06AF97F2285F8D120C5F898
:101450002EB0A5F832B005F1340010F0C5FF95F8B4
:10146000392060F3050285F8392001210DF12700AC
:1014700012F038FB9DF827107E4A039B85F83BB09D
:10148000A2FB0102D20802EB4202A1EB820195F815
:101490003920A88DA5F886B102F03F02053185F804
:1014A000392095F83C2085F83A1040F2E24101FBE2
:1014B0000AFA22F0030242F2107101FB03A185F83F
:1014C0003C206D4A079BA5F87CB10139B1FBFAF1CC
:1014D000A5F884114FF4C0215244C5F8801100F1E1
:1014E000060CB2FBFAF291B26145A5F87E1102DD5D
:1014F0000639091A89B2A5F87A11284607930DF022
:10150000AFFE514628460DF01BFF95F86C21069B57
:10151000C5F84C314FF0000B6FF3000285F86C21D9
:1015200085F848B10BF0C8FB95F88C2160F30202F6
:1015300085F88C210BF0C6FB95F88C2160F3C50271
:1015400085F88C2195F878216BF3410285F8782194
:1015500005F1D4000DF066FC95F892211499C5F8B8
:1015600004B007F0010A6AF3410285F892213122A2
:10157000AA60C5F80CB0062205F299101CF09FFB7A
:1015800095F89221029969F3000285F8922105F2FB
:10159000931006221CF093FB079B2362C5E905BB51
:1015A00085F800B0ED61A6E60C200BB0BDE8F08F29
:1015B00012F066F800283FF4CAAE14993846324655
:1015C00011F0F4FD84F83400C1E60B200BB0BDE847
:1015D000F08F002011F0AEFC94F8333043F002039A
:1015E000C14684F83330B7E6256AEB6E23B1234851
:1015F00040F2D2411BF045FA05F1600105F15C00B3
:1016000005F09AF90646E0B12F68EE66D7F84C511E
:10161000EDB1284609F0D6FB38460AF099FF0023C1
:10162000032023620BB0BDE8F08F14480793C42158
:101630001BF027FA079BD1E605F18000C5F888006A
:10164000DFE60E4840F2D4411BF01BFADCE70B4802
:1016500040F2DB411BF015FADBE7069809F0B2FB1C
:1016600007209DE6AFF300808D49FD1A07000000BA
:1016700000CA9A3BABAAAAAA7FC3C90144020200CE
:101680002DE9F04F07468DB0044617F81C9F0E4613
:10169000154600F1240106220AA81CF010FB94F85C
:1016A0001C80FB07C9F3C019C8F3401800F1EF8094
:1016B0000023A383B17C777C11F0010104F12B009E
:1016C0004FF0060200F0CD8004F11E011CF0F7FA85
:1016D000FF2F04F1250B04F11F0A00F0CB805246C6
:1016E000384604F11E0111F0D5F8A37F02330AA990
:1016F0005846A37706221CF0E2FA3368D3F800902C
:10170000EB8963862B8AA386B9F83030E38612F022
:10171000C7FC84F838002F6838460AF01FFF002104
:10172000A881E08038460DF01FFED6F804A020689E
:10173000214609F059FBAB89AAF806301C23DAF8D8
:1017400000408AF80430B8F1000F40F0A6805146FE
:1017500020468AF81C8009F047FB09F04FFBBA6865
:101760007B6895F85A00B5F80E80F4689A4238BF45
:101770001A46C0F3C00140F2E24300F0070003FB49
:1017800008F8924612F0C0FA203400220221241AEE
:10179000012005F01DF948460AF010FD021D464BD8
:1017A000CDF80090D2B20121002006F059FC30F0B3
:1017B000020304D0414840F2E3311BF062F94FF0DC
:1017C00000094B4603220121CDF80090484606F05F
:1017D00047FC38460AF0C2FEB668183EA6EB0A0679
:1017E000DFF8DCA0054632A3D3E90023A8FB0A01F9
:1017F000FEF786FC1946334B0793334B059340F2B3
:101800001343069708933B698046CDE9039310463E
:1018100000234FF47A72FEF773FC25A3D3E900236B
:10182000CDE90180A4FB0A01FEF76AFC053520F032
:101830007F40EDB2009033462A460121484606F02B
:1018400083FB30F0020304D01C4840F214411BF02B
:1018500018F901220221104605F0BAF80DB0BDE8D2
:10186000F08F1CF037FAFF2F04F1250B04F11F0A4B
:101870007FF435AF5846062200211CF02BFA84F87D
:101880001E900AA9504606221CF019FA35E70B48AB
:1018900040F262311BF0F5F80AE76B7F43F040033A
:1018A0006B77281D10F0F4FD4FF00108E8834EE738
:1018B0008D49FD1A07000000592101004402020071
:1018C00000CA9A3B5D210100712101000000000067
:1018D0002DE9F04F8FB0FF2509930B1D08930023CE
:1018E000CDE90533DFF818B18DF82F5004461646C0
:1018F0000C93984604270DF1340A0DF130090223A8
:101900000D93CDE901BACDF8009033460DF12F02C9
:101910002146002006F0E6FB022814D00D9BC3B937
:10192000FF2D1DD0336843451AD0002F40D0013F12
:101930004FF0FF33FFB28DF82F30FF25DFE7214650
:10194000002006F015FC0D9B022BF8D00D9B002B00
:10195000E6D02C484FF433711BF093F8FF2DE1D102
:101960009DF82F00FF2829D00538C3B2042BC6D814
:1019700080B20AF0FBFD0028C1D090F93930002B6D
:10198000BDDBFF2D0369DDF830800AD00599079390
:10199000404606F007FC089B069A9A189042079B5F
:1019A0000ED8CDE905839DF82F50D6F80080A6E724
:1019B00014484FF435711BF064F8B8E7FF2D14D0CC
:1019C000DDE9053210481344A3FB0002072101FBA7
:1019D000032109A3D3E90023FEF792FB099B803082
:1019E000186000200FB0BDE8F08F6FF009000FB055
:1019F000BDE8F08FAFF3008000CA9A3B0000000002
:101A0000B92301009C0202008D49FD1A000000006C
:101A100070B5C56806686B686A681B68D4891969FF
:101A200082B005F1100301AA02200196FFF750FFD2
:101A300008BB0198831B1B021FD4314606F0B2FB82
:101A4000194A03460721A0FB020201FB032114A34C
:101A5000D3E90023FEF754FB2B69184400282861C2
:101A600009DB40F2E24304FB03F3834203D2C01AD2
:101A70008342FCD3286102B070BD0146304606F0B7
:101A800091FB094A03460721A0FB020201FB032147
:101A900003A3D3E90023FEF733FB2B69181ADDE714
:101AA00000CA9A3B000000008D49FD1A00000000AA
:101AB00038B5044613F0E6F8A37DA27DC3F34103D5
:101AC000013303F00303032B08BF002363F3420237
:101AD00014BF03F125002520A27512F0DFF863681A
:101AE0000BB123694BB906F05BFBC11C002015F05C
:101AF000ABF9BDE8384015F025BA15F0D7F9054621
:101B000006F04EFBC11C002015F09EF915F01AFAE4
:101B100015F0CCF9294606F045FB0B4A0346072190
:101B2000A0FB020201FB032105A3D3E90023FEF77A
:101B3000E7FA23691B1A236138BD00BFAFF30080A9
:101B400000CA9A3B000000008D49FD1A0000000009
:101B50002DE9F04F89B0044614F0F8FB14F076FE3E
:101B6000C0B250B912F0E6F8B748214614F0C4FCF0
:101B700009B0BDE8F04F14F03DBE14F087FE0546F5
:101B800015F0CCF8074615F0D3F8814615F00AFB9E
:101B9000064615F0EBFA824615F084F8EDB2804661
:101BA00015F05EF812F0C6F8002DDDD0012009F026
:101BB0006BFA0546002800F03D8117F0FF07F6B2EA
:101BC00040F02F81002E40F0CF804FF0FF093A46C1
:101BD0004B463146204613F011FA0028C4D02A7F24
:101BE000616800238DF81B305FFA88F702F00F035D
:101BF000002900F0D880616891F82010880700F172
:101C0000D280072BB0D0A17D090740F19B81002B2A
:101C100040F0B0806B7F252BA6D8042009F034FA61
:101C20000028A1D015F096F9636A804643B9238C49
:101C300040F2712202FB03F3B0FBF3F203FB120844
:101C400023681A69814B0721A2FB030301FB0231C0
:101C50007BA3D3E90023FEF753FAA0F204534345D4
:101C600082D314F0EFFF63680593484611F0CAFB76
:101C7000E37D8046980740F1DF81B8F1000F00F066
:101C8000DB8141464FF0010B049114F00DFE2B7FD8
:101C9000049907AA039205F11E02CDE901B182461B
:101CA0000146C3F3801300922046002213F0C0F9CE
:101CB000504614F071FD14F0BFFD002840F0CC81B7
:101CC00014F046FB6248214614F016FC002F40F049
:101CD000BD81626892F8203043F0010382F8203021
:101CE000A37D43F08003A37509F0F0F91723037176
:101CF0004FF6FF730746C380514624222D7F1C30C8
:101D00001BF0DDFF3B7FBC60C5F3401565F3451359
:101D10003B7715F0CBF8002138610120079D14F0C6
:101D20004FFD002E08BF4FF0FF092D1A7D6187F887
:101D30001990E37D13F0020303D0B8F1000318BF3C
:101D40000123BA7E63F30002BA7609F0BFF90346B5
:101D500039463868FB6009F0CFF909F0DDF909B0C0
:101D6000BDE8F04F14F000BB5FFA8AF011F0AEFB53
:101D700081462CE7012B40F036816A7F0C2A7FF4E4
:101D8000F3AE2A7FCDF80090194600230193D209C3
:101D900005F12403204613F0A5F800287FF43DAF99
:101DA0002B7F03F00F03002B40F0DC806B7F252B93
:101DB0001A463FF6D9AEA17D01F0210120294BD072
:101DC000002A3FF4D1AE63682BB12B7F03F00F03E1
:101DD000072B7FF4C9AE03209DF81B8009F054F94E
:101DE000054600283FF4C0AE09F070F94FF6FF73C6
:101DF000EB8005232B71002F40F0B0807F20AB7E5D
:101E00002876002E08BF4FF0FF0968F341032868C9
:101E1000AB76294685F8199009F06EF909F07CF93E
:101E2000A2E6A07D5FFA89F1C0F3C00011F00EFBBD
:101E30008146CCE6074840F2D2211AF022FEBCE6E9
:101E400000CA9A3B00000000254D01008D49FD1A93
:101E5000994E0100340402006268002A40F0C180FB
:101E60009620049214F07AFF049A104614F094FE1F
:101E7000032009F009F9804600283FF475AE09F007
:101E800025F94FF6FF73A8F80630052388F80430CB
:101E9000002F40F0D7807F23002E88F8183014BF21
:101EA0004B46FF2388F8193098F81A30D8F800000C
:101EB0006FF34103414688F81A3009F01DF909F023
:101EC0002BF914F0F1FC06460322337862F3030386
:101ED00033702B7F3278C3F3801363F3C7120C2364
:101EE00032707370484611F08DFAE37D9A0701460F
:101EF00040F1B880002800F0B5803378304643F0D8
:101F0000400300F8023B06221BF0D9FE062205F131
:101F10001E0106F108001BF0D2FE304614F03CFC16
:101F200014F08AFC002840F0AC8014F011FA15F08F
:101F300009F8A37D564843F00103A375214614F028
:101F4000DBFA0CE7B9F1FF0F8DF81C90C2F3801893
:101F500055D0227E91453FF45AAE24E714F094FE0A
:101F6000C0B24CE7062B3FF421AF4521D94011F018
:101F700001013FD1012B12D16B7F0C2B7FF4F4AD0B
:101F80002A7FCDF800900DF11B030193D20905F1D2
:101F90002403204612F0A6FF08B16A7F10E72B7FCA
:101FA00003F00F03042B7FF4DFAD6B7F252B3FF68F
:101FB000DBADA37DDB077FF5D7AD14F075FC2B7F80
:101FC0000278C3F38013B3EBD21F7FF4CDAD08309A
:101FD000062205F11E011BF062FE00287FF4C4AD4D
:101FE000DBE71A46ECE6062B3FF4E0AE4522DA408A
:101FF000D107D4D56A7F252A7FF6E2AEB4E505F194
:102000001E0A07AA5146404611F0DEFA00283FF4A6
:10201000C7AEE37D03F0010343457FF4C1AE5146F3
:10202000062204F108001BF03AFE2B7F03F00F0399
:1020300000283FF4ECADB6E6A27D04F11901C2F32D
:10204000801B21E614F020FEC3B225E714F01CFE2D
:10205000059B83F8B5003CE60E4840F2AC411AF00F
:1020600010FD2DE6A37D3278C3F38013304663F371
:10207000861200F8022B04F1190106221BF01FFE44
:1020800044E7044840F231511AF0FBFC4DE700BF31
:10209000394D01003404020002488368DB6A03B151
:1020A0001847704760F40100034883685B6A03B116
:1020B00018476FF05700704760F4010002488368CA
:1020C0001B6A03B11847704760F4010010B403465F
:1020D00006480A4681688C691CB11946234610BC23
:1020E00018476FF0570010BC704700BF60F4010044
:1020F0000146024883685B68184700BF60F401002E
:1021000080B50C4B00AF88B01B686A460A49C2E92B
:1021100005134FF400739383084B42F8103F0848AF
:1021200000234FF4E25101F027FD6FF01500BD468A
:1021300080BD00BF60F401006C0B020003000001D1
:1021400094F7010010B50E4C20461CF06DFB18B939
:10215000BDE81040FFF7D4BFFFF79EFFFFF7AEFFCB
:10216000A3682BB19B6C1BB10649002220469847FF
:10217000A3689B6A0BB102489847002010BD00BFBE
:1021800060F401002D22000098B5022800AF16D09F
:10219000052814D0012814D06C4688B06A460A4B32
:1021A000C2E90530032342F8103F084800234FF4EA
:1021B000C25101F0E1FC0020A546BD4698BD0420B7
:1021C000FBE70320F9E700BF850B020094F701004D
:1021D0002DE9F843124D134EDFF84C8000AF4FF05D
:1021E000FF324FF0FF3328461BF024FE044604F074
:1021F000C5FA88B1E94688B06A460323C2E905609A
:1022000042F8103F002340464FF4C25101F0B4FCA5
:102210002046CD4615F00CFA1AF044F8DFE700BF6F
:10222000B00F0020960B020094F701002DE9F04F4B
:102230008A488FB085686B6B02AF1BB1984708B9AD
:10224000FFF732FFFFF730FF58B1854C2368BBB969
:102250008448002200231BF0EDFD206080B9FFF7C9
:102260002DFF6B6B1BBBDFF80082804E98F80030AF
:10227000032B20D8DFE813F023004900C800E20058
:10228000236899689A896B6973B1744898470146C5
:10229000206808301BF021FE20688689002EE0D1DE
:1022A00015F0C6F92660DCE76FF05701F0E76B48E0
:1022B00098470028D7D13437BD46BDE8F08F6C4C25
:1022C00001212046FFF702FF0028F4D02078431EAA
:1022D000012B03D9421F5342534133B1FFF754FF3F
:1022E0000123306088F80030C0E76C4688B002AA4D
:1022F0006049C2E90510032142F8101F5E484FF4FF
:10230000C45101F039FCA546B0E7DFF864A1DFF85D
:102310006CB19AF80000FFF737FF3168401A584453
:10232000FFF7D4FE35682D1A04463560002D40F0C5
:1023300081800123CDE900A300220023062004F0C0
:1023400075F9DFF83C910346C9F8000078B94D4AA9
:10235000FA610222BA614FF48251786007F11802E3
:10236000454801F009FC7B6888F80030A3E79AF83B
:102370000030022B34D0052B2DD0012B33D19BF80C
:1023800002509AF800003560D9F80050FFF7FCFEC3
:102390003A49024605F108001BF08DFDD9F800000E
:1023A00008301BF0AAFD336898424FF002030FD2A9
:1023B000354AC7E9063200232F4807F118024FF4C7
:1023C000825101F0D9FBD9F8000015F031F903234F
:1023D00088F800302EE0BBF80250C5F30D05D0E7B9
:1023E000BBF80250CDE7EB4688B002AA2749C2E904
:1023F0000513032342F8103F1F482B464FF4C251E8
:1024000001F0BAFBDD46BCE71D4D31682B689A89A7
:1024100098681044FFF75AFE296835688B892D1A91
:10242000034404468B81356025B919481BF020FD13
:1024300088F80050002C7FF419AF3CE7316821295F
:1024400028BF212107F10800FFF740FE33681B1A5F
:1024500004463360002BEDD1BAE700BF60F4010001
:1024600020230020C80F0020AFAF00201C23002035
:10247000AEAF0020AE0B020094F70100AAAF00201F
:1024800018230020C00B0200DE0B0200850B0200A7
:10249000B00F002070B500208EB002F067FA04463D
:1024A00060B1244B0D9302230C93234800230CAA04
:1024B0004FF4825101F060FB0EB070BD1F4804F074
:1024C00067F91F4B0893ADF8244008AD15F8010BD0
:1024D0000134FFF70DFE062CF8D100220023CDE9D0
:1024E000062300236FF00802CDE90323CDE9013371
:1024F00000931449144B15484FF4806219F02CF9DD
:10250000134912480D4D134E134C1CF04FFA4FF067
:10251000FF324FF0FF3328461BF08CFC014630465B
:102520001BF0A6FCA368DB69002BF0D0204698477F
:10253000EDE700BFF90B020094F70100980F0020AF
:10254000040E030180B40020D1210000701100208E
:102550000E0C0200C80F002060F401002DE9F04FBE
:1025600091B08407009302F004030293C2F3C20304
:1025700003F10103DDF86880039205460E460593DA
:1025800040F0BE81041D30B1072909D86FF01B004F
:1025900011B0BDE8F08F01F00706341DC6F1080642
:1025A000009B4FF00009591E4FF0040A4FF0FF3313
:1025B0000193CDF810904F46CB4653460DB1009A8B
:1025C00022600598002800F3EB809A48009A824226
:1025D00003D399488242C0F0E380039AA4EB050E2E
:1025E00092074FEA9E0000F106810F2F00F2B4809F
:1025F000002D00F0088107F140020DEB020C019A5A
:102600000CF8200C0CF8102C049801300490EAE02F
:102610007A2860D84B280ED847285CD829282FD88C
:10262000252855D057D820287DD02338D0F1000B4D
:102630004BEB000B77E0A0F14C0CBCF12E0F4AD80D
:10264000DFE80CF071494949494949494949494933
:102650004C49494949494949495A494C4C5A5A5A9D
:10266000714C6E497149184C18494983804C49494D
:102670004C49800000204FF0000B4FF0040A39E075
:10268000A0F12A0C5FFA8CFC012202FA0CFC1CEA75
:102690000E0F48D11CF062502ED11CEA020B42D022
:1026A000013C5444CAF1000C04EA0C04002D61D032
:1026B000A3EB050CA444B4453FF668AF002868D1ED
:1026C000042B47D158F8043B2360043404232AE048
:1026D000019A013A01924FF0000B24E011F8010C2D
:1026E0006C2834D111F8023C00206C2B8346C4D1F5
:1026F0004FF0080A5346D3E708F1070828F0070807
:102700000734F8E802AB24F0070435B106982044FA
:10271000B0423FF63BAFC4E900AB08344FF0000BCA
:102720004FF0080A534611F8010F002878D0BBF18A
:10273000000F7FF46DAF2528F5D1019B0133019384
:102740004FF0010B4FF0040AECE7584693E70020E6
:102750008346A5E7082B02D06FF0150018E708F1B3
:10276000070828F00708F8E80223C4E90023083422
:102770000823D8E768B9042B02D108F10408A4E7BC
:10278000082BE9D108F1070828F0070808F1080824
:10279000EDE7059A013A059258F8042B00920DE7EF
:1027A000039A900720D5A4EB050E4FEA9E004FF048
:1027B000010CBEF5007FCFD20F2FCDD8F5B107F1B8
:1027C00040020DEB020EC0B2019A0EF8200C0EF87A
:1027D000102CBCF1000F3FF417AF60F07F000EF833
:1027E000200C09F101090137C5F1080204340692F1
:1027F0004FF6DA7E97E74FF0000CDAE7BCF1000FF6
:1028000001D00136EFE7029802360028EBD100989C
:10281000CDE906311BF033FADDE906310644E2E783
:10282000631BB3F5806F97D245B9A6F10804E01891
:10283000AEE600BF60F30100781A0200029A286039
:102840009B082B709DF81030C2B1EB7085F8029098
:10285000B9F1000F05D008A80022C5F1010C97427C
:102860000ED1C5F101030DF120084FF0000A0193CC
:102870000DF1300B574512D1601B89E66B70E5E70F
:1028800010F8013B190608D504EB0C0EB64503F011
:102890007F033FF67BAE04F8013B0132DFE7B9F17D
:1028A000000F03D098F90020002A17DB029BD3B158
:1028B0001AF80B2004F8012B0022019B98182044E1
:1028C000B0423FF663AE98F8000004F8010B00999F
:1028D000039220461BF0F3F9039A14440AF1010A0B
:1028E00008F10108C6E798F8002055F82230009357
:1028F000029B45F8223000981BF0C1F9421CDCE72E
:102900006FF00D0044E600BF2DE9F04F95B000AF29
:102910000446D7F878B0BB61CBF3C0037A623B6161
:10292000396251B903784678807800EB83002044FF
:102930000D46AE421AD8031B3B6294F80290E3782E
:102940007B614E46B9F1000F02D01BF0010F16D18A
:102950007B6953BB7B6A1BB1BA69396A20469847C9
:102960003D6A28465437BD46BDE8F08F00F10108A6
:1029700040461BF084F9013040440135D9E794F812
:1029800000A06368FB617B6A4FEA8A02FA6004EB8D
:102990008A0A002B40F001813D6AD04609EB0A0308
:1029A000002643454ED1CA4413E01BF0020FD1D09C
:1029B00094F800A04FEA8A03FB606368FB617B6ABE
:1029C00004EB8A0A002B78D13D6AB9F1000F4ED191
:1029D0004E461BF0050F0CBF022301237B627B696F
:1029E0000AEB43090BF002033B62CA45B9D01AF85F
:1029F000021B1AF8013C54F82380AD4B984502D3D2
:102A0000AC4B984539D33B69002B43D0F8691AF099
:102A1000ADF800283ED0E8468AB06A46A64B53611E
:102A2000FB69C2E906314FF400731384A34B42F8EB
:102A3000103FA34800234FF4125101F09DF8023DCE
:102A4000C546D2E718F8012B7B6254F822001BF030
:102A500016F9FA6F7B6A01303AB1D7F880209642B6
:102A60003EBFFA6F22F816000136054499E71BF0C5
:102A700004061CBF7E6ACA44ABE73B6923B1F86910
:102A80001AF074F80028C6D11BF0010F05D17B6A3B
:102A9000ED1AAAE73B6A002BA7D040461BF0EFF8DF
:102AA000FB6F43B1D7F880309E423FBFFA6F431CA3
:102AB00022F816300136054497E7B9F1000F71D0BE
:102AC0001BF0040671D0C846002607F140004A46B4
:102AD00051461BF0F4F87B695B00BB607B69CA441C
:102AE0000AEB43037B610BF002037B607B699A4531
:102AF0005DD12378FB6163781BF0020F06EB0302C4
:102B00000CBF4FEA580100211BF0010FD2B240F078
:102B10009D801BF0040F14BF4046002094F802B0C3
:102B200094F803A03B616270A070E170BA69F96823
:102B30007B6A20469847051EFFF613AFFB6923709A
:102B40003B6963704146BA697B6A84F802B084F8D5
:102B500003A007F140009847B0F10008C0F2A3803D
:102B60003B6ABA697869A3EB0901FB68C91ABB68BB
:102B7000C91A7B6A98470028C0F29780A84408EBDE
:102B800000054FF0000B07F1300AB34560DB002170
:102B9000BA697B6A08469847E3E64FF0000807F1F8
:102BA000300094E74E46C84695E7B04693E71AF8DA
:102BB000021B3F4A1AF8015C54F82530934202D3B5
:102BC0003C4A93421CD33B6923B1F86919F0CEFF0C
:102BD00000288BD17B68F3B908F1280207F128009F
:102BE000024408F1010302F8101C07F1500252FAE6
:102BF00083F308F102085FFA88F803F8105C75E7C0
:102C00003B692BB1F86919F0B1FF00287FF46EAF72
:102C10001BF0010F09D006F1280207F12801731CEF
:102C2000561806F8205CDEB260E71BF0040F3FF494
:102C30005DAF08F1280207F1280108F1010302EB5A
:102C4000010808F8105C5FFA83F84FE7002065E799
:102C50001BF80A3087F82F3054F82390FB6FFBB134
:102C600033F81B80BA697B6A012107F12F0098476E
:102C700000281ADB0544B8F1000F06D148461AF0C7
:102C8000FEFF00F101081FFA88F8BA697B6A414625
:102C900048469847002808DB05440BF1010B74E710
:102CA000D7F87C80DEE745465BE6054659E600BF7F
:102CB00060F30100781A0200230C020004000001F6
:102CC00084F70100014B1860704700BF100000201E
:102CD00030B587B00025CDE903010446009503A96E
:102CE0000548059500F018F9DDE904309842B8BFB1
:102CF000255407B030BD00BF15CC01002DE9F047C9
:102D0000058B04462807904611D4022905F00705D3
:102D100040F0CD80204619F0C5FF78B10138218BF5
:102D2000042811D8DFE800F0C3106D859500012953
:102D30000CBF45F0100545F02005258388F3118868
:102D4000BFF36F8FBDE8F08701F0070AAA4500F0D6
:102D5000A6800027B9463E46A368002B00F0BD8040
:102D600041F00801218388F31188BFF36F8FA168B8
:102D7000002900F0BB800D68002900F0B780D1F871
:102D80000480334652462046C047002D76D02B683B
:102D900029461D46F0E701F007035A1F012A1BD8F8
:102DA000002221F00701062B276889B2C4E900221E
:102DB00009D13B4603E0628B013262831B68002B22
:102DC000F9D141F002012183204619F06BFF002860
:102DD0007BD041F0200177E0042B0AD121F00701DC
:102DE00089B22183204619F05DFF10B141F0200126
:102DF0002183218B01F0070AAA4550D00027B9464C
:102E0000AAE7236921F0070141F00601062DD3F856
:102E1000009021832DD1B9F1000F40D041F008017D
:102E2000218388F31188BFF36F8F3A492046C84742
:102E300029E021F00701236941F0040189B2042D42
:102E4000D3F804902183E6D000273E464FF0040AD1
:102E500082E721F00701236941F0050189B2052DC0
:102E6000D3F808902183D6D000273E464FF0050ABC
:102E700072E700273E464FF0060A6DE72B4687E7CC
:102E8000B9F1000FD1D14FF02003EFF3118883F394
:102E90001288BFF36F8F238B23F008032383258BC6
:102EA000EA062ED525F01003238305F00705666991
:102EB000218B002EBFF66FAF00232768C4E90033D3
:102EC00021F0070141F001012183218B01F0070A64
:102ED000AA454FF000097FF43FAF002F9BD041F08F
:102EE0000801218388F31188BFF36F8F002FC7D0AB
:102EF0003D68394633465246204619F0FFFE2F46BC
:102F0000F4E7AB067FF51AAF25F02003238305F025
:102F10000705FFE629CD01002DE9F04F814695B068
:102F20008B4617461C460025387808B9284658E3D2
:102F30007B1C2528039306D05946C8470028C0F2B9
:102F400050830135FBE1182200210EA81AF0C2FEC1
:102F50007B78252B7DD00023781C98469E469C4686
:102F60001E46014610F8012B2B2A00F0A18000F22A
:102F70009880202A00F09F80232A00F09F802BB1A8
:102F80009DF8403043F040038DF84030B8F1000F19
:102F900005D09DF8403043F020038DF84030BEF15D
:102FA000000F05D09DF8403043F010038DF84030FD
:102FB000BCF1000F05D09DF8403043F008038DF8B8
:102FC00040302EB19DF8403043F004038DF840307E
:102FD0009DF8403003F04400442803D16FF386137A
:102FE0008DF840309DF840302A2A43F080038DF858
:102FF00040307FD19DF8412042F001024B1C8DF8FA
:1030000041201A782E2A9DF841200CBF0121002171
:1030100061F341028DF8412078D15A782A2A6ED086
:10302000013300224FF00A0C194611F8010BA0F1F0
:103030003006092E40F295809DF840101292C1F39F
:10304000400040EAD2700A4660F341028DF8402009
:103050005CE0BA1C03928DF843309DF84130DA07EA
:1030600040F12E8154F8048BB8F1000F07DA9DF877
:10307000402042F004028DF84020C8F100085E07AD
:1030800040F1278154F804ABBAF1000F80F2268199
:103090009DF841306FF341038DF841304FF0FF3A16
:1030A0001CE12D2A0DD0302A7FF469AF012358E7A7
:1030B0004FF0010C55E74FF0010E52E74FF00108B9
:1030C0004FE701264DE70EFB0262303A03461846F1
:1030D00010F8016BA6F1300CBCF1090FF3D999423D
:1030E0008FD09DF840101192D20F62F341018DF8FC
:1030F000401086E70B4600224FF00A0EE7E79DF8E6
:10310000412042F004028DF8412002331A786C2AE3
:1031100047D02BD8682A31D06A2A4BD04C2A51D0BC
:103120001A4612F8013B0392782B9DF841208DF846
:10313000433000F2BE806D2B51D8692B00F2B9806C
:10314000572B67D8412B03D0453B022B00F2B180AF
:103150009DF84230042262F302038DF842300123CD
:1031600073E00CFB0202303A0B465DE7742A25D06F
:103170007A2AD5D19DF8412006210CE05A78682A98
:103180009DF8412006D1012161F3C6028DF841204E
:103190000233C5E7022161F3C6028DF841200133F5
:1031A000BEE75A786C2A9DF8412001D10421EBE753
:1031B0000321F0E79DF841200521ECE79DF841202F
:1031C0000721E8E7BDF8402022F4F04222F0020295
:1031D00042F4804242F00202ADF84020DFE76E3B4D
:1031E000D9B201238B4040F282410B4237D113F018
:1031F000240F51D1D8075CD59DF84230032161F3EB
:1032000002038DF8423002F07803A3F140014B42F3
:103210004B411AE0A3F15801C9B2012000FA01F1B3
:1032200011F4624F94D140F6010631421DD111F4E0
:10323000043F3ED09DF8423060F3020302F0780272
:10324000402A8DF8423034D000239DF84020C2F34C
:1032500040010B4363F341028DF84020FDE69DF8E9
:103260004230022161F30203E8E79DF84210022098
:1032700002F0780260F30201402A8DF8421002BF8A
:103280009DF8401041F001018DF84010632BDBD117
:10329000131E18BF0123D8E79DF84230032161F3C4
:1032A000020312F0780F8DF8423014BF012300237F
:1032B000CBE79DF8403043F001038DF84030C3E781
:1032C0009DF94020002AB4BFDDF844804FF0FF385C
:1032D000D5E698077FF5E2AEDDF848A09DF84110ED
:1032E0000023CDE911339DF8423003F00703012B91
:1032F000C1F3C30133D1CB1E042B04D8DFE803F0A4
:10330000214646212100236801294FEAE372CDE9D5
:103310000E321CD19DF93830DA17CDE90E32043463
:103320009DF8403013F0030650D0039B3A465946AF
:10333000484619F0C8FF0028C0F253810544039F96
:10334000F2E554F8043BDA17CDE90E32E8E702293A
:10335000E5D11AB243F3C033CDE90E23DFE7022BE8
:1033600024D1CB1E042B04D8DFE803F0181010186A
:103370001800012954F8043B4FF0000214D0022930
:10338000CDE90E32CCD19BB20E93C9E7073424F0BD
:103390000704F4E80223CDE90E23C1E754F8043B07
:1033A0000E9300230F93BBE7DBB2CDE7042B08D1CC
:1033B000073424F00704D4E900230834CDE90E23B0
:1033C000AEE7032BACD154F8043BDDE79DF8430096
:1033D0007828B4D862281CD825283FF4ADAD5828E9
:1033E000ADD10DF136030093DDE90E0108AB10AA53
:1033F00019F023FFBAF1000F074680F29A80002FE0
:103400009DD00DF13603D81B002E00F0C180013095
:10341000BEE06338152892D801A252F820F000BF10
:10342000F5340000073500003F3300003F33000053
:103430003F3300003F330000073500003F330000FA
:103440003F3300003F3300003F330000953500005C
:103450002D350000533500003F3300003F3300009E
:10346000793400003F3300002D3500003F33000069
:103470003F3300002D350000BAF1000F0E9F35DB01
:10348000514638461AF002FC07EB000A002F3FF4C1
:1034900056AF00269DF8423013F01002059200F05E
:1034A000938002305B06119A48BF129B049210442D
:1034B00048BFC018B8F1000F40F3A0809DF840202D
:1034C000A8EB0008C2F380035007069300F1968032
:1034D000510640F189803EB159463046C847002820
:1034E0007FDB069B01351E4630227EE038461AF00F
:1034F000C6FBC9E70E9B8DF82030002608AF0DF102
:10350000210A0120C6E719075CBFC3F300135E015F
:10351000DDE90E2348BF2B26002BBFF662AF5242D7
:1035200063EB4303CDE90E232D265AE7002658E727
:1035300000269DF840200DF13603DB1B6FF3861249
:103540009A458DF840207FF65AAFAAEB03031193FA
:1035500055E70E9890B30DF13603009310AA08AB0F
:10356000002119F06AFEBDF8423003F0EF0343F486
:10357000F04343F01003BAF1000F0746ADF84230B4
:10358000D6DA00283FF4DBAE0DF13603181A002618
:103590009A467FE70E9B07293FF6D1AEDFE801F0A0
:1035A0000C04060C08080C0C1D70C8E61D80C6E64D
:1035B000EA17C3E90052C2E61D60C0E62E4F064678
:1035C00007F1050A052065E71A0748BF013069E7DA
:1035D0000793104606925946C8470028DDE906239E
:1035E00004DA15B0BDE8F08F2022434619460029C1
:1035F00003F1FF33ECDC45446D1A98462EB1594671
:103600003046C8470028ECDB01359DF84230DA0629
:1036100001D41B0705D559463020C8470028E0DBF8
:103620000135059B33B19DF843005946C847002832
:10363000D7DB0135049E2E4405E059463020C847AB
:103640000028CEDB0135731B002BF6DC53463A46CF
:103650005946484619F037FE0028C2DB0544A84405
:10366000A8EB0503002B7FF76AAE59462020C84718
:103670000028B6DB0135F3E7D70C020016F04EB890
:103680002DE9F047DFF85880044607464FF001095E
:1036900014B93846BDE8F08794FAA4F5B5FA85F573
:1036A00009FA05F32E0108EB05156FEA030A24EA6F
:1036B00003042B7B002BEBD058F806301B694BB969
:1036C0004644042273682846196807EA0A0700F08E
:1036D00043FADDE7284698470028D9D1F0E700BF34
:1036E000FCF7010030B51049104889B000221BF0EA
:1036F000BFFC0F4D0F4900220023CDE90623002413
:103700000E23CDE90334CDE901440B4B00944FF473
:103710004072284618F020F8084928461BF046F960
:10372000204609B030BD00BF4137000070160020B0
:10373000F0110020C0B80020F1390000DD0C0200BB
:10374000014818F097B900BF800F00202DE9F84F0D
:10375000254BBFF35B8F8146884653E8004F621CC0
:1037600043E800210029F8D1BFF35B8F1CB100248E
:103770002046BDE8F88F1D4D1D4E761B361127469D
:103780004FF0010AB74211DBB9F1000FF0D0002C65
:10379000EDD02046FFF774FF0446B8F1000FF6D0D5
:1037A00000214FF4A47018F0FFFDF0E72B7B7BB1F4
:1037B000D5F800B0DBF80C300BB128469847DBF8A1
:1037C000103043B96B6804221968284600F0C4F928
:1037D00001371035D6E7284698470028F2D00AFA74
:1037E00007F31C43F4E700BF70230020FCF701003F
:1037F0000CF80100014B53F8200070474CF8010011
:1038000010B5044C237813B9034818F033F9012399
:10381000237010BDB0AF0020800F00200C4BBFF311
:103820005B8F53E8001F013143E80012002AF8D1F2
:10383000BFF35B8F58B1BFF35B8F064B53E8001F9C
:10384000013943E80012002AF8D1BFF35B8F7047BB
:10385000682300206C2300200020064BBFF35B8F01
:10386000014653E8000F43E80012002AF9D1BFF3E4
:103870005B8F704768230020F8B5FFF7EDFF0A4C17
:103880000A4D2D1B07462D110026AE4200DBF8BD68
:1038900063685B792BB123685B6813B139462046B6
:1038A000984701361034F0E7FCF701000CF80100EE
:1038B0000149024819F073BE38F8010024230020A2
:1038C000084A08B500231370074A1360074B084ADB
:1038D0001A604FF4004000F0C1FBBDE80840FFF75C
:1038E000E7BF00BFB1AF0020682300201400002014
:1038F00061D80100014600220148002319F070BE82
:1039000024230020014819F009BF00BF2423002010
:103910000146014819F052BF24230020014819F044
:1039200081BF00BF24230020F8B5194B187870B36D
:10393000FFF7E8FF0546A8B1BFF35B8F154B53E8CF
:10394000001F013943E80012002AF8D1BFF35B8F52
:10395000114C124E361B36110027B7420CDB28469D
:10396000FFF7D6FF0E4B1B68002B01DDFFF784FF2E
:10397000BDE8F840FFF7D2BF63685B7923B12368E5
:1039800029461B682046984701371034E5E7F8BD03
:10399000B0AF00206C230020FCF701000CF8010000
:1039A00068230020F8B50F4F3D787DB90E4C0F4EBF
:1039B00029460120FFF7CAFE361B3611B54206DB49
:1039C000FFF7B2FF0028FBD101233B70F8BD63680D
:1039D0005B791BB1236820469B68984701351034FA
:1039E000ECE700BFB1AF0020FCF701000CF80100CC
:1039F00000212DE9F84F0846FFF7A8FE044680B3E2
:103A000040F267684FF0000918F0E8FC1D4B1860A1
:103A100030B11D4B1B68092B02DD1C4818F02AF839
:103A20001B4E1C4BDFF864B0F61A3611002744B168
:103A30002046FFF725FE044618B94FF0FF384FF037
:103A4000FF39FFF771FF054648B91FB1114F824694
:103A5000B2450BDB42464B46584618F031F82F462C
:103A6000E5E74FF0FF384FF0FF39CDE73B689B6942
:103A70001BB100221146384698470AF1010A103757
:103A8000E6E700BF642300206C230020800F0020A5
:103A90000CF80100FCF7010013B5214B1B6804462C
:103AA00098472146A0601F4819F018FEBFF35B8FAE
:103AB0001D4B53E8002F511C43E800100028F8D19B
:103AC000BFF35B8F194B1B787BB14FF02003EFF3F3
:103AD000118483F31288BFF36F8FFFF725FF84F300
:103AE0001188BFF36F8F02B010BD114B1B68002B04
:103AF000F9D052B900220023CDE900230D484FF43C
:103B00000042002318F0A6FEEDE70A2AEBD109488F
:103B10001BF0BAFA084802B0BDE8104017F0AABF7F
:103B200014000020242300206C230020B1AF0020CB
:103B30006423002070160020800F0020044A054BEB
:103B40009B1AB1EBD30F34BF52F8310000207047FD
:103B500054F60100FCF70100064B4268C31A1B1122
:103B60000133137143681960436801225A71FFF7EA
:103B700047BE00BFFCF701002DE9F04F8FB0C1F345
:103B8000CB44C1F3492605900D469046994617341B
:103B9000002E3CD04FF0040B09AF4FF00A0A002270
:103BA00031460BABCDF808B00197CDF800A04046E8
:103BB000CDE90B220D920796FEF7A6FEC0F309038E
:103BC000181920F0070080081E4663F3522506935B
:103BD000FFF790FE044678B1069B0C93103000224C
:103BE0000B900D92CDE9017B0C4A0799CDF800A00E
:103BF0000BAB4046FEF788FE66F3522505994B460F
:103C00002A4620460FB0BDE8F04F19F054BE24F00C
:103C100007008008FFF76EFE0446EDE78BD8010031
:103C20002DE9F04F87B0DDE91269DDE9105A04464D
:103C30000F4693469846B6B31021CDF80090334610
:103C400052460020CDF81490FEF788FC0146174B31
:103C5000039104F007040BF0070BE40003EA41238F
:103C600005F1170044EA8B141C430844104B20F064
:103C7000070003EAC54380081C43FFF73BFE0546E7
:103C800040B13EB10399CDF8009033465246103012
:103C9000FEF764FC434622463946284607B0BDE895
:103CA000F04F19F008BE3146D1E700BF00FE070013
:103CB0000000F87F0EB403B503AB014653F8042BA4
:103CC0000448019319F01EFE02B05DF804EB03B046
:103CD000704700BF2DD90100CA0605D48B064CBF22
:103CE00002490349FFF7E6BF704700BFEA0C020034
:103CF000E90C02002DE9F04F89B09B469DF8483051
:103D00000493DDE913930593049B0692DDE9157690
:103D100004460D46002B00F0878006F00803079349
:103D200019F0B1FD06F0020A024600284BD0864980
:103D30002046FFF7BFFF8046BAF1000F08D016F00B
:103D4000440F42D181492A462046FFF7B3FF804401
:103D500006F001035BB17E4B049A7E4953F82220A2
:103D60007D4B2046002A08BF1A46FFF7A3FF06F046
:103D70000803002B55D0794B049A794953F8222037
:103D80002046FFF797FF0546069B2BB175491A465B
:103D90002046FFF78FFF0544BBF1000F05D07249A5
:103DA0005A462046FFF786FF05444544B9F1000F07
:103DB00049D1002F4FD1F30700F1C0803146204692
:103DC000FFF78AFFB4E08046B6E7684B1868002822
:103DD000BDD0674B4FF47A7E1B68B5FBF3F54FF40B
:103DE0006162B5FBF0F300FB1355B3FBF2FA0EFB77
:103DF00005F502FB1A323C21B5FBF0FCB2FBF1F3F6
:103E000000FB1C5501FB13220EFB05F50092B5FBD0
:103E1000F0F55849CDE901C552462046FFF74AFF63
:103E200095E706F00805AFE7BBF1010F06D1B9F140
:103E3000000F64D1002F7BD000250CE0B9F1000FFA
:103E4000F8D04D485CE04D484D494B46224618F0AD
:103E50005CFE002F68D0DFF82C91DFF82CA1102F2A
:103E600031462046B84628BF4FF01008FFF734FF10
:103E70004FF0000B5D4545DC059B51461A78204606
:103E8000FFF718FF4FF0010B1BF0070F03D1494656
:103E90002046FFF70FFFD8453BD9059B514613F845
:103EA0000B202046FFF706FF0BF1010BBBF1100FB3
:103EB000EAD1364920464FF0000BFFF7FBFE5A4689
:103EC000059B9A5CA2F120015F2928BF2E22304970
:103ED0002046FFF7EFFE0BF1010BBBF1100F1DD0D9
:103EE0001BF0070F03D149462046FFF7E3FED845F4
:103EF0005A46E5D849462046FFF7DCFEEBE71F4867
:103F0000049DA1E749462046FFF7D4FE0BF1010BC3
:103F1000B0E720492046FFF7CDFEC5E7059BB7EB8C
:103F20000807434405939AD1049B002B7FF443AFC9
:103F3000204609B0BDE8F04F19F0EBBC064A054930
:103F40002046FFF7B7FE39E7F10C0200F50C02003E
:103F500058F801001A0D0200EC0C02006CF8010088
:103F60001D0D0200230D0200270D02007823002002
:103F700074230020FE0C020063D901002DD901003A
:103F800005D90100340D02002C0D0200360D02008F
:103F9000380D0200320D02002DE9F0410F884B6808
:103FA0008E6886B005460C469046C7F382175BB113
:103FB000134A9B1A43F3CF0100291FDB2078C0F37B
:103FC000C200FFF7BBFD03462146608851F8102B65
:103FD0000097C2F34922002A01EB0204C0F3CB0090
:103FE00008BF0021CDE90308CDE9011400223146C4
:103FF0002846FFF77FFE06B0BDE8F0810023E3E727
:1040000054F6010073B542F20F738B4228BF0B4682
:1040100005680F4A04460521684618F01BFE6368D0
:104020000C495B6806460B22284619F05EFC636863
:104030003246694628465B6819F057FC63680649B2
:104040005B681B22284619F050FC02B070BD00BF0F
:1040500018170200570D02003B0D0200074A00210D
:104060000123904206D8064A01B901231360054B8B
:104070001860704740085B000121F2E740420F00E2
:104080007423002078230020014B01221A7070470E
:10409000B2AF0020014B0020196070479023002030
:1040A000024B034801221A7019F033BCB3AF002051
:1040B0009CF801000148FFF7A5BF00BF9CF8010074
:1040C00010B5064B18680C46FFF794FB21460346D3
:1040D000BDE8104002480F22184700BF902300207F
:1040E0009CF8010010B9074B18707047064B1B78FD
:1040F0001BB141F288301AF095BFA420002118F0BE
:1041000053B900BFB2AF0020B3AF00202DE9F84390
:10411000DFF874901D4F80460E46042499F8005035
:1041200095B917F003F928463246414617F080F852
:10413000054617F005F9E5B101233B7099F8003009
:1041400073B93046BDE8F88332464146002017F087
:104150006FF80546EFE72046FFF7C4FF651E2C46C3
:10416000002017F0D9F80028EBD03B78002BF2D1D3
:10417000E7E73B78002BE4D0013C2046FFF7B2FF95
:104180003B78002BCAD1DCE7B3AF0020B2AF0020F0
:10419000F0B40C4B0C4E5F6A0C4BB34203D36FF080
:1041A0008500F0BC70475D68BD4209D31C693CB115
:1041B00095F802C00579AC4502D12346F0BC1847FA
:1041C0002433EAE7942300206C11002048110020DA
:1041D0002DE9F047134CDFF85080DFF8509005468A
:1041E0000E461746444503D36FF08500BDE8F087BF
:1041F0006268D9F824309A4212D3A36983B19078C7
:104200002979884205D13A4631462846BDE8F0472B
:1042100018475279012A03D13A4631462846984731
:104220002434DFE7481100206C1100209423002083
:104230002DE9F0410B4CDFF8308005460E4617465D
:10424000444502D36FF0850009E063690BB924345B
:10425000F6E73A463146284698470028F7D1BDE8A8
:10426000F08100BF481100206C1100200248082294
:10427000002119F02FBD00BF4F24002070B50B4B5B
:104280000B4CA34201D3002070BD196A1E7F00228F
:104290000439D5B2AE4201D82433F2E7013211F825
:1042A00032508542F5D10120EEE700BF48110020D1
:1042B0006C11002008B509480378C3F341130A3391
:1042C00050F823303BB100F1080200F1100198478B
:1042D000C043C00F08BD1846FCE700BF9423002070
:1042E0007FB5084B0593022304930748002304AAD3
:1042F0004FF48251FFF740FC4FF0FF3007B05DF8FC
:1043000004FB00BF930D0200E4F7010004282DE92F
:10431000F047DFF88C8004460E4613D1FFF7A6FF66
:10432000204B93F8B930ABB100F0C6FE1E4D4545A9
:1043300026D2D5F8209000272A7FFBB29A4217D8C0
:104340002435F4E7052810D1164B93F8B9300BB19A
:1043500000F0B2FE144D454517D3124B1B6AE3B172
:1043600031462046BDE8F04718470128F2D1D7E78B
:1043700009EBC3030137187913F00AFF0028DBDAD1
:10438000084B002283F8B920E4E7EB681BB1324602
:104390002146284698472435DDE7BDE8F08700BF71
:1043A0006C110020942300204811002073B5C4B282
:1043B00063060D468DF8074007D02046FFF75EFFE5
:1043C00078B10D4B93F8BA0058B10B4E204655B159
:1043D00013F03EFEF3691BB10DF107010820984769
:1043E000012002B070BD13F06DFEF369002BF7D011
:1043F0000DF107010920F2E79423002090B583B066
:1044000000AF83783B700379427943EA02237B80D3
:10441000C378384603F003033B7113F0E5FD10F158
:10442000780F0346387814D09BB16C4688B06A4642
:10443000114BC2E90530032342F8103F0F48002317
:104440004FF4C251FFF798FB0020A5460C37BD463C
:1044500090BD13F073FE10F1780F08D038B16C46A0
:1044600088B03B786A460649C2E90513E3E7054B85
:10447000012083F8B900E9E7B80D0200E4F7010074
:10448000DC0D0200942300202DE9F04FA74E83B0ED
:10449000B36900AF044688461546FBB9237803F09C
:1044A0001F03012B00F0A180022B00F0218133BB00
:1044B00094F900102A686078002936DA062812D0AC
:1044C00008282DD0D8B901231370507096F8C33046
:1044D0005B0043F00103137002234AE19847002870
:1044E000DCD100200DE06288100A011F01298446FA
:1044F00005D9072803D8716AD2B20C782CB96FF0AD
:1045000015000C37BD46BDE8F08F4E78664503D1E7
:104510009A4200F0298101332144EEE70B7828E12B
:1045200096F8BA301370012323E101380828E6D841
:1045300001A353F820F000BFD5450000FF44000060
:10454000E3450000FF4400005D450000FF4400001B
:10455000FF440000FF44000069450000A07813F00C
:1045600007FD0028BDD0CAE76388756A6BBBFFF7FB
:104570007DFE638886F8BA30F369002BB1D06C49B0
:1045800003209847ADE76B78042B11D0052B12D090
:10459000022B05D195F805806388434508BF0120AB
:1045A0002B781D442B78002BEDD10028A7D0DEE717
:1045B00095F80390F4E763884345F1D1B9F1000F12
:1045C000EED12846FFF71AFFEAE74FF0FF08002078
:1045D000C146E7E76388012B91D1002386F8C330F9
:1045E0007FE76388012B8AD1F8E796F8BA3029680B
:1045F000002B84D0756AA28894F804E02B4693F8C7
:1046000000C0BCF1000F3FF47AAF5878022804D103
:1046100093F80490F14500F2AF806344EFE70B702C
:104620004B70C8F800005CE71D44B2E00B2B7FF430
:1046300066AF4FF0000B4FF0FF08C146DA4606E0C8
:104640006B78042B10D0052B23D02B781D442B78AE
:10465000002BF5D1F36913B1514607209847BBF100
:10466000000F7FF43EAF4AE795F80280A38895F8E3
:1046700003909845E9D163889945E6D1B8F1070FD1
:1046800034D806EB0803AA4683F8BB904FF0010B21
:10469000DBE7A3884345D8D1A3784B4521D095F8D3
:1046A00002B0584600F0EAFC584613F071FD10F1D4
:1046B000780FEBD00028E9D0C7F804D088B06A465C
:1046C0001C4BC2E9053B032342F8103F1A48002364
:1046D0004FF4C251FFF750FAD7F804D04FF0000B57
:1046E000B3E72846FFF78AFE8346AEE7AA46F5E71A
:1046F00094F900206378002A20DA002B7FF4FFAEC3
:1047000024792D6863060AD02046FFF7B7FD0028FC
:104710003FF4F5AE96F8BA30002B3FF4F0AE2946E0
:10472000204613F0EFFC00236B70D5E694230020A5
:104730004E240020FD0D0200E4F70100012B08D0FB
:10474000032B7FF4DCAE6388002B7FF4D8AE01210D
:1047500003E0618800297FF4D2AEA088FFF726FE2F
:1047600000287FF4BEAECAE6022829607FF4D6AEE8
:104770004B88C8F80030B4E694F900C06378BCF107
:10478000000FBFF653AF002B3FF449AF0A2B7FF465
:10479000B6AE2B78002B3FF4B2AE687804287FF4D5
:1047A00043AFA87882427FF43FAF072A96BF9219A1
:1047B000002392F8BB300B70B5E600BF13B5134C65
:1047C000237DCBB9E268A168019201AB802019F08A
:1047D000D6F8019AA3681344A360E3689B1AE360C8
:1047E00043B93AB12369E2889A4203DD9B0601D1BD
:1047F0000123237502B010BD00231A4619468020FC
:10480000237502B0BDE8104013F0E8BC94230020EB
:1048100070B58AB000230D4601930646002868D182
:10482000002940D108220B460DEB020119F087FB4D
:10483000002804DA802013F00BFC0AB070BD324C63
:10484000029A2260039A626004F13802A2609DF924
:104850000820BDF80E302575002AC4E9035515DB84
:10486000802B0FD9294B09930223089328482B4604
:1048700008AA4FF48251FFF77FF9802013F0E8FB7C
:104880002846D8E713B1C4E90333D6E7FFF712FD92
:104890000028CFD0E28823699A42D4BFE260E36067
:1048A000FFF78CFFC9E7184CD4E90212002A01ABCC
:1048B00005DC024619F043FB0028BEDABAE719F01E
:1048C0003EFB002804DA802013F0C2FB3046B2E73A
:1048D000019AA3681344A360E3689B1AE360002B6A
:1048E000ABD104F13803A360FFF7E4FC0028D7D173
:1048F000A0E78028A1D1044BDA68002AD0D11B7D23
:10490000002BCDD199E700BF942300201F0E020099
:10491000E4F70100054B064A9A62064ADA62064A43
:104920001A63064A58629A61002070479423002057
:10493000894400009141000031420000D141000053
:1049400010B5094B93F8B84054B900F0CDF818B938
:10495000BDE81040FFF7C4BCFFF7DCFF204610BDE8
:104960006FF07700FBE700BF942300202DE9F341AF
:104970000446354D35484FF0FF324FF0FF3316F007
:104980008FFF95F8B860002E5BD131482C62E8614A
:1049900013F098FD13F0AEFA041E36DB00F0B0FB06
:1049A000041E32DB40236846ADF802308DF8046007
:1049B0008DF8006013F018FB041E26DB8027684684
:1049C0008DF8007013F010FB041E1EDB21493046E9
:1049D00013F064FD041E18DB1E49384613F05EFD1B
:1049E000041E12DB1C4CDFF87480444514D30020F5
:1049F00013F0A4FB041E08DB802013F09FFB041EB1
:104A000003DB012385F8B8300024104816F0C2FFFC
:104A1000204602B0BDE8F081276A0026227FF3B26B
:104A20009A4201D82434E0E707EBC30257F8331069
:104A3000107913F033FD01360028EFD04FF0FF342A
:104A4000E3E76FF07704E0E7942300206C0F002089
:104A50000D43000011480000481100206C11002097
:104A600030B51F4B8BB005AA03F1100518685968C3
:104A7000144603C40833AB422246F7D11B78237097
:104A80001022002101A819F025F912220021154851
:104A900019F020F9102101A819F045FB00281BDDB1
:104AA0000828B8BF0820093801AB0E491A180020A1
:104AB00012F8013F0AAC04EB131403F00F03283380
:104AC0006B44013014F8144C13F8143C0C70082893
:104AD0004B7001F10201EBD102480BB030BD00BFB9
:104AE000430E0200C4AF00202DE9F04F834C8BB081
:104AF00000AF00264FF0011BB2463546B046237882
:104B000043B97F4B02349C42F3D17C482C37BD46DD
:104B1000BDE8F08F6378052B05D8DFE803F0A60425
:104B200003A6073FA04623781C44E8E7E378002B60
:104B3000F9D1A37843B30AF1010A5FFA8AFAF2E7DE
:104B40006A68944223D024359D42F9D36D4688B0DB
:104B50006A466C4BC2E90534032342F8103F6A48A9
:104B600000234FF4C251FFF707F8AD46674B7B6255
:104B700002233B626448002307F120024FF4825174
:104B8000FEF7FAFF0020C1E7614D624BDCE7AB683E
:104B9000002BD0D0514620469847CCE7002D62D15B
:104BA0005D4B7B6202233B625748002307F12002E2
:104BB0004FF48251FEF7E0FFD8E7296AA07801EBB5
:104BC000C2010B79984205D001322B7F9A42F4D36F
:104BD000524BE6E74FF00109E07800F0030038752A
:104BE000207994F805C040EA0C20788294F90200FC
:104BF00000285FFA89F328DA09F110004FF0010C60
:104C00000CFA00F010EA0B0F27D143F08000387443
:104C100007F11000C7E90131FA6013F0BBF9D7E9D9
:104C200002127B68C8B93A7CA27012F0800F18BFDC
:104C300010330A7118BFDBB24FF0010214BF9A4063
:104C400002FA09F24BEA020B6DE7012000FA09F0C3
:104C500010EA0B0F01D11846D9E709F10109B9F1A2
:104C6000100FB9D1B0E70022AFE7032E2AD1FFF72A
:104C7000F7FE8146A8B119F002F8F86088B128481B
:104C800018F0FDFFFA68824217D0264B7B620223A0
:104C90003B621D48002307F120024FF48251FEF7CA
:104CA0006BFF23786FF00201E218091B04EB53033A
:104CB000D1420ED50136F6B235E74946A01C18F0B0
:104CC000FEFFEEE7002EECD1B8F1000F0AD1164B33
:104CD00067E74FF0000002F8010C13F8010902F831
:104CE000020DE5E7A4EB080388F80230C3F30723BD
:104CF00088F8033088F804A0DCE700BF7C100020AF
:104D000045110020540E0200DCF701003A0F0200AA
:104D1000481100206C110020740E0200B50E020034
:104D2000430E0200D20E02001D0F020010B5094B07
:104D300000211A461C78844205D15C681CB14823C6
:104D400003FB012010BD0131042903F14803F1D117
:104D50000020F7E7582400202DE9F04383B050F8F5
:104D6000303C10F8345C103300AF044611D10369B5
:104D700050F8282C13F002064ED00ABB13F004039F
:104D800004D11A461946284618F0F9FD002344F8C4
:104D9000303C54F8303C10330ED054F8206C5EB1E7
:104DA00054F8248C54F81C9C19F0FAFD00286FD09C
:104DB0003F48214619F0A8FF0C37BD46BDE8F083F7
:104DC00050F82C1C3B1D284618F0D9FD98B16E46B2
:104DD00088B06A46374BD561C2E90530042342F8F2
:104DE000103F354800234FF40151FEF7C5FEB5468C
:104DF0006FF01503CBE77A6854F82C3C134444F861
:104E00002C3C54F8283C9B1A44F8283C54F8243C89
:104E1000134444F8243CBCE750F82C1C3B1D2846A6
:104E200013F07EFA88B1E84688B06A46214BD56116
:104E3000C2E90530042342F8103F1F4833464FF4BF
:104E40000151FEF799FEC546D2E77E6854F82C3C26
:104E5000334444F82C3C54F8283C9B1B44F8283C31
:104E600054F8243C334444F8243C002E8ED0284689
:104E700013F02EFBB6FBF0F303FB1066002E85D17A
:104E800054F8283C002B81D0284613F0AFFA80E775
:104E900044F8200CA4F1180016F0ECFD54F8303C56
:104EA0008C3389D04A4641462846B04784E700BF44
:104EB000A8160020680F0200F4F7010070B54B1E21
:104EC000012B88B006460D4618D8FFF72FFF044681
:104ED000B0B9012D12D101AB012202A9304613F065
:104EE0001FFA019B002BF6D10F4A0792022206926D
:104EF0000E4806AA4FF48251FEF73EFE08B070BD80
:104F000019F04EFD04F1340108B1012D05D1084618
:104F100008B0BDE87040FFF71FBF054808B0BDE806
:104F2000704019F0F1BE00BF850F0200F4F70100D8
:104F3000A81600202DE9F04F8BB000AF0546B960F0
:104F40001646FB6018F063FD002840F088804FF0A3
:104F50002003EFF3118283F31288BFF36F8FDFF822
:104F600004917A60834600230022484616F0A8FD8B
:104F70000346F0B9DFF8F0A0482000FB0BF00AEB85
:104F80000008D8F8044014F1100F31D16E4688B0F3
:104F90006A463649C2E90515032142F8101F344814
:104FA0004FF4C251FEF7E8FDB546484616F062FDE3
:104FB00014E00BF1010BBBF1040F09F14809D2D148
:104FC0002C4B7B6202233B622948002307F120021D
:104FD0004FF482516FF00B04FEF7CEFD7B6883F334
:104FE0001188BFF36F8F20462C37BD46BDE8F08F88
:104FF000C8F810303B6DC8F81430FB68BA68C8F8C0
:1050000044307B6DC8F818306FF00F030AF8005079
:10501000C8E90226C8F80430284613F059FA68B1E6
:10502000284613F055FAB6FBF0F303FB10662EB1D9
:10503000D8F8443043F00403C8F84430FB689B07B9
:1050400008D5482303FB0BA10B48343119F05CFE53
:105050000024C3E7284613F0C9F90446BEE76FF001
:105060000F04C0E77424002058240020BA0F020067
:10507000F4F701009F0F0200A816002010B54FF0B2
:105080002003EFF3118483F31288BFF36F8FFFF7D0
:105090004DFE50B14368103307D16FF08B0343606E
:1050A00000F13401034819F02FFE84F31188BFF397
:1050B0006F8F10BDA816002070B50F4C04254FF05F
:1050C0002003EFF3118683F31288BFF36F8F6368B9
:1050D000103307D16FF08B030848636004F134018B
:1050E00019F012FE86F31188BFF36F8F013D04F1B2
:1050F0004804E4D170BD00BF58240020A816002049
:1051000070B50A4C0A4E00253146204619F0DFFDE5
:105110000122A4F118001146013519F056FD042DA5
:1051200004F14804F0D1002070BD00BF8C240020A1
:10513000594D00000169012381F82B300B6833B110
:1051400091F829301BB10248083119F0DDBD7047D4
:10515000A81600200169012381F82A300B6833B1B9
:1051600091F828301BB10248083119F0CDBD7047C5
:10517000A81600200C4A03460021018510685867D4
:1051800090889279A3F8780083F87A2083F87C10CD
:1051900083F87B10A3F87E1083F88010402203F17F
:1051A0002C0018F097BD00BF28F80100F0B5C36EC1
:1051B0005B681B6A1F7D85B00546384618F027FCE2
:1051C0000646D8B9A86D4FF4205203A918F0E5F8A7
:1051D000044698B18306A5F1180308BF00F1FF3417
:1051E0002E740193064B03990093224602233846FE
:1051F000FFF7A0FEA86D214618F0EFF805B0F0BD4E
:105200000552000010B5012382F8283013681446B7
:105210003BB192F82A3023B1084802F1080119F095
:1052200073FD236F9A681B699A4206D004F1180136
:105230000248BDE8104019F067BD10BDA816002057
:1052400030B5046989B094F87E308DF8071013B139
:1052500094F87F305BB11E4B07930223069306AA96
:105260004FF486511B4818F05AFC09B030BD206F2E
:1052700084F8283001220DF1070118F06FF8054677
:10528000F8B9154B1348079306AA02234FF4865129
:10529000069318F044FC0122206F294618F0B2F85A
:1052A00038B90E4B07930223069306AA4FF4825196
:1052B000D8E7206F01220DF1070118F04FF8002800
:1052C000EFD004F11801064819F01EFDCDE700BF2C
:1052D000F00F0200D4F70100101002002F1002009E
:1052E000A816002080B500AF88B06A46064BC2E918
:1052F0000530032342F8103F04484FF4C45118F01E
:105300000EFCBD4680BD00BF46100200D4F7010070
:105310002DE9F0430D1E83B0064602AF144602F19C
:105320002C0832DDE06E2A46414618F017F8854217
:105330000FD9E94688B002AA194B53612D1A0323ED
:105340009561184842F8103F4FF4C25118F0E7FB3E
:10535000CD46012384F8293023683BB194F82B30E3
:1053600023B1114804F1080119F0CEFCE16E4B683D
:105370004A699A1ACB699B1A3F2B06D8012384F8F5
:1053800080300437BD46BDE8F083084B009301949C
:105390000123402241463046FFF7CCFDF1E700BF34
:1053A00067100200D4F70100A81600201153000076
:1053B000F0B5054687B00E460146424818F0F7FAA8
:1053C000044628B9284607B0BDE8F040FFF78ABF79
:1053D0000546711E55F884395F6805294AD8DFE80B
:1053E00001F03649032C3C4B374B05934FF4865163
:1053F00002233648049304AA18F091FB14F8061C03
:1054000039B93B6A2A46187BFFF782FF012304F86B
:10541000063C14F85C3C6BBB012304F85C3C54F87C
:10542000843C3BB314F85A3C23B32948A4F17C01D3
:1054300007B0BDE8F04019F067BC264B0593234840
:10544000022304AA4FF48651049318F068FB2846FF
:1054500007B0BDE8F040FFF78DBE1F4B05931B481A
:10546000022304AA4FF48651049318F058FB012339
:1054700004F8053C07B0F0BD184B1448059302260C
:1054800004AA4FF48651049618F049FB14F8053C21
:10549000002BEFD0124B0D484FF4865104AACDE9F2
:1054A000046318F03CFB14F8063C002104F8051CCA
:1054B000002BDFD03B6A187B2A4607B0BDE8F040DE
:1054C000FFF726BF7825002088100200D4F70100DE
:1054D000A81600209A100200AE100200BF100200B1
:1054E000CE1002002DE9F041066996F87E3000AF3B
:1054F000154613B196F87F3093B16C4688B06A4672
:10550000174B1848C2E90535032342F8103F4FF402
:10551000C45118F004FB0020A546BD46BDE8F0814B
:10552000306F86F8283017F019FFA84204460FD2D2
:10553000E84688B06A460C4B53612D1A03239561E7
:10554000084842F8103F4FF4C45118F0E8FAC54635
:10555000064806F1180119F0D7FB2046DDE700BF29
:10556000DB100200D4F7010067100200A81600202B
:1055700080B500AF88B06A46064BC2E90530032308
:1055800042F8103F04484FF4C45118F0C8FABD4621
:1055900080BD00BF0D110200D4F7010010B5014617
:1055A0000446064818F01DFA20B92046BDE8104010
:1055B000FFF7DEBF012300F8073C10BD782500206F
:1055C000F8B5044600AF0E4601791B48154618F0A1
:1055D000FAF998B9A3886C4688B06A461749184802
:1055E000C2E90513032342F8103F4FF4C45118F0E9
:1055F00096FA6FF01200A546BD46F8BD94F900205A
:105600006378002A11DB202B04D0222B09D06FF005
:105610008500F1E729680722103818F050FB0020B8
:10562000EAE7638800F8093CF9E7212BEFD110384D
:10563000072328603360F2E7782500203311020049
:10564000D4F7010010B504690023C4F888300C4B6E
:10565000C4F88400596804F1880269B9C3E90022DA
:1056600004F10800074919F032FB04F1180006495B
:1056700019F02DFB002010BD0A605A60F0E700BF52
:105680007825002039DA0100AD51000030B54FF423
:105690000033426805690D4C85B042F2A100CDE9A6
:1056A0000103002385F87D30106AADF80C100079F5
:1056B0000A2201A918F063F995F87D3023B9012079
:1056C00019F0B0FC013CF7D105B030BDA186010056
:1056D00037B5094D0949002400944FF0FF334FF4CA
:1056E0008062284616F02CFB0549284619F05EF921
:1056F000204603B030BD00BFA816002000BC00202B
:10570000701102002DE9F84305464FF02003EFF336
:10571000118683F31288BFF36F8F0E4B0E4F1C68F8
:10572000DFF838804FF00C092CB986F31188BFF3ED
:105730006F8FBDE8F883D4E90123002D18BF13460D
:105740002BB198F8142009FB02F2B85C9847246842
:10575000EAE700BF982500208C25002060AF0020DC
:1057600070B5194B1C7DBFF35B8F04F01F03012242
:105770009A40164B610903EB8103D04353E8001FA5
:1057800001EA000543E80056002EF7D1BFF35B8F16
:105790000A4213D00E4B0F4D8BB10C236343EA1812
:1057A000E85C517818F0AEFA0020FFF7ABFF0C234D
:1057B0005C432A1900232B51C2E9013370BD83F3E6
:1057C0001188BFF36F8FEFE760AF0020A0250020A6
:1057D00005DD01008C2500202DE9F041354B074601
:1057E0001D7D4FF02003EFF3118883F31288BFF380
:1057F0006F8F0C24304B314E6C431A19195D002900
:105800004CD007CA06EB040C8CE8070000221A559E
:1058100088F31188BFF36F8F0C236B43F218F05C91
:10582000002839D07B1C10D0D2F808C0244C254A5F
:105830004FF400400021ECFB004100232046FAF722
:105840005FFC0121381A19F0CBFB16F0EFFC0120A8
:10585000FFF758FFBFF35B8F1B4B6A0903EB820313
:1058600005F01F0101228A4053E8000F104343E86E
:1058700000010029F8D1BFF35B8F144B3BB10C231F
:1058800003FB05F03318305C597818F02FFAFFF756
:1058900067FF16F0DFFC0120BDE8F08101462846D5
:1058A00000F016F80028B3D007C8344484E8070095
:1058B000AEE700BF60AF0020802500208C250020CF
:1058C0003F420F0040420F00A0250020EDDC010008
:1058D0002DE9F04F85B00E4603A900F043F81E4BAA
:1058E000039DD3F800A0DFF87480431E1BB203EBC6
:1058F0004303044605EB83054FF400474FF0000BCC
:1059000024B9A146484605B0BDE8F08F6868144A3E
:10591000C4465946E0FB07C100236046FAF7F0FB96
:105920000190A8680E4AC4465946E0FB07C100230F
:105930006046FAF7E5FBBAF1FF3FA94601D0824580
:1059400005D9731CDED0019B1844B042DAD9013C62
:10595000A4B20C3DD4E700BFFC0000203F420F0082
:1059600040420F0008B9024B0B600020704700BF97
:1059700000F90100014910220A60704710ED00E0B3
:1059800072B6404080F31188BFF36F8FBFF34F8F23
:1059900030BF62B6BFF36F8F704700BF72B6494029
:1059A00081F3118820BF80F3118862B6704700BF71
:1059B0002DE9F047814600AF0C4600294CD06E46D9
:1059C0008AB0D1E90012A3686D462748A8464FF077
:1059D000050AC5E90501C5E9072348F810AF2348C2
:1059E000424600234FF42151FEF7C6F8B546D4E9EC
:1059F00003126369AD461E48C5F810A0C5E905014C
:105A0000C5E907231948002342464FF42151FEF708
:105A1000B3F8B54688B0E3696D46164AA8464FF01C
:105A2000030AC5E9052348F810AF10480023424691
:105A30004FF4C251FEF7A0F8B546A369AD460E4A31
:105A4000C5F810A0C5E905230848002342464FF4D5
:105A5000C251FEF791F8B5462146484615F0B0FC14
:105A6000BD46BDE8F08700BF7C110200B4F701001D
:105A7000AB110200DA110200E911020040B2002865
:105A800007DB044A4109012300F01F00834042F86C
:105A90002130704700E100E040B200280CDB4309F0
:105AA000064900F01F0020330122824041F82320E4
:105AB000BFF34F8FBFF36F8F704700BF00E100E06F
:105AC000054B420900F01F0053F82220012303FA7E
:105AD00000F01040704700BF00E100E040B2002835
